:100000000C9489000C94B4000C94B4000C94B400CB
:100010000C94B4000C94B4000C94B4000C94EA0D4D
:100020000C94B4000C94B4000C94B4000C94B40080
:100030000C94B4000C94B4000C94B4000C94772588
:100040000C94B4000C94B4000C94982C0C94B40050
:100050000C94312E0C94C72E0C94B4000C94B40064
:100060000C94B4000C94B4000C94C9230C94B40008
:100070000C946A2E0C94142F0C94B4000C94B400BD
:100080000C94B4000C94B4000C94B4000000210053
:10009000240027002A0000002200250028002B0051
:1000A00000002000230026002900020202020202B2
:1000B000020204040404040404040303030303030A
:1000C00003030101010101010101010204081020E3
:1000D0004080010204081020408001020408102022
:1000E000408001020408102040800000000102004E
:1000F00008090000000004030706000000000000DB
:1001000000000000000000000000F22143288F30B2
:10011000482811241FBECFEFD0E4DEBFCDBF15E0CD
:10012000A0E0B1E0E4E0F6E600E00BBF02C007901B
:100130000D92A636B107D9F71BBE1FE0A6E6B5E0C3
:1001400001C01D92AC3FB107E1F711E0C0E1D1E081
:1001500004C02297FE010E94F132CA30D107C9F7CC
:100160000E9425310C94F5320C9400008BE390E052
:1001700090935C0980935B0984E290E090935E0920
:1001800080935D0986E290E09093600980935F0917
:1001900089E290E090936209809361098BE290E09C
:1001A00090936409809363098FE290E090936609CD
:1001B0008093650985E290E09093680980936709D0
:1001C00087E290E090936A098093690988E390E060
:1001D00090936C0980936B0981E390E090936E0992
:1001E00080936D098EE290E09093700980936F097F
:1001F0008AE290E090937209809371098CE390E019
:1002000090937409809373098EE390E0909376093C
:100210008093750980E490E0909378098093770942
:1002200081E490E090937A09809379090895089584
:100230005D9A81E0809371051092EE0880937205BB
:1002400008955D98109271051092EF0885B1887F2E
:1002500085B908951092E6081092E406E091E60848
:100260008091E708F0E0EE0FFF1FE80FF11DEA5163
:10027000F94F808180934F068F5F809304018150F6
:10028000982F92959F709093DB068F7080934E0607
:100290000895A0916805AA2329F0A23019F0A13091
:1002A00009F080C1709171058091FF08772309F4EE
:1002B00057C0882341F180918B054091EB08E09174
:1002C000EF08F0E0EE0FFF1FE80FF11DEE0FFF1F2C
:1002D000EB5AF94F242F30E080819181BC01269F99
:1002E000C001279F900D369F900D11242091550934
:1002F00030915609822B932B9093FD088093FC0834
:100300004423E1F14DC08091FE08882309F44CC0DC
:1003100080918B054091EB08E091EF08F0E0EE0F43
:10032000FF1FE80FF11DEE0FFF1FEB5AF94F242FAF
:1003300030E080819181BC01269FC001279F900DF4
:10034000369F900D11242091010930910209822BD2
:10035000932B9093FD088093FC08442319F120C04F
:10036000882371F080915509909156099093FD086A
:100370008093FC088091EB08882391F480E8E7C023
:100380008091FE08882381F08091010990910209F3
:100390009093FD088093FC088091EB08882311F06E
:1003A00080E0D5C080E4D3C08091FF08882309F0A5
:1003B000CFC06091DE06E091DF066E17B0F421E059
:1003C00030E0C9010E2E02C0880F991F0A94E2F78F
:1003D000AC0141505040482B592B02C0220F331F13
:1003E0006A95E2F7215030401CC0E61728F040E043
:1003F00050E020E030E015C081E090E0AC010E2E2E
:1004000002C0440F551F0A94E2F74150504002C009
:10041000880F991F6A95E2F79C0121503040282BE4
:10042000392B80917D05772341F58823E1F4809174
:10043000EB0870914E06EF3F59F490E002C0880F30
:10044000991F7A95E2F79093FD088093FC084FC0BE
:100450004227532790E002C0880F991F7A95E2F750
:100460004827592740C081E090E00090DB0602C099
:10047000880F991F0A94E2F765C0882309F04DC0E0
:100480008091EB086091EF0870914E06EF3FA9F460
:10049000282F30E002C0220F331F6A95E2F781E077
:1004A00090E002C0880F991F7A95E2F72827392734
:1004B0003093FD082093FC081AC042275327282FA9
:1004C00030E06F7002C0220F331F6A95E2F780910F
:1004D000EC0890E002C0880F991F7A95E2F7282770
:1004E0003927422753275093FD084093FC08209159
:1004F0007C0580917B05882311F040E401C040E831
:1005000030E02E5F3F4F81E090E002C0880F991FDE
:100510002A95E2F7480F48B91BC08091EB0890E09C
:100520000090EF0802C0880F991F0A94E2F721E0BB
:1005300030E00090DB0602C0220F331F0A94E2F77E
:10054000822793279093FD088093FC088CEF88B94D
:10055000E0918B05F0E0E952F94FE081E03179F06C
:10056000E13118F4EC3081F405C0E83131F0E032CB
:1005700059F407C010927C0507C081E003C082E0F7
:1005800001C083E080937C059091EF08892F805112
:100590008F3E18F010927B0505C0903118F081E075
:1005A00080937B05A33009F0DDC0E0918B05F0E07E
:1005B000E952F94FE081E03179F0E13118F4EC30A3
:1005C00089F405C0E83131F0E03261F409C01092DD
:1005D0007C0508C081E001C082E080937C0502C0F8
:1005E000A0937C05E0918B05F0E0EB52F94F808100
:1005F0008131A0F080910301882381F08091EF0880
:1006000090917B05803130F0992341F481E0809313
:100610007B0504C0913011F410927B0580917C051C
:1006200050917B05552311F040E401C040E890E073
:10063000029621E030E0B90102C0660F771F8A956B
:10064000E2F7460F48B980917105882309F46AC022
:100650006091EF085523F9F4E0918B058091EB0848
:1006600090E002C0880F991F6A95E2F72091670514
:10067000F0E074E0EE0FFF1F7A95E1F7E20FF11D55
:10068000EE0FFF1FEE0FFF1FE457FA4F208131815D
:100690008227932742C0603140F1513031F5E0911B
:1006A0008B052091EB0830E0862F90E0409702C048
:1006B000220F331F8A95E2F780916705F0E054E03E
:1006C000EE0FFF1F5A95E1F7E80FF11DEE0FFF1F28
:1006D000EE0FFF1FE257FA4F8081918128273927BB
:1006E0003093FD082093FC0808956031D8F551300F
:1006F000C9F5E0918B0580916705F0E034E0EE0FDD
:10070000FF1F3A95E1F7E80FF11DEE0FFF1FEE0F07
:10071000FF1FE257FA4F808191819093FD088093EB
:10072000FC08089580917D05882371F00090DB0618
:1007300002C0220F331F0A94E2F73093FD08209382
:10074000FC088CEF88B908958091EB0890E0009048
:100750004E0602C0880F991F0A94E2F79093FD0895
:100760008093FC08089580917D05882351F081E0F5
:1007700090E00090DB0602C0880F991F0A94E2F710
:100780000FC0809171052091EB0840914E0688239F
:1007900061F4822F90E002C0880F991F4A95E2F71A
:1007A0009093FD088093FC0815C030E00090EF089E
:1007B00002C0220F331F0A94E2F781E090E002C0EA
:1007C000880F991F4A95E2F7282739273093FD08AB
:1007D0002093FC0880916805873019F08091E40629
:1007E00002C08091E6088F70880F880F88B908953D
:1007F0000F931F93CF93DF9380910501882309F412
:10080000CEC01092050160E070E080918B058823D6
:1008100019F482E090E002C080E090E0FB01EE0F6E
:10082000FF1FEE0FFF1FE80FF91FEB5AF94F118260
:10083000108240E050E08B01000F111F80918B056A
:10084000A0E0B0E0882311F4A1E0B0E080918B0536
:10085000E801CA0FDB1FCC0FDD1FCB5AD94F88230D
:1008600019F480E490E002C080E090E0FA01EE0F1D
:10087000FF1FEE0FFF1FE80FF91FE457FA4F8081AB
:100880009181062E02C0969587950A94E2F78170B1
:100890009070042E02C0880F991F0A94E2F7A00FEF
:1008A000B11FAA0FBB1FAB5AB94F2D913C918227A4
:1008B0009327998388834F5F5F4F4031510509F03B
:1008C000BDCF6F5F7F4F6031710509F09ECF60E053
:1008D00070E09B01205F3F4F80918B05882319F4C6
:1008E00082E090E002C080E090E0F901EE0FFF1F8F
:1008F000EE0FFF1FE80FF91FEB5AF94F118210821C
:1009000040E050E08901000F111F80918B05E0E06D
:10091000F0E0882311F4E1E0F0E080918B05E8013C
:10092000CE0FDF1FCC0FDD1FCB5AD94FDA01AA0F34
:10093000BB1F1196882319F480E490E002C080E088
:1009400090E0AA0FBB1FA80FB91FA457BA4F8D91F3
:100950009C91062E02C0969587950A94E2F78170C5
:100960009070042E02C0880F991F0A94E2F7E00FDE
:10097000F11FEE0FFF1FEB5AF94F208131818227C3
:100980009327998388834F5F5F4F4031510509F06A
:10099000BCCF6F5F7F4F6031710509F09ACF8091B6
:1009A0005306882309F4A2C01092530660E070E059
:1009B00080918B059B01220F331FF901E80FF11D78
:1009C000EE0FFF1FEB5AF94F1182108240E050E00A
:1009D000E90180918B05E0918B05DE01A80FB11D27
:1009E000AA0FBB1FAB5AB94FF0E004E0EE0FFF1F98
:1009F0000A95E1F7E40FF51FEE0FFF1FEE0FFF1F43
:100A0000E457FA4F80819181062E02C09695879512
:100A10000A94E2F781709070042E02C0880F991F2B
:100A20000A94E2F72D913C911197822793278D9399
:100A30009C934F5F5F4F4031510559F66F5F7F4F79
:100A40006031710509F0B4CF40E050E0405F5F4F86
:100A500020918B05CA01880F991F40515040FC011D
:100A6000E20FF11DEE0FFF1FEB5AF94F11821082BA
:100A700060E070E0EC0180918B05E0918B05DE0178
:100A8000A80FB11DAA0FBB1FAB5AB94FF0E004E08D
:100A9000EE0FFF1F0A95E1F7E60FF71FEE0FFF1F9E
:100AA000EE0FFF1FE257FA4F80819181042E02C0A2
:100AB000969587950A94E2F781709070062E02C091
:100AC000880F991F0A94E2F72D913C911197822784
:100AD00093278D939C936F5F7F4F6031710559F61B
:100AE0004F5F5F4F4031510509F0B0CF80917105E4
:100AF000882371F48091DC06882351F080918B0566
:100B000090E0882309F491E090938B051092DC0625
:100B1000DF91CF911F910F9108950E94F80380916A
:100B2000F3088823E9F11092F30880917105882376
:100B3000A9F08091EA08882389F08091E40688234F
:100B400069F490E08091E708882309F491E090939C
:100B5000E7081092EA0881E0809305011092F308FB
:100B6000E091E4068091E708F0E0EE0FFF1FE80F48
:100B7000F11DEA51F94F208120934F06322F329513
:100B80003F703093DB06832F90E0B4E0880F991F0D
:100B9000BA95E1F7281B20934E0681E0809305016A
:100BA00080917105882331F480918205882311F0AA
:100BB0000E942A0108950F931F93CF93DF9360E063
:100BC00070E080918B05882319F482E090E002C0E8
:100BD00080E090E0FB01EE0FFF1FEE0FFF1FE80F1C
:100BE000F91FEB5AF94F1182108240E050E08B015F
:100BF000000F111F80918B05A0E0B0E0882311F455
:100C0000A1E0B0E080918B05E801CA0FDB1FCC0F9B
:100C1000DD1FCB5AD94F882319F480E490E002C03D
:100C200080E090E0FA01EE0FFF1FEE0FFF1FE80FCC
:100C3000F91FE457FA4F80819181062E02C09695E4
:100C400087950A94E2F781709070042E02C0880F95
:100C5000991F0A94E2F7A00FB11FAA0FBB1FAB5A4E
:100C6000B94F2D913C9182279327998388834F5FB9
:100C70005F4F4031510509F0BDCF6F5F7F4F60314D
:100C8000710509F09ECF60E070E09B01205F3F4F4F
:100C900080918B05882319F482E090E002C080E007
:100CA00090E0F901EE0FFF1FEE0FFF1FE80FF91F95
:100CB000EB5AF94F1182108240E050E08901000F99
:100CC000111F80918B05E0E0F0E0882311F4E1E052
:100CD000F0E080918B05E801CE0FDF1FCC0FDD1F08
:100CE000CB5AD94FDA01AA0FBB1F1196882319F4EA
:100CF00080E490E002C080E090E0AA0FBB1FA80F44
:100D0000B91FA457BA4F8D919C91062E02C096959B
:100D100087950A94E2F781709070042E02C0880FC4
:100D2000991F0A94E2F7E00FF11FEE0FFF1FEB5A35
:100D3000F94F2081318182279327998388834F5FE0
:100D40005F4F4031510509F0BCCF6F5F7F4F60317D
:100D5000710509F09ACFDF91CF911F910F910895FE
:100D6000CF93DF930E94F8038AEC99E00E94F12070
:100D7000EC018091890590918A05C817D90751F037
:100D80000E94E02C6093F4087093F5088093F608B5
:100D90009093F7080E94E02C2091F4083091F50818
:100DA0004091F6085091F708621B730B840B950B6A
:100DB000653071058105910508F444C08091850571
:100DC00090918605C817D907E9F1D0938605C0939D
:100DD000850580917D058823A1F020E030E0CE01DB
:100DE000022E02C0959587950A94E2F780FF03C012
:100DF0002093DB0613C02F5F3F4F2031310579F779
:100E000018C020E030E0CE01022E02C095958795F3
:100E10000A94E2F780FF08C020934E0681E0809399
:100E200005018093520605C02F5F3F4F20313105E9
:100E300051F78091DB068295807F90914E06890F55
:100E400080934F06D0938A05C093890580918005D1
:100E5000882391F080918105882371F481E080934B
:100E600081058091E6088F5F8093E6088091E6080F
:100E70008F3F11F41092E608809152064091E708E6
:100E8000882391F0E091E608F0E0EE0FFF1FE40FF9
:100E9000F11DEA51F94F80914F068083109252065E
:100EA00081E08093E90832C0E091E60850E0F0E08C
:100EB000EE0FFF1FE40FF51FEA51F94F2081229535
:100EC0002F702093DB06E091E608822F90E0F4E09B
:100ED000880F991FFA95E1F7F0E0EE0FFF1FE40F7E
:100EE000F51FEA51F94F2081281B20934E06E0910F
:100EF000E608F0E0EE0FFF1FE40FF51FEA51F94F8F
:100F0000808180934F0681E0809305018091830565
:100F1000882389F080918405882369F491E0909377
:100F200084058091E608E091E708F0E0E85FFE4F75
:100F300080839093E90880918205882311F00E94B4
:100F40002A0180917105882371F48091EA08882331
:100F500051F090E08091E708882309F491E09093A4
:100F6000E7081092EA08DF91CF9108954F925F92BF
:100F70006F927F928F929F92AF92BF92CF92DF92A9
:100F8000EF92FF920F931F93CF93DF930E94F8038A
:100F90008AEC99E00E94F1208C0180918905909162
:100FA0008A050817190751F00E94E02C6093F40895
:100FB0007093F5088093F6089093F7080E94E02C50
:100FC0002091F4083091F5084091F6085091F70807
:100FD000621B730B840B950B6530710581059105C0
:100FE00008F4C1C1809185059091860508171907FD
:100FF00009F4B4C11093860500938505C5E0D9E0D6
:1010000045E359E0A5E1B9E020E030E01882C801ED
:10101000022E02C0969587950A94E2F7982F917058
:10102000F901EB5DF64F9083FA018081981739F052
:101030008C91882319F4913009F498839C93FA01D8
:101040009193AF012F5F3F4F2196119620313105CB
:10105000E9F670916805772329F0723019F0713044
:1010600009F0F6C06091FF08662309F45FC0909014
:1010700000092091550930915609C5E4D9E040E0B6
:1010800050E0F1E0CF2ED12CE12CF12CE1E0AE2E9E
:10109000B12C88248394942FFA01EB5FF64F808162
:1010A0008823C9F1992091F09501042E02C0220FE6
:1010B000331F0A94E2F720953095E5E4F9E0819238
:1010C00089E0E535F807D9F7188203C088818F5F7A
:1010D00088838881813019F08230E9F40CC02601C0
:1010E000370104C0440C551C661C771C9A95D2F736
:1010F0002429352910C02601370104C0440C551C91
:10110000661C771C9A95D2F7D301C2018095909501
:101110002823392318824F5F5F4F219640315105B4
:1011200009F0B9CF30935609209355098091FE08F4
:101130008823B1F01093020900930109E0918B0517
:10114000F0E0E952F94F808190E08F709070892B28
:1011500021F481E0809304097BC01092040978C0D7
:10116000662309F075C080917D058823B9F020E0E1
:1011700030E0C801022E02C0959587950A94E2F7E7
:1011800080FF06C02093DB0681E08093050160C0EC
:101190002F5F3F4F2031310561F75AC09091DD0636
:1011A0006091DF064091DE0620E030E0522FF90129
:1011B000EB5FF64F8081882381F09F5F913021F4AF
:1011C000909305016FEF0AC0923039F44093DE0628
:1011D0002093DF061092DD060EC0542F2F5F3F4F85
:1011E0002031310511F0452FE1CF9093DD0660935A
:1011F000DF065093DE062091DE069091DF069217FF
:1012000028F49F3F19F09093E00602C02093E00677
:1012100081E0809305018091E00680934E069F3F18
:1012200019F41092E10614C0892F90E0821B9109F5
:1012300097FF03C0909581959F4F8093E10691E0C1
:101240009093E20680917105882311F09093E30654
:10125000733009F088C08091710590917D058823D5
:1012600009F452C020917B05992311F1422F429538
:10127000407F4F5F5091D90620E030E0C801022E38
:1012800002C0959587950A94E2F780FF09C0E09126
:101290008B05F0E0EB52F94F842F820F808351E0F1
:1012A0002F5F3F4F2031310549F75093D9065BC07E
:1012B00081E08093530680935406E0918B05F0E023
:1012C0008091670544E0EE0FFF1F4A95E1F7E80FB4
:1012D000F11DEE0FFF1FE20FF11DEE0FFF1FE45790
:1012E000FA4F80918705909188058095909580238D
:1012F00091232081318182279327918380831093CA
:101300008805009387052FC09923A1F020E030E0E5
:10131000C801022E02C0959587950A94E2F780FFD6
:1013200003C02093DB061FC02F5F3F4F20313105E4
:1013300079F719C020E030E0C801022E02C095956F
:1013400087950A94E2F780FF03C020934E060BC0F6
:101350002F5F3F4F2031310579F705C00115110589
:1013600011F41092DD068091E106882381F08091CE
:10137000F308882361F08091E4069091E006890FDC
:1013800080934E0681E0809305011092F3088091CE
:101390007105882389F41092E3068091E206882380
:1013A00059F01092E2061092F3088091E0068093C3
:1013B0004E0681E08093050110938A05009389050C
:1013C0008091DB068295807F90914E06890F8093F5
:1013D0004F0680917E05882309F45DC080916805E1
:1013E000833009F043C02091EF08809167052031D8
:1013F00088F4E0918B05F0E094E0EE0FFF1F9A95E2
:10140000E1F7E80FF11DEE0FFF1FEE0FFF1FE4578E
:10141000FA4F13C0E0918B05F0E004E0EE0FFF1FE0
:101420000A95E1F7E80FF11DEE0FFF1FEE0FFF1F0A
:10143000E257FA4F30E02051304081E090E0A0E0E8
:10144000B0E004C0880F991FAA1FBB1F2A95D2F7CE
:10145000809590952081318182239323918380838D
:1014600081E0809353068093540615C0882321F0B1
:10147000823011F0813079F48091FF08882359F08F
:101480001092560910925509E5E4F9E0119289E0AD
:10149000E535F807D9F7DF91CF911F910F91FF90B4
:1014A000EF90DF90CF90BF90AF909F908F907F9004
:1014B0006F905F904F900895CF93DF938AEC99E0FF
:1014C0000E94F120EC018091890590918A05C8174E
:1014D000D90751F00E94E02C6093F4087093F5084E
:1014E0008093F6089093F7080E94E02C2091F4086E
:1014F0003091F5084091F6085091F708621B730B84
:10150000840B950B653071058105910588F18091FB
:10151000850590918605C817D90751F1D0938605A6
:10152000C093850580917D05882311F520E030E08A
:10153000CE01022E02C0959587950A94E2F780FFAE
:1015400012C02093590981E080935A0981E090E00C
:10155000022E02C0880F991F0A94E2F79093FD08AB
:101560008093FC0805C02F5F3F4F2031310501F704
:10157000D0938A05C0938905DF91CF91089580911A
:1015800057099091580994FF04C08EE060E00E94D2
:10159000FD2D809157099091580995FF04C081E075
:1015A00060E00E94FD2D809157099091580996FFA7
:1015B00004C080E060E00E94FD2D089520918B051D
:1015C0008091550990915609809590958070907101
:1015D000E091EF08F0E0EE0FFF1FE20FF11DEE0FBC
:1015E000FF1FEB5AF94F2081318182239323892BEE
:1015F00021F08EE060E00E94FD2D20918B0580910E
:101600005509909156098095909580709072E0915F
:10161000EF08F0E0EE0FFF1FE20FF11DEE0FFF1FCE
:10162000EB5AF94F2081318182239323892B21F0BA
:1016300081E060E00E94FD2D20918B05809155098D
:10164000909156098095909580709074E091EF0884
:10165000F0E0EE0FFF1FE20FF11DEE0FFF1FEB5A40
:10166000F94F2081318182239323892B21F080E05F
:1016700060E00E94FD2D08958EE061E00E94FD2D46
:1016800081E061E00E94FD2D80E061E00E94FD2D7F
:10169000089588E160E00E94FD2D89E161E00E94EB
:1016A000FD2D90B1969596959F709093E506909339
:1016B000670580910701891729F081E08093E80888
:1016C0009093070188E161E00E94FD2D89E160E0CF
:1016D0000E94FD2D80B1869586958F708093680558
:1016E00008958130C9F0813018F08230C1F52AC0E8
:1016F00010927005F894109273008DE69CE069E7F3
:101700007FE02FEF3FEF4FEF5FEF0E941E268AB181
:1017100080638AB97894089580937005F8948DE673
:101720009CE00E943D268AB18F7C8AB98091680036
:101730008860809368008091730080638093730059
:101740007894089580937005F894109273008DE654
:101750009CE00E943D268AB180638AB978940895FE
:101760000F931F9388B1837088B98AEC99E060E089
:1017700070E00E94A92003E71CE0C80160E870E067
:101780000E949226C80160E970E00E949226C8017A
:1017900068EF70E00E949226C8016AEF70E00E9434
:1017A0009226C8016CEF70E00E9492261F910F9163
:1017B00008950F931F93162F042F80E888B98CE2A9
:1017C00091E00E94472D18B880917D05882361F033
:1017D000E0916705F0E0EE0FFF1FE55AF64F10832A
:1017E000118281E080937B09612F70E080915B0919
:1017F00090915C096817790709F46FC080915D09C1
:1018000090915E096817790709F467C080915F09B4
:10181000909160096817790709F45FC080916109A8
:10182000909162096817790709F457C0809163099C
:10183000909164096817790709F44FC08091650990
:10184000909166096817790709F447C08091670984
:10185000909168096817790709F43FC08091690978
:1018600090916A0968177907C1F180916B0990918D
:101870006C096817790789F180916D0990916E095B
:101880006817790751F180916F0990917009681775
:10189000790719F180917109909172096817790798
:1018A000E1F0809173099091740968177907A9F0A4
:1018B00080917509909176096817790771F0809188
:1018C0007709909178096817790739F0809179093B
:1018D00090917A0968177907C9F50436D0F081E04C
:1018E00090E0A0E0B0E080937C0990937D09A09304
:1018F0007E09B0937F0980915709909158098160C2
:101900009093580980935709ABE5B9E0E0E0F0E027
:1019100003C00023C9F71AC08D919C9111976817D5
:10192000790779F4EE0FFF1FEE0FFF1FE458F64F13
:1019300081E090E0A0E0B0E080839183A283B38354
:1019400005C031961296E031F10531F71F910F91E4
:1019500008950E943C0B5C9A80ED97E00E94472D11
:101960005C988091FE088823F9F080910309E0914A
:101970000409F0E0EE0FFF1FEE0FFF1FE80FF11D4F
:10198000E65FFE4F6081669566958091EE0890E077
:1019900070E00E948B32892B39F48091010990917B
:1019A0000209892B09F02A9A8091F0086091FC08BD
:1019B0007091FD08882309F12A9A80918B05E091A6
:1019C000EF08F0E0EE0FFF1FE80FF11DEE0FFF1F15
:1019D000EB5AF94F40915509509156094095509551
:1019E00080819181482359238AEC99E00E94CB2081
:1019F0000E94DE0A1092F00808C04091010950913F
:101A000002098AEC99E00E94CB202091EE082F5F1A
:101A10002093EE089091ED089F5F9093ED088091E0
:101A20007105882309F4AAC09C3050F01092ED088B
:101A300090E08091EC08882309F491E09093EC0801
:101A4000233018F01092EB0803C081E08093EB087C
:101A5000809172058823F1F02A9AE0918B056091BC
:101A6000FC087091FD08F0E0EE0FFF1FEB5AF94FF4
:101A7000409155095091560940955095808191812A
:101A8000482359238AEC99E00E94CB200E94DE0A69
:101A900010927205E0918B05F0E0E952F94F8081D8
:101AA000869586959091EE08981708F489C0109253
:101AB000EE084091EF084F5F4093EF08E0918B05EF
:101AC000242F30E0F0E0EB52F94F808190E0019755
:101AD00028173907B9F581E08093F308209168054C
:101AE000222321F0223011F02130A9F48091E40664
:101AF0008F5F8093E4069091E4068091E106891758
:101B000010F41092E4068091E306882321F01092ED
:101B1000E3061092E406243021F0263011F025303F
:101B200089F48091E4068F5F8093E4069091E40647
:101B3000E091E708F0E0E85FFE4F8081981710F031
:101B40001092E40681E08093F008E0918B05F0E0CC
:101B5000EB52F94F8081481798F11092EF0880916D
:101B6000DC06882369F180918B0590E0882309F4D5
:101B700091E090938B051092DC0622C09C3050F0CF
:101B80001092ED0890E08091EB08882309F491E031
:101B90009093EB0880916805882321F0823011F042
:101BA000813011F41092E406843021F0863011F077
:101BB000853031F480918205882311F01092E4067B
:101BC00085B1887F85B90895682F8DED9FE00E94CB
:101BD000533008951F920F920FB60F920BB60F92CB
:101BE00011242F933F934F935F936F937F938F9322
:101BF0009F93AF93BF93EF93FF930E943C0B4C9B3B
:101C000063C180917105882309F45EC185B1887F25
:101C100085B98091FE088823F9F080910309E0914D
:101C20000409F0E0EE0FFF1FEE0FFF1FE80FF11D9C
:101C3000E65FFE4F6081669566958091EE0890E0C4
:101C400070E00E948B32892B39F4809101099091C8
:101C50000209892B09F02A9A8091F0086091FC080A
:101C60007091FD08882301F180918B05E091EF08C8
:101C7000F0E0EE0FFF1FE80FF11DEE0FFF1FEB5A14
:101C8000F94F4091550950915609409550958081E2
:101C90009181482359238AEC99E00E94CB200E942D
:101CA000DE0A1092F00808C0409101095091020923
:101CB0008AEC99E00E94CB208091ED088C3050F0A6
:101CC0001092ED0890E08091EC08882309F491E0EF
:101CD0009093EC088091EE08833018F01092EB0896
:101CE00003C081E08093EB0880917205882319F18D
:101CF0008AEF0E94E40D1092EE082A9AE0918B057B
:101D00006091FC087091FD08F0E0EE0FFF1FEB5AA8
:101D1000F94F409155095091560940955095808151
:101D20009181482359238AEC99E00E94CB200E949C
:101D3000DE0A1092720588EF0E94E40D9091EE0881
:101D40009F5F9093EE088091ED088F5F8093ED0880
:101D5000E0918B05F0E0E952F94F808186958695F8
:101D6000981709F0B3C01092EE084091EF084F5F4A
:101D70004093EF08E0918B05242F30E0F0E0EB5228
:101D8000F94F808190E0019728173907B9F581E074
:101D90008093F30820916805222321F0223011F06E
:101DA0002130A9F48091E4068F5F8093E40690913E
:101DB000E4068091E106891710F41092E406809100
:101DC000E306882321F01092E3061092E406243003
:101DD00021F0263011F0253089F48091E4068F5FE0
:101DE0008093E4069091E406E091E708F0E0E85F74
:101DF000FE4F8081981710F01092E40681E08093E6
:101E0000F0082A9AE0918B05F0E0EB52F94F8081BF
:101E1000481708F45BC01092EF088091DC06882315
:101E200009F454C080918B0590E0882309F491E077
:101E300090938B051092DC0649C080917105882330
:101E400009F044C080917605882329F08CEF0E9428
:101E5000E40D1092760580916805882321F0823088
:101E600011F0813011F41092E406843021F08630B4
:101E700011F0853031F480918205882311F01092A1
:101E8000E40688EF0E94E40D1092EF081092EE082D
:101E90006091FC087091FD088AEC99E040E050E008
:101EA0000E94CB208091ED088F5F8093ED088C30ED
:101EB00068F01092ED0890E08091EB08882309F417
:101EC00091E09093EB0802C04C99B7CFFF91EF914E
:101ED000BF91AF919F918F917F916F915F914F9142
:101EE0003F912F910F900BBE0F900FBE0F901F9040
:101EF00018950E943C0B8091FE088823E9F08091A0
:101F00000309E0910409F0E0EE0FFF1FEE0FFF1F41
:101F1000E80FF11DE65FFE4F60818091EE0890E0D2
:101F200070E00E948B32892B39F4809101099091E5
:101F30000209892B09F02A9A8091F0082091010961
:101F4000309102096091FC087091FD08882319F115
:101F500080918B05E091EF08F0E0EE0FFF1FE80F96
:101F6000F11DEE0FFF1FEB5AF94F409155095091AB
:101F70005609409550958081918148235923422BE1
:101F8000532B8AEC99E00E94CB200E94DE0A10922B
:101F9000F0082A9A05C08AEC99E0A9010E94CB209A
:101FA0002091EE082F5F2093EE089091ED089F5F3F
:101FB0009093ED0880917105882309F4B4C09033A3
:101FC00050F01092ED0890E08091EC08882309F41D
:101FD00091E09093EC082C3018F01092EB0803C0BD
:101FE00081E08093EB0880917205882359F08AEF95
:101FF0000E94E40D1092EE085D9A5C980E94DE0A41
:102000001092720580917305882309F4D1C08091E4
:10201000EE08813009F0CCC02A9AE0918B056091DE
:10202000FC087091FD08F0E0EE0FFF1FEB5AF94F2E
:102030004091550950915609409550958081918164
:10204000482359238AEC99E00E94CB201092730513
:102050009CC01092EE084091EF084F5F4093EF084C
:10206000E0918B05242F30E0F0E0EB52F94F8081B6
:1020700090E0019728173907B9F581E08093F308BC
:1020800020916805222321F0223011F02130A9F49B
:102090008091E4068F5F8093E4069091E40680913E
:1020A000E106891710F41092E4068091E306882374
:1020B00021F01092E3061092E406243021F026303D
:1020C00011F0253089F48091E4068F5F8093E40657
:1020D0009091E406E091E708F0E0E85FFE4F808130
:1020E000981710F01092E40691E09093F008E091B8
:1020F0008B05F0E0EB52F94F8081481708F445C09A
:102100001092EF089093F2088091DC068823E9F1A1
:1021100080918B0590E0882309F491E090938B05E2
:102120001092DC0632C080917605882329F08CEF6E
:102130000E94E40D1092760580916805882321F0B5
:10214000823011F0813011F41092E406843021F0D5
:10215000863011F0853031F480918205882311F0AA
:102160001092E4061092EF081092F1085D988091A9
:10217000ED08803350F01092ED0890E08091EB086C
:10218000882309F491E09093EB088091EE0890E0A9
:1021900080FF05C04C9902C05C9A01C05C988370B6
:1021A0009070019719F488EF0E94E40D2A98089521
:1021B000E0918B05F0E0E952F94F9091EE088081B3
:1021C000981708F046CFE1CF1F93809182058823AE
:1021D00009F456C010E025C0479A2A9A6091FC087D
:1021E0007091FD088AEC99E042E050E00E94CB201B
:1021F00068EC70E080E090E00E94EE2C47982A980E
:102200006091FC087091FD088AEC99E040E050E094
:102210000E94CB2064E670E080E090E00E94EE2C0B
:102220001F5F809100011817B8F210E025C0469A90
:102230002A9A6091FC087091FD088AEC99E040E8C8
:1022400050E00E94CB2068EC70E080E090E00E94BB
:10225000EE2C46982A986091FC087091FD088AEC53
:1022600099E040E050E00E94CB2064E670E080E01E
:1022700090E00E94EE2C1F5F809166051817B8F25F
:10228000109282051F910895EF92FF920F931F9372
:10229000CF93DF9300E010E0C0E0D0E031E0E32E28
:1022A000F12CC7010C2E02C0880F991F0A94E2F787
:1022B000082B192B8AEC99E0B8010E94A9206EE145
:1022C00070E080E090E00E94EE2C2196C031D105B4
:1022D00041F78AEC99E060E070E00E94A920DF916C
:1022E000CF911F910F91FF90EF900895EF92FF9281
:1022F0000F931F937C0103ED1AE0C80160E570E0C5
:102300000E94B821C8016F2D0E943A22C8016E2D8B
:102310000E943A221F910F91FF90EF9008950F9322
:102320001F9380E292E50E94761103ED1AE0C80146
:10233000609159090E943A22C8010E947D2265E0FD
:1023400070E080E090E00E94EE2C1F910F910895C4
:10235000CF93DF9380917B098823E1F010927B0972
:1023600080E192E50E947611CBE5D9E083ED9AE019
:1023700068810E943A22229689E0CB37D807B1F7CC
:1023800083ED9AE00E947D2265E070E080E090E0BD
:102390000E94EE2CDF91CF9108951F9380914F06FC
:1023A00090E056E0880F991F5A95E1F70E94761148
:1023B00010E083ED9AE060E00E943A2283ED9AE01B
:1023C00060E00E943A2283ED9AE060E00E943A22A7
:1023D00083ED9AE060E00E943A221F5F103149F7D6
:1023E00083ED9AE00E947D2265E070E080E090E05D
:1023F0000E94EE2C80914F0690E08050904E880F06
:10240000991F0E94761183ED9AE060E10E943A22C2
:1024100083ED9AE068E10E943A2283ED9AE00E94FF
:102420007D2265E070E080E090E00E94EE2C1F913C
:1024300008951F93CF93DF9380914F0690E076E04D
:10244000880F991F7A95E1F70E947611CCE0D6E0CB
:102450006881198183ED9AE00E943A2283ED9AE027
:10246000612F0E943A226A811B8183ED9AE00E94CB
:102470003A2283ED9AE0612F0E943A22249686E068
:10248000CC34D80729F783ED9AE00E947D2265E0DD
:1024900070E080E090E00E94EE2C80914F0690E08A
:1024A0008050904E880F991F0E94761183ED9AE01C
:1024B00060914C060E943A2283ED9AE060914D06AD
:1024C0000E943A2283ED9AE00E947D2265E070E04E
:1024D00080E090E00E94EE2CDF91CF911F91089553
:1024E000CF93DF938AEC99E00E94F120EC01809178
:1024F000890590918A05C817D90751F00E94E02CF0
:102500006093F4087093F5088093F6089093F708A9
:102510000E94E02C2091F4083091F5084091F608D3
:102520005091F708621B730B840B950B6530710596
:102530008105910508F442C080918505909186053A
:10254000C817D907D9F1D0938605C0938505809126
:102550007D058823A1F420E030E0CE01022E02C0E8
:10256000959587950A94E2F780FF03C020934E0665
:1025700013C02F5F3F4F2031310579F716C020E09F
:1025800030E0CE01022E02C0959587950A94E2F7BD
:1025900080FF06C02093DB0681E08093050105C023
:1025A0002F5F3F4F2031310561F78091DB06829527
:1025B000807F90914E06890F80934F06D0938A05B5
:1025C000C093890580917805882381F08091050169
:1025D000882321F480916B05882341F01092050136
:1025E00010926B050E9419120E944411DF91CF9145
:1025F00008951F93CF93DF938091040190E076E0DC
:10260000880F991F7A95E1F70E947611C0E0D0E01B
:10261000A0918B05E0918B05F0E064E0EE0FFF1FC9
:102620006A95E1F7EC0FFD1FEE0FFF1FEE0FFF1F86
:10263000E457FA4F1181B0E044E0AA0FBB1F4A955E
:10264000E1F7AC0FBD1FAA0FBB1FAA0FBB1FA457FA
:10265000BA4F83ED9AE06C910E943A2283ED9AE0A2
:10266000612F0E943A22A0918B05E0918B05F0E04A
:1026700024E0EE0FFF1F2A95E1F7EC0FFD1FEE0F90
:10268000FF1FEE0FFF1FE257FA4F1181B0E084E009
:10269000AA0FBB1F8A95E1F7AC0FBD1FAA0FBB1F86
:1026A000AA0FBB1FA257BA4F83ED9AE06C910E940C
:1026B0003A2283ED9AE0612F0E943A222196C0319E
:1026C000D10509F0A5CF83ED9AE00E947D2265E057
:1026D00070E080E090E00E94EE2C8091040190E098
:1026E0008050904E880F991F0E947611E0918B05C3
:1026F000F0E0EB52F94F83ED9AE060810E943A22BC
:10270000E0918B05F0E0E952F94F83ED9AE06081AA
:102710000E943A2283ED9AE00E947D2265E070E0FB
:1027200080E090E00E94EE2CDF91CF911F91089500
:1027300080E292E50E94761183ED9AE00E947D226C
:1027400083ED9AE060E570E041E050E00E94EC2209
:1027500083ED9AE00E94CB2180935909803110F0DB
:10276000109259090895CF93DF9380E192E50E947A
:10277000761183ED9AE00E947D2283ED9AE060E578
:1027800070E040E150E00E94EC22CBE5D9E083ED1F
:102790009AE00E94CB218993999389E0CB37D8079F
:1027A000B1F7DF91CF910895CF92DF92EF92FF9230
:1027B0000F931F93CF93DF9380914F0690E006E035
:1027C000880F991F0A95E1F70E94761183ED9AE030
:1027D0000E947D2283ED9AE060E570E040E450E0E5
:1027E0000E94EC22C0E0D0E010918B0583ED9AE0CE
:1027F0000E94CB21082F83ED9AE00E94CB21112368
:1028000019F420E430E002C020E030E0FE01EE0FD9
:10281000FF1FEE0FFF1FE20FF31FE457FA4FF82ED2
:10282000EE24C701800F911D9183808310918B0549
:1028300083ED9AE00E94CB21082F83ED9AE00E945D
:10284000CB21FE01EE0FFF1F3196112319F420E476
:1028500030E002C020E030E0EE0FFF1FE20FF31F78
:10286000E457FA4FD82ECC24C601800F911D9183D6
:1028700080832196C031D10509F0B6CF80914F06F3
:1028800090E08050904E880F991F0E94761183ED42
:102890009AE00E947D2283ED9AE060E570E042E0DC
:1028A00050E00E94EC2210918B0583ED9AE00E948B
:1028B000CB21E0E0F0E0112311F4E1E0F0E0EB5295
:1028C000F94F808310918B0583ED9AE00E94CB2114
:1028D000E0E0F0E0112311F4E1E0F0E0E952F94F1B
:1028E000808380914F068093040180917105882335
:1028F00031F081E08093DC068093050110C00E94D6
:10290000DB0580918B0590E0882309F491E090939A
:102910008B051092DC061092050110925306DF9190
:10292000CF911F910F91FF90EF90DF90CF9008957E
:10293000CF93DF938AEC99E00E94F120EC01809123
:10294000890590918A05C817D90751F00E94E02C9B
:102950006093F4087093F5088093F6089093F70855
:102960000E94E02C2091F4083091F5084091F6087F
:102970005091F708621B730B840B950B6530710542
:102980008105910508F442C08091850590918605E6
:10299000C817D907D9F1D0938605C09385058091D2
:1029A0007D058823A1F420E030E0CE01022E02C094
:1029B000959587950A94E2F780FF03C020934E0611
:1029C00013C02F5F3F4F2031310579F716C020E04B
:1029D00030E0CE01022E02C0959587950A94E2F769
:1029E00080FF06C02093DB0681E08093050105C0CF
:1029F0002F5F3F4F2031310561F78091DB068295D3
:102A0000807F90914E06890F80934F06D0938A0560
:102A1000C09389059091040180914F06981721F089
:102A20000E94D4131092510680917805882309F4EE
:102A30005DC080915106882349F08091050188236B
:102A400029F480916A05882309F450C010926A0520
:102A500010920501ACE0B6E020E030E0E0918B059B
:102A6000F0E054E0EE0FFF1F5A95E1F7E20FF31F7D
:102A7000EE0FFF1FEE0FFF1FE457FA4F8081918189
:102A800011969C938E93E0918B05F0E094E0EE0F0D
:102A9000FF1F9A95E1F7E20FF31FEE0FFF1FEE0FF6
:102AA000FF1FE257FA4F8081918113969C938E937A
:102AB00012972F5F3F4F14962031310579F6E09140
:102AC0008B05F0E0EB52F94F808180934C06E0914A
:102AD0008B05F0E0E952F94F808180934D060E940A
:102AE000441181E08093510610920501DF91CF914E
:102AF000089580915406813041F08091D90681304B
:102B000021F08091DA06813091F48091710588235B
:102B100031F09091680580910101981741F40E946D
:102B2000F912109254061092D9061092DA0690917A
:102B3000040180914F06981711F00E94D413089554
:102B40002F923F924F925F926F927F928F929F92BD
:102B5000AF92BF92CF92DF92EF92FF920F931F93AB
:102B6000DF93CF93CDB7DEB72A970FB6F894DEBFC9
:102B70000FBECDBF80917F05882309F46CC11092F0
:102B80007F05F5E12F2EF1E03F2E1E821D82882465
:102B9000992420E030E43C832B831A8219828981B6
:102BA0009A810E947611C401E5E0880F991FEA9589
:102BB000E1F7880D991D880F991F895E9E4F9A87AE
:102BC0008987F101EE5BFF4FF887EF83F0E18F1605
:102BD00091048CF5E985FA8540805180628073808C
:102BE00020E030E040E050E861E0A62EB12CC12C9E
:102BF000D12CEE24FF24870160E070E0DA01C901E6
:102C000084219521A621B72182179307A407B50730
:102C100021F4EA28FB280C291D295695479537955C
:102C200027956F5F7F4F6032710541F0AA0CBB1C86
:102C3000CC1CDD1CE3CFEE24FF24870183ED9AE05A
:102C40006E2D0E943A2283ED9AE06F2D0E943A2267
:102C500083ED9AE0602F0E943A22212F33274427E8
:102C6000552783ED9AE0622F0E943A2229853A8502
:102C70002C5F3F4F3A8729878F819885281739071E
:102C800009F0A4CF83ED9AE00E947D2265E070E018
:102C900080E090E00E94EE2C8B819C810E94761156
:102CA00090E1891691045CF483ED9AE0F101608172
:102CB0000E943A2283ED9AE0F101618108C083ED20
:102CC0009AE060E10E943A2283ED9AE068E10E9476
:102CD0003A2283ED9AE00E947D2265E070E080E078
:102CE00090E00E94EE2CC401A4E095958795AA95EA
:102CF000E1F721E030E002C0220F331F8A95E2F7AE
:102D0000ED81FE81E22BF32BFE83ED838AEC99E0CB
:102D1000BF010E94A9200894811C911C2B813C8139
:102D20002E5F3F4F3C832B8389819A81805C9F4F2C
:102D30009A83898390E0891691E0990619F0298495
:102D40003A842DCF64E670E080E090E00E94EE2CA3
:102D50008AEC99E060E070E00E94A920AA24BB24DC
:102D6000CC24DD24F0EC6F2EF2E47F2EE1E08E2EF9
:102D7000912C70E4E72E7FEFF72EE60CF71CC701CD
:102D80000E94761110E083ED9AE060E00E943A2202
:102D90001F5F1034C1F783ED9AE00E947D2265E049
:102DA00070E080E090E00E94EE2CE614F70429F039
:102DB000E0E4F0E0EE0EFF1EE2CFC60180509E4A36
:102DC0000E94761183ED9AE064E00E943A2283ED3E
:102DD0009AE00E947D2265E070E080E090E00E9431
:102DE000EE2CC4010C2C02C0880F991F0A94E2F744
:102DF000A82AB92A8AEC99E0B5010E94A920089472
:102E0000C11CD11C612C61E0762E6E0C7F1CF0E1A0
:102E1000CF16D10409F0ADCF64E670E080E090E019
:102E20000E94EE2C8AEC99E060E070E00E94A920FC
:102E30000E94B60081E080937B090E94A811109245
:102E400059090E948F1110924E061092DB061092C3
:102E50004F060E94D41310927F052A960FB6F8945D
:102E6000DEBF0FBECDBFCF91DF911F910F91FF90BD
:102E7000EF90DF90CF90BF90AF909F908F907F901A
:102E80006F905F904F903F902F900895CF92DF9278
:102E9000EF92FF920F931F93CF93DF938091E506FC
:102EA00090E08E5B9F4FD82ECC2400E010E0C8014C
:102EB0008C0D9D1D0E94761183ED9AE00E947D226B
:102EC00083ED9AE060E570E040E450E00E94EC227F
:102ED000C0E0D0E0EE24FF248091E708882319F4B5
:102EE000B1E0EB2EF12C83ED9AE00E94CB21FE01A4
:102EF000E00FF11FEE0FFF1FEE0DFF1DEA51F94F1E
:102F000080832196C034D10529F7003C110519F0C2
:102F1000005C1F4FCCCF8091E50690E080509E4A28
:102F20000E94761183ED9AE00E947D2283ED9AE063
:102F300060E570E041E050E00E94EC22C0E0D0E0AB
:102F40008091E708882311F4C1E0D0E083ED9AE096
:102F50000E94CB21C85FDE4F88838091E506809375
:102F6000060180917105882331F081E08093EA08A1
:102F70008093E8080EC090E08091E708882309F468
:102F800091E09093E7081092EA080E942A010E94BB
:102F9000D413DF91CF911F910F91FF90EF90DF90AD
:102FA000CF900895EF92FF920F931F93CF93DF93EB
:102FB0008091060190E08E5B9F4FF82EEE2400E09A
:102FC00010E0C8018E0D9F1D0E947611C0E0D0E078
:102FD0008091E708FE01E00FF11FEE0FFF1FE80FE1
:102FE000F11DEA51F94F83ED9AE060810E943A2287
:102FF0002196C034D10561F783ED9AE00E947D22CD
:1030000065E070E080E090E00E94EE2C81E000300E
:10301000180719F0005C1F4FD4CF8091060190E093
:1030200080509E4A0E947611E091E708F0E0E85F48
:10303000FE4F8EEB9FE060814AE050E00E94053237
:10304000E091E708F0E0E85FFE4F83ED9AE06081F1
:103050000E943A2283ED9AE00E947D2265E070E0B2
:1030600080E090E00E94EE2CDF91CF911F910F91B4
:10307000FF90EF90089580910601803190F4809147
:10308000E808882321F480918405882351F08091F9
:10309000E908882331F00E94D2171092E8081092B4
:1030A000E908909106018091E506981711F00E94B9
:1030B000461708951F938091680585508230C8F4A3
:1030C00099B1907280910201981799F0992351F06B
:1030D00081E08093720580937305809374058093DB
:1030E000710505C01092710581E08093760590937B
:1030F00002018AEC99E062E00E943B21182F809146
:103100007A05181751F00E94E02C6093F80870932C
:10311000F9088093FA089093FB080E94E02C209114
:10312000F8083091F9084091FA085091FB08621BA9
:10313000730B840B950B653071058105910508F4BF
:1031400054C080917905181709F44FC01093790580
:1031500080916805843011F08730D9F41130C9F4BA
:10316000809177058F5F80937705813049F41093C4
:1031700071051093720510937305109374050FC0B9
:10318000823069F4109271051092770510937605DC
:1031900006C0123021F481E080937D0508C01092B2
:1031A0007D05143021F481E0809380050AC01092DF
:1031B000800510928105183021F481E08093830509
:1031C0000AC01092830510928405103121F481E029
:1031D0008093820508C010928205103221F481E0AC
:1031E00080937E0502C010927E0510937A051F9190
:1031F00008951F938AEC99E062E00E943B21182F0A
:1032000080917A05181751F00E94E02C6093F8081D
:103210007093F9088093FA089093FB080E94E02CC1
:103220002091F8083091F9084091FA085091FB0874
:10323000621B730B840B950B65307105810591053D
:1032400028F180917905181709F11093790511304B
:1032500019F41093780508C010927805123021F403
:1032600081E080937D0508C010927D05133021F424
:1032700081E080937F0508C010927F05103121F412
:1032800081E08093820502C01092820510937A0536
:103290001F910895CF93DF930E94F9188AEC99E06B
:1032A0000E94F120EC018091890590918A05C81750
:1032B000D90751F00E94E02C6093F4087093F50850
:1032C0008093F6089093F7080E94E02C2091F40870
:1032D0003091F5084091F6085091F708621B730B86
:1032E000840B950B653071058105910508F442C08A
:1032F0008091850590918605C817D907D9F1D0939B
:103300008605C093850580917D058823A1F420E082
:1033100030E0CE01022E02C0959587950A94E2F71F
:1033200080FF03C020934E0613C02F5F3F4F203114
:10333000310579F716C020E030E0CE01022E02C040
:10334000959587950A94E2F780FF06C02093DB06E7
:1033500081E08093050105C02F5F3F4F203131058B
:1033600061F78091DB068295807F90914E06890FF0
:1033700080934F06D0938A05C093890590910401EC
:1033800080914F06981721F00E94D4131092500696
:1033900080917805882319F180915006882341F0A7
:1033A00080910501882321F4809169058823B9F073
:1033B00010926905109205010E94CD110E944411DE
:1033C00081E08093500680918B0590E0882309F47A
:1033D00091E090938B050E94D41310920501DF9128
:1033E000CF9108951F93809170058823A9F099B11A
:1033F000907280910201981779F0992331F081E061
:10340000809372058093710505C01092710581E06B
:1034100080937605909302018AEC99E062E00E9425
:103420003B21182F80917A05181751F00E94E02C4B
:103430006093F8087093F9088093FA089093FB085A
:103440000E94E02C2091F8083091F9084091FA0888
:103450005091FB08621B730B840B950B6530710553
:103460008105910508F460C080917905181709F469
:103470005BC010937905183009F1103129F1113032
:1034800041F580917005882321F5809177058F5F44
:1034900080937705813049F410937105109372057C
:1034A000109373051093750514C0823091F4109237
:1034B000710510927705109376050BC081E080931B
:1034C000FE081092FF0805C081E08093FF0810926B
:1034D000FE088091FF08813021F08091FE08813044
:1034E00041F480917D05813021F41092FF08109203
:1034F000FE08123021F481E080937D0508C010920F
:103500007D05103221F481E080937E050BC010927E
:103510007E05103139F48091FF08813019F48093D1
:10352000000902C01092000910937A051F910895B6
:103530001F938AEC99E062E00E943B21182F809152
:103540007A05181751F00E94E02C6093F8087093E8
:10355000F9088093FA089093FB080E94E02C2091D0
:10356000F8083091F9084091FA085091FB08621B65
:10357000730B840B950B653071058105910508F47B
:103580008CC080917905181709F487C010937905CC
:10359000143069F1153020F4113009F063C007C010
:1035A000183009F458C0103109F05CC058C080913F
:1035B0000101882319F0833009F065C080917705F7
:1035C0008F5F80937705813039F480937105809304
:1035D00072058093730557C0823009F054C0109271
:1035E00071051092770581E0809376054CC081E0EB
:1035F0008093DA0680917C058F5F80937C05843010
:1036000011F410927C0580917C05813071F081303D
:1036100028F0823089F08330B1F515C0E0918B0538
:10362000F0E0E952F94F8CE014C0E0918B05F0E036
:10363000E952F94F88E10DC0E0918B05F0E0E952C5
:10364000F94F80E106C0E0918B05F0E0E952F94FB7
:1036500080E2808318C081E080937B0514C01092C3
:103660007B0511C0183149F490E080910301882353
:1036700009F491E09093030106C0123021F481E037
:1036800080937D0508C010927D05103221F481E001
:1036900080937E0502C010927E0510937A051F91DB
:1036A00008958091FF08882309F0A8C090917E05B5
:1036B000913009F09BC08091C809882309F09EC011
:1036C0009093C8098091C0099091C109A091C20945
:1036D000B091C3098093C4099093C509A093C6090A
:1036E000B093C7098091BC099091BD09A091BE0912
:1036F000B091BF098093C0099093C109A093C209FA
:10370000B093C3090E94E02C6093BC097093BD097B
:103710008093BE099093BF094091C0095091C1099F
:10372000641B750BCB01895C90408351954028F058
:1037300060E070E020E030E003C09B0161E070E0F9
:103740008091C4099091C509481B590BCA01895C35
:1037500090408351954020F4240F351F6F5F7F4FB9
:103760006115710509F44AC0C9010E949F3280E6C3
:103770009AEE0E948B3270931401609313016832A9
:10378000710530F488E290E0909314018093130166
:1037900080911301909114018D52914030F08CE290
:1037A00091E09093140180931301209113013091C3
:1037B0001401220F331F220F331F30936D05209306
:1037C0006C0540E050E060EA75E286E290E00E941D
:1037D000D43230936F0520936E0540E050E08DE6C3
:1037E0009CE0BA01A9010E9416260895992331F49C
:1037F0008091C809813011F41092C8090895DF93AF
:10380000CF93CDB7DEB760970FB6F894DEBF0FBE8B
:10381000CDBFDE011196E5E3F5E080E101900D9268
:103820008150E1F790B1929596959695937080911D
:10383000C909880F880F982B9093C9099F70FE01C2
:10384000E90FF11D91818091FE08882381F599236C
:1038500071F1892F992787FD909520916C05309102
:103860006D05281B390B283C310518F428EC30E095
:1038700006C083E0293E380710F028EE33E030938D
:103880006D0520936C0540E050E060EA75E286E249
:1038900090E00E94D43230936F0520936E0540E093
:1038A00050E08DE69CE0BA01A9010E9416266096C0
:1038B0000FB6F894DEBF0FBECDBFCF91DF91089554
:1038C0008CE0ECEBF9E0DF011D928A95E9F71092AC
:1038D000C8090895AF92BF92CF92DF92EF92FF9204
:1038E0000F931F93DF93CF93CDB7DEB760970FB6DB
:1038F000F894DEBF0FBECDBFDE011196E5E3F5E023
:1039000080E101900D928150E1F780B1829586951A
:10391000869583709091C909990F990F892B80938F
:10392000C9098F70FE01E80FF11D9181992309F4F7
:103930004AC08091FE08882309F445C08091120195
:10394000891B11F461E004C0682F8F3108F06EE12B
:103950006093120180916805262F30E040E050E02E
:10396000882339F400D000D083E090E0A0E0B0E0FC
:1039700006C000D000D082E090E0A0E0B0E0EDB75B
:10398000FEB781839283A383B483CA01B90120E087
:1039900030E040E050E0EEE1EE2EF12C012D112D53
:1039A000AA24BB2465010E942332609303090F906F
:1039B0000F900F900F908EEB9FE0609112014AE004
:1039C00050E00E94053260960FB6F894DEBF0FBE3D
:1039D000CDBFCF91DF911F910F91FF90EF90DF90BE
:1039E000CF90BF90AF9008950E94490B90916805C9
:1039F000963009F437C29730A0F4923009F479C0B8
:103A0000933030F4992319F1913009F032C350C04A
:103A1000943009F4E9C180910101953008F00AC29F
:103A2000ABC09B3009F4DAC09C3038F4973009F40D
:103A3000BDC1983009F01DC354C29E3009F472C153
:103A40009F3009F42CC19D3009F013C3E5C080916B
:103A500001018823B9F080917105882399F41092AF
:103A600001010E94B00B80E00E94710B8091FF0861
:103A7000882311F01092FF081092560910925509F0
:103A80000E94601C80910101823029F483E79CE050
:103A90000E945C2C04C0813011F00E94FF1B0E9428
:103AA000F2190E946A1C0E94F2190E94511B8FC0D9
:103AB000809101018130A9F080917105882389F4FA
:103AC000909301010E94B00B81E00E94710B8091E4
:103AD000FF08882311F01092FF08109256091092E7
:103AE0005509809101018823C9F1823009F03FC056
:103AF0003AC080910101823069F18091710588237B
:103B000049F5909301010E94B00B82E00E94710B75
:103B10008091FF08882311F01092FF0883E79CE052
:103B200069EA7CE00E947A2683E79CE068E171E024
:103B30000E94802683E79CE068E171E00E9486266F
:103B400083E79CE061E271E00E948C2610925609A6
:103B50001092550980910101882319F40E94FF1BDE
:103B600006C0813021F083E79CE00E945C2C0E941B
:103B7000F2190E946A1C2BC08330C1F0809171053C
:103B80008823A1F483E0809301010E94B00B80E0C0
:103B90000E94710B8091FF08882311F01092FF089A
:103BA00010925609109255091092FE088091010159
:103BB000882311F0833019F40E94FF1B06C0823065
:103BC00021F483E79CE00E945C2C0E94981A0E94DA
:103BD000B6070E9479150E9449010895809101015C
:103BE0008B3099F0909301010E94B00B82E00E940B
:103BF000710B80917105882341F0109271058CEF53
:103C00000E94E40D5D98109277050E94F9180E94B9
:103C1000E4100E94A0150895809101018D30B1F04B
:103C2000909301010E94B00B82E00E94710B81E031
:103C30008093690580917105882341F01092710588
:103C40008CEF0E94E40D5D98109277050E94F918A0
:103C500080917D05882381F461E070E000904E063C
:103C600002C0660F771F0A94E2F78AEC99E00E947F
:103C7000A92088B183700FC061E070E00090DB067E
:103C800002C0660F771F0A94E2F78AEC99E00E945F
:103C9000A92088B18C6F88B90E944A190895809133
:103CA00001018F30B1F0909301010E94B00B82E0CE
:103CB0000E94710B81E080936A05809171058823D1
:103CC00041F0109271058CEF0E94E40D5D98109206
:103CD00077050E94F91880917D05882381F461E0C1
:103CE00070E000904E0602C0660F771F0A94E2F75C
:103CF0008AEC99E00E94A92088B183700FC061E02E
:103D000070E00090DB0602C0660F771F0A94E2F7AE
:103D10008AEC99E00E94A92088B18C6F88B90E9432
:103D200098140895809101018F30B9F08FE080934D
:103D300001010E94B00B82E00E94710B81E0809330
:103D40006B0580917105882341F0109271058CEF0D
:103D50000E94E40D5D98109277050E94F9188091F9
:103D60007D05882381F461E070E000904E0602C07A
:103D7000660F771F0A94E2F78AEC99E00E94A92067
:103D800088B183700FC061E070E00090DB0602C074
:103D9000660F771F0A94E2F78AEC99E00E94A92047
:103DA00088B18C6F88B90E947012089580910101CA
:103DB000873099F0909301010E94B00B80E00E943F
:103DC000710B80917105882341F0109271058CEF81
:103DD0000E94E40D5D98109277050E94FF1B0E94DF
:103DE0005A180E94B00676C0809101018430A9F073
:103DF000909301010E94B00B80E00E94710B8091B2
:103E00007105882341F0109271058CEF0E94E40D3A
:103E10005D98109277050E94601C0E94FF1B0E9413
:103E20005A180E94511B0E943B180E9479150E944B
:103E30008D0554C0853009F449C085E080930101A7
:103E40000E94B00B81E00E94710B80917105882364
:103E5000E9F1109271058CEF0E94E40D5D981092CB
:103E6000770534C080910101853061F185E0809350
:103E700001010E94B00B82E00E94710B80917105DC
:103E8000882341F0109271058CEF0E94E40D5D983B
:103E90001092770583E79CE069EA7CE00E947A262D
:103EA00083E79CE068E171E00E94802683E79CE064
:103EB00068E171E00E94862683E79CE061E271E0A0
:103EC0000E948C2683E79CE00E945C2C0E945A187A
:103ED0000E948D050E9479150E943B180E94B30331
:103EE000089580910101883009F454C09093010134
:103EF00088B1837088B90E94B00B82E00E94710B78
:103F000083E79CE069ED7BE00E94742683E79CE0F8
:103F100067E171E00E946E26609159096F5F83E747
:103F20009CE00E946B2680917105882341F01092DD
:103F300071058CEF0E94E40D5D98109277050E9448
:103F400098136091590981E090E0062E02C0880F15
:103F5000991F0A94E2F79093FD088093FC086F5F25
:103F600083E79CE00E946B266091FC087091FD083D
:103F70008AEC99E040E050E00E94CB20ECE7F9E0C9
:103F8000119211921192119289E0EC3AF807C1F75F
:103F90000E94B31383E79CE00E945C2CECE7F9E0FD
:103FA00060E020E030E040E050E080819181A2813B
:103FB000B38181309105A105B10579F4022E04C0C9
:103FC000880F991FAA1FBB1F0A94D2F7482B592BA1
:103FD000108211821282138261E02F5F3F4F34966C
:103FE0002031310511F74093570950935809662342
:103FF00089F06091FC087091FD088AEC99E00E94BC
:10400000CB202A9A8AE090E00E94472D2A980E94AD
:10401000BF0A10C088EE93E00E94472D6091FC0813
:104020007091FD088AEC99E040E050E00E94CB20BE
:104030000E943C0B0E94F9180E945C0A80915A0968
:104040008823A9F0609159096F5F83E79CE00E9483
:104050006B266091FC087091FD088AEC99E040E0C5
:1040600050E00E94CB200E948F1110925A090E94AA
:10407000A811089581B1836081B987B18C6F87B928
:10408000569A8EE061E00E94992D81E061E00E94E5
:10409000992D80E061E00E94992D82E061E00E940C
:1040A000992D80EE91E090936D0580936C0588E5E5
:1040B00094E190936F0580936E058DE69CE048E552
:1040C00054E160E070E00E9416268EEB9FE040E035
:1040D00052EC61E070E00E94612F83E79CE060E0B9
:1040E0000E94612C0E94B6008AEC99E00E94A321F4
:1040F00083ED9AE00E94F02280E8ECE8F5E0DF0131
:104100001D928A95E9F780E092E0E6EEF6E0DF01A5
:104110009C011D9221503040E1F70E94D413089574
:1041200027E030E070E0CB01022E02C09595879524
:104130000A94E2F780FF02C02D9A01C02D982F9AB1
:1041400085B115B8215030408FEF2F3F380759F710
:104150000895EF92FF920F931F938C017B01FC0156
:104160006083F18285B115B8C80163810E949020F7
:10417000C801F80162810E949020C8016F2D0E9441
:104180009020C8016E2D0E9490202C9A1F910F91B3
:10419000FF90EF900895DF92EF92FF920F931F939D
:1041A0008C01E62ED72EF42EFC01608342835183CE
:1041B00085B115B8C801652F0E949020C8016F2DE8
:1041C0000E949020C8016D2D0E949020C8016E2D84
:1041D0000E9490202C9A1F910F91FF90EF90DF90FA
:1041E00008950F931F9383E061E00E94FD2D00E08E
:1041F00027E030E083B190E056E0959587955A9599
:10420000E1F781709070022E02C0880F991F0A9406
:10421000E2F7082B2F9A2F98215030408FEF2F3F35
:10422000380741F710E027E030E083B190E046E046
:10423000959587954A95E1F781709070022E02C09E
:10424000880F991F0A94E2F7182B2F9A2F98215064
:1042500030408FEF2F3F380741F783E060E00E9446
:10426000FD2D912F80E0202F30E0282B392BC90124
:104270001F910F9108951F93CF93DF93EC01162F99
:1042800083E061E00E94FD2D40E027E030E083B153
:1042900090E056E0959587955A95E1F7817090707A
:1042A000022E02C0880F991F0A94E2F7482B2F9A1A
:1042B0002F98215030408FEF2F3F380741F7488328
:1042C00040E027E030E083B190E0B6E09595879537
:1042D000BA95E1F781709070022E02C0880F991F85
:1042E0000A94E2F7482B2F9A2F98215030408FEFF5
:1042F0002F3F380741F7498340E027E030E083B1A2
:1043000090E0A6E095958795AA95E1F78170907069
:10431000022E02C0880F991F0A94E2F7482B2F9AA9
:104320002F98215030408FEF2F3F380741F74A83B5
:1043300083E060E00E94FD2DC10FD11D8881DF91D7
:10434000CF911F91089583E061E00E94992D87E04D
:1043500061E00E94992D86E060E00E94992D84E042
:1043600061E00E94992D85E061E00E94992D0895F9
:1043700081E08093D20A60934F0A1092D00A109283
:10438000D10A089520914E0A30E080914D0A281BF1
:104390003109C901089540914D0A80914E0A48178C
:1043A00018F02FEF3FEF0AC0E42FF0E0E353F64F91
:1043B0008081282F30E04F5F40934D0AC901089556
:1043C000E0914D0A80914E0AE81718F0EFEFFFEFE9
:1043D00006C0F0E0E353F64F8081E82FF0E0CF0114
:1043E000089508951092D60A1092D50A88EE93E0A7
:1043F000A0E0B0E08093D70A9093D80AA093D90A9E
:10440000B093DA0A89E495E09093D40A8093D30AB2
:104410000895CF92DF92EF92FF920F931F93CF9365
:10442000DF937C016B018A018091D20A8823A1F07D
:10443000C0E0D0E00DC0D701ED91FC91D601AC0FEA
:10444000BD1F0190F081E02DC7016C910995219667
:10445000C017D10780F304C0CB01642F0E94A123B1
:10446000C801DF91CF911F910F91FF90EF90DF90E6
:10447000CF900895DF93CF930F92CDB7DEB7FC01B5
:1044800069838091D20A8823C9F08091D10A87FF7D
:1044900007C081E090E09383828320E030E015C084
:1044A0008091D00AE82FF0E0E05BF54F998190838E
:1044B0008F5F8093D00A8093D10A05C0CE01019608
:1044C00061E00E94A12321E030E0C9010F90CF916B
:1044D000DF9108950F93062F80914F0A60E57AE0EF
:1044E0004091D10A21E00E9448231092D00A1092F4
:1044F000D10A1092D20A0F91089561E00E946A22B7
:1045000008958F929F92AF92BF92CF92DF92EF92D7
:10451000FF920F931F93CF93DF93EC01F62ED42ECF
:1045200048015901EE2061F181E08093D20A609345
:104530004F0A1092D00A1092D10A1E2D1430D0F0DA
:1045400013E018C01150E881F981212F220F220FAA
:10455000220FD501C40104C0B695A79597958795FC
:104560002A95D2F79C01AD010190F081E02DCE019A
:10457000622F0995112331F7CE0160E00E946A2273
:104580004D2D413808F040E88F2D6DEC79E02C2D51
:104590000E94FB2210924D0A80934E0ADF91CF9128
:1045A0001F910F91FF90EF90DF90CF90BF90AF9051
:1045B0009F908F900895CF92EF920F931F93C22EEA
:1045C00000E010E020E030E0EE240E9481221F9104
:1045D0000F91EF90CF90089521E00E94DB22089583
:1045E00010924D0A10924E0A1092D00A1092D10ADF
:1045F0000E9459250895382F413810F040E046C0F8
:104600008091DF0A8823E1F791E09093DF0A2093FD
:10461000E10A8FEF80936C0C1092670B415040932E
:10462000680B4F5F9093E00A8091E00A330F832B71
:104630008093E00A8091E20A813061F41092E20AEC
:104640008091E00A8093BB008091BC0083FDF8CF8D
:1046500085EC01C085EE8093BC008091DF0A81303B
:10466000E1F38091670B841710F44091670B20E011
:1046700030E00AC0FB01E20FF31FD901A951B54F89
:104680008C9180832F5F3F4F2417A0F3842F0895D0
:104690000F931F93582F122F413810F081E04EC016
:1046A0008091DF0A8823E1F782E08093DF0A00939C
:1046B000E10A8FEF80936C0C1092670B4093680BAC
:1046C000A7EEBAE0FB0102C081918D938E2F861B6D
:1046D0008417D0F31092E00A8091E00A550F852BE1
:1046E0008093E00A8091E20A813061F41092E20A3C
:1046F0008091E00A8093BB008091BC0083FDF8CFDD
:1047000085EC01C085EE8093BC00112321F08091DF
:10471000DF0A8230E1F380916C0C8F3F11F480E06E
:104720000DC080916C0C803211F482E007C0809142
:104730006C0C803311F084E001C083E01F910F9175
:1047400008959C018091EA0B90E0860F911D8138BD
:10475000910514F081E008958091DF0A843011F012
:1047600082E00895D90190E00BC08091EA0BE92F17
:10477000F0E0E759F44FE80FF11D8D9180839F5FC2
:10478000961798F38091EA0B860F8093EA0B80E0EE
:1047900008951F920F920FB60F920BB60F9211242D
:1047A0002F933F934F935F936F937F938F939F9339
:1047B000AF93BF93EF93FF938091B90090E0887F10
:1047C00090708036910509F4F2C081369105CCF5E0
:1047D0008832910509F47BC089329105B4F48031A7
:1047E000910509F46FC0813191053CF4009709F4FB
:1047F00042C1089709F04AC165C08831910509F4A2
:1048000066C0809709F042C182C08034910509F4E6
:10481000A4C08134910544F48033910509F482C029
:10482000C89709F033C189C08035910509F489C062
:104830008835910509F496C08834910509F026C1A0
:10484000AEC08839910509F40EC189399105ECF49F
:104850008837910509F4ABC0893791054CF4883647
:10486000910509F4A4C08037910509F00FC19FC0DC
:104870008838910509F4F7C08039910509F49DC085
:104880008038910509F002C198C0803B910509F478
:10489000C1C0813B91054CF4803A910509F49EC05A
:1048A000883A910509F0F2C0B5C0803C910509F441
:1048B000DEC0883C910509F4DAC0883B910509F017
:1048C000E5C0BDC08091E00A8093BB00CAC0909152
:1048D000670B8091680B981768F49091670BE92F2C
:1048E000F0E0E951F54F80818093BB009F5F90938A
:1048F000670BB7C08091E10A882309F44BC085EDAE
:104900008093BC008091BC0084FDFCCFBDC080E2E0
:1049100080936C0C85ED8093BC008091BC0084FD7D
:10492000FCCFB2C080E380936C0C85ED8093BC001B
:104930008091BC0084FDFCCFA7C088E380936C0C01
:1049400096C08091670B9091BB00E82FF0E0E95191
:10495000F54F90838F5F8093670B9091670B8091E9
:10496000680B7DC08091670B9091BB00E82FF0E051
:10497000E951F54F90838F5F8093670B8091E10A37
:10498000882341F085ED8093BC008091BC0084FDBC
:10499000FCCF7AC081E08093E20A84EA69C085EDA9
:1049A0008093BC008091BC0084FDFCCF6DC083E08F
:1049B0008093DF0A10926B0C54C080916B0C87FDC2
:1049C00052C080916B0C9091BB00E82FF0E0E55154
:1049D000F44F90838F5F80936B0C43C085EC809382
:1049E000BC001092DF0A80916B0C87FD06C0E0913D
:1049F0006B0CF0E0E551F44F108260916B0CE0918C
:104A0000E50AF091E60A8BEE9BE070E009951092C2
:104A10006B0C3CC084E08093DF0A1092E90B10928B
:104A2000EA0BE091E30AF091E40A09958091EA0B20
:104A3000882329F481E08093EA0B1092690B90910E
:104A4000E90BE92FF0E0E759F44F80818093BB0038
:104A50009F5F9093E90B9091E90B8091EA0B981777
:104A600010F485EC01C085E88093BC000FC085EC94
:104A70008093BC0009C010926C0C85ED8093BC0043
:104A80008091BC0084FDFCCF1092DF0AFF91EF9172
:104A9000BF91AF919F918F917F916F915F914F9156
:104AA0003F912F910F900BBE0F900FBE0F901F9054
:104AB00018951092DF0A81E08093E10A1092E20AD1
:104AC00081E161E00E94FD2D80E161E00E94FD2D09
:104AD000E9EBF0E080818E7F808380818D7F808311
:104AE00088E48093B80085E48093BC0008951F9209
:104AF0000F920FB60F920BB60F9211242F933F9384
:104B00004F935F936F937F938F939F93AF93BF93D5
:104B1000EF93FF93E091710CF091720C0995FF9166
:104B2000EF91BF91AF919F918F917F916F915F9125
:104B30004F913F912F910F900BBE0F900FBE0F9092
:104B40001F901895FC01A3E0440F551F661F771FA7
:104B5000AA95D1F7403080E0580781E0680780E0EF
:104B6000780714F481E010C033E075956795579588
:104B700047953A95D1F7403080E0580781E06807C3
:104B800080E078071CF482E0828339C023E07595C9
:104B90006795579547952A95D1F7403080E058079B
:104BA00081E0680780E0780714F483E0EDCF92E0BD
:104BB00075956795579547959A95D1F7403080E060
:104BC000580781E0680780E0780714F484E0DCCFC0
:104BD00082E075956795579547958A95D1F740304E
:104BE00080E0580781E0680780E0780714F485E0EA
:104BF000CBCF85E082834FEF5FEF60E070E08FB74F
:104C00008383F894518340835093870040938600B8
:104C100083818FBF80918100887F80938100809104
:104C200081009281892B80938100089510928000E9
:104C300020E1209381000E94A22508950F931F93E5
:104C4000CF93DF93EC018B011216130614061506A1
:104C500024F4BA01A9010E94A2251D830C8381E0DE
:104C600080936F00809181009A81892B80938100CD
:104C7000DF91CF911F910F910895EFE6F0E08081D1
:104C80008E7F80830895FC01E55FFD4F11921192A4
:104C900011921192119211921192119211921192FC
:104CA00011921192119211921192119211921192EC
:104CB00011921192119211921192119211921192DC
:104CC00011921192119211921192119211921192CC
:104CD000118210820895FC0162830895FC01E55F52
:104CE000FD4F718360830895FC01E35FFD4F718385
:104CF00060830895FC01ED5DFD4F7183608308952D
:104D0000FC01EB5DFD4F718360830895FC01E95D5B
:104D1000FD4F718360830895FC01E75DFD4F718352
:104D200060830895FC01613F710509F465C0623F2D
:104D3000710544F5603B710509F44FC0613B710595
:104D40006CF46039710509F442C0603A710509F4E8
:104D500041C06038710509F070C036C0603D710512
:104D600009F441C0613D71052CF4603C710509F006
:104D700064C036C0603E7105C9F1603F710509F03D
:104D80005CC037C06A3F710509F445C06B3F7105CF
:104D900074F4633F7105B1F1633F710584F1663FBF
:104DA000710599F1683F710509F047C031C06C3F4A
:104DB0007105B9F16C3F71058CF16E3F7105A1F180
:104DC0006F3F7105D1F535C0E55FFD4F2FC0E35F43
:104DD000FD4F2CC0E15FFD4F29C0EF5EFD4F26C0A7
:104DE000ED5EFD4F23C0EB5EFD4F20C0E95EFD4F41
:104DF0001DC0E75EFD4F1AC0E55EFD4F17C0E35EC4
:104E0000FD4F14C0E15EFD4F11C0EF5DFD4F0EC0C0
:104E1000ED5DFD4F0BC0EB5DFD4F08C0E95DFD4F43
:104E200005C0E75DFD4F02C0E55DFD4F11821082B8
:104E30000895E35DFD4F118210820895CF93DF93B3
:104E4000EC01C95FDE4F88819981C750D140813F15
:104E5000910509F4D9C0823F91054CF5803B91053D
:104E600009F467C0813B91056CF48039910509F420
:104E70004AC0803A910509F483C08038910509F051
:104E8000FFC03AC0803D910509F492C0813D910573
:104E90002CF4803C910509F0F3C091C0803E91054F
:104EA00009F44EC0803F910509F0EAC09CC08A3FDA
:104EB000910599F18B3F91058CF4833F910509F49D
:104EC000C8C0833F91050CF4A6C0863F910509F444
:104ED000CDC0883F910509F0D3C01CC08C3F91051F
:104EE00011F18C3F9105E4F08E3F9105F9F08F3F71
:104EF000910509F0C5C0BDC0C55FDD4F288139816E
:104F0000CB50D24043C0C35FDD4F28813981CD50A3
:104F1000D2403CC0CD5DDD4FAEC0CB5DDD4FABC000
:104F2000C95DDD4FA8C0C75DDD4FA5C0C55DDD4FC4
:104F3000A2C0CF5EDD4F28813981C151D24026C049
:104F4000C95EDD4FE881F981C751D240309709F43D
:104F500097C0C65FDE4F688170E06F77707076959E
:104F6000762F6627779567958A9190E08F77907076
:104F7000682B792B6050704223978881099580C0F7
:104F8000C15FDD4F28813981CF50D24021153105D5
:104F900009F476C0FE01E75FFE4FDE01A65FBE4F5B
:104FA000CA5FDE4F888160814C91F901099568C024
:104FB000CB5EDD4F28813981C551D24006C0CD5E20
:104FC000DD4F28813981C351D2402115310509F4C3
:104FD00057C0FE01E75FFE4FCA5FDE4F88816081E8
:104FE000F90109954DC0C75EDD4FE881F981C951CE
:104FF000D240309709F444C0CE01855F9E4FC75F11
:10500000DE4F688109953CC0C55EDD4FE881F981BE
:10501000CB51D24024C0C35EDD4F48815981CD5170
:10502000D2404115510561F1C65FDE4F888190E0A5
:105030008F7790709695982F882797958795FE0182
:10504000229130E02F773070822B932BFA01099553
:1050500017C0C15EDD4FE881F981CF51D240309752
:1050600079F0C75FDE4F888109950AC0CF5DDD4FBB
:1050700002C0C35DDD4FE881F981309709F00995E1
:10508000DF91CF91089583E79CE00E944326089525
:1050900008956F927F928F929F92AF92BF92CF921C
:1050A000DF92EF92FF920F931F93CF93DF93EC0168
:1050B0008C010C5F1E4FE2E0EE2EE1E0FE2EE80ECA
:1050C000F91E72E0672E712C63E0862E912C5FEF43
:1050D000A52EB12C41E0C42ED12C8DED9FE00E9475
:1050E000E72F181619060CF0E3C18038910529F452
:1050F0008DED9FE00E944130DBC18DED9FE00E946D
:105100001830D801ED91FC91309709F0DAC08B830B
:10511000998197FF0FC0943F69F0953F59F0993FEF
:1051200049F09D3F39F0292F30E0903F28F4207F4F
:10513000307002C020E030E0203B3105B1F0213B6F
:10514000310554F42039310581F0203A310569F0F8
:105150002038310589F409C0203D310531F0203E69
:10516000310519F0203C310539F487FD05C09B83DA
:105170008C83F801D182C0822B8127FF0FC0243F8E
:1051800069F0253F59F0293F49F02D3F39F0822F32
:1051900090E0203F28F4807F907002C080E090E093
:1051A000813F910509F46EC0823F91054CF5803B2B
:1051B000910509F46BC0813B91056CF48039910530
:1051C00009F464C0803A910509F460C08038910503
:1051D00009F065C05BC0803D910509F453C0813D75
:1051E00091052CF4803C910509F059C04BC0803EDC
:1051F000910509F44BC0803F910509F050C04AC0A9
:10520000883F9105C1F0893F91055CF4833F91058A
:10521000C9F1833F9105D4F1863F910509F03FC064
:105220000AC08A3F9105DCF18D3F910524F08E5F25
:1052300090400297A0F527FF0FC0243F69F0253F5B
:1052400059F0293F49F02D3F39F0822F90E0203F5F
:1052500028F4807F907002C080E090E0C95FDE4F4C
:10526000998388831A92239619921882C050DF4F2F
:1052700081E08883C650D14019821882FE011292C3
:10528000129217C1D7016D927C9213C0F7019182DF
:1052900080820FC0D701AD92BC9219820AC0CC5F48
:1052A000DE4F19821882C450D140F701118210825A
:1052B0009DC0D8018D919C91119701968D939C93DF
:1052C0000CCF87FF69C08D3F40F48A3F48F4873F89
:1052D000B9F0883F09F060C003C08E3F08F45CC09D
:1052E000FE01E95FFE4F80831182C75FDE4F199296
:1052F000188224971882CC5FDE4F81E08883D9C062
:105300008B8187FF6BC0843F09F468C0853F09F437
:1053100065C0893F09F462C08D3F09F45FC0282F42
:1053200030E0803F20F4C901807F907001C0C90146
:10533000803F910509F052C0FE0190E08381E55F56
:10534000FE4F80839F5FEA50F1409F3FB9F7C95FEE
:10535000DE4F80EF90E099838883C750D140FE01F3
:10536000EC5FFE4F80818F5FC75FDE4F88832196A1
:10537000808191810196988324971882CC5FDE4FBB
:1053800081E0888311821082C850D140198218822E
:10539000C250D14019828DC0EC0FFD1F8383F801EC
:1053A00020813181D7018D919C9101972817390770
:1053B00008F478C02B8127FF24C0243F11F1253F3A
:1053C00001F1293FF1F02D3F99F0822F90E0203F2D
:1053D00010F4807F9070803F910551F4CC5FDE4FD8
:1053E000198218821A921A92C250D140198260C052
:1053F0002D3F39F0822F90E0203F28F4807F90707D
:1054000002C080E090E0C95FDE4F99838883C75077
:10541000D1408B818F708F5FCA5FDE4F8883C6500B
:10542000D1408C81C75FDE4F88832797888199811F
:10543000C250D140FE01E65FFE4F039719F48D8103
:10544000808301C01082CC5FDE4F198218821A92CD
:105450001A92C85FDE4F81E08883C350D1408881B3
:105460009981C750D140803B9105B1F0813B9105B6
:1054700054F48039910581F0803A910569F08038C3
:10548000910569F409C0803D910531F0803E910598
:1054900019F0803C910519F48B81898301C0198230
:1054A00081E007C02F5F3F4FF8013183208315CE85
:1054B00080E0DF91CF911F910F91FF90EF90DF90EF
:1054C000CF90BF90AF909F908F907F906F900895F6
:1054D0000F931F93CF93DF938C01EB016D3F710509
:1054E00054F46A3F710564F4663F710549F0683F02
:1054F000710559F405C0CB018E5F9040029728F4E6
:105500008DED9FE06C2F0E945330C63FD10511F402
:10551000F8011082DF91CF911F910F910895CF92E2
:10552000DF92FF920F931F936C01F62E0DED1FE09B
:10553000C80163EF0E9453308FE7F822C8016F2D36
:105540000E945330F60110821F910F91FF90DF905F
:10555000CF900895CF92DF92EF92FF920F931F9317
:105560006C018B01ADEDEA2EAFE0FA2EC70162EFC0
:105570000E945330602F6F77C7010E945330000F95
:10558000012F001F110B11950F77C701602F0E948B
:105590005330F60110821F910F91FF90EF90DF9032
:1055A000CF900895DF92EF92FF920F931F938C019B
:1055B000D62EBDEDEB2EBFE0FB2EC70161EF0E94A2
:1055C0005330C7016D2D0E945330F80110821F9196
:1055D0000F91FF90EF90DF90089570E0677070700A
:1055E00024E0660F771F2A95E1F74F70462B642F52
:1055F0000E94D22A0895CF92DF92EF92FF920F93EA
:105600001F93CF93DF936C017B018A01222319F052
:10561000C0E0D0E023C08DED9FE060EF0E945330EA
:10562000C0E0D0E009C0F801EC0FFD1F8DED9FE058
:1056300060810E9453302196CE15DF05A4F38DEDD5
:105640009FE067EF0E9453300CC0F801EC0FFD1F84
:105650008DED9FE060810E9453302196CE15DF05CD
:10566000A4F3F6011082DF91CF911F910F91FF906B
:10567000EF90DF90CF900895FF920F931F93CF93F9
:10568000DF93FC01EB01142FF22E0150003118F4CE
:105690006038710514F410822BC0613E7105FCF472
:1056A000602F6F706C2B8081861729F060838DEDE1
:1056B0009FE00E9453301F778DED9FE0612F0E9485
:1056C0005330C03CD105A1F0C03DD10589F08FE732
:1056D000F8228DED9FE06F2D0E94533009C0663F88
:1056E000710534F06F3F710509F014F40E94682AC7
:1056F000DF91CF911F910F91FF9008950F93DC01DF
:10570000A15DBD4F8C91AF52B240882309F4A2C075
:10571000A05DBD4F2D913C911197A053B240211532
:10572000310509F497C0A95FBE4F6D917C91119727
:10573000A750B140CB01805890408136910558F573
:10574000AA5FBE4F0C91A650B14012969C91129741
:10575000091719F080E0992309F481E0223031051E
:1057600041F02330310549F02130310509F072C094
:1057700007C0882309F46EC003C0882309F06AC0FB
:10578000FD01E65FFE4FCD01A75FBE4F4C9120812A
:105790000E943C2B5FC0663F710531F1673F710588
:1057A000A4F4613F710509F44BC0623F71052CF40C
:1057B000603F710509F04EC01BC0623F710569F181
:1057C000633F710509F046C021C06D3F71053CF48F
:1057D0006A3F71054CF4683F7105E1F505C0CB01E6
:1057E0008E5F90400297B0F5CD010E94682A32C0CA
:1057F000A75FBE4F6C91A950B140CD0170E0A55F8D
:10580000BE4FAD0121E00E94FB2A24C0CD01A75F5D
:10581000BE4F6C910E948F2A1DC0A65FBE4F6C9137
:1058200070E07695762F6627779567958E91A950CB
:10583000B14090E0682B792BCD010E94AA2A0AC0C2
:10584000FD01E65FFE4FCD01A75FBE4F6C91408129
:105850000E94ED2A0F9108951F93CF93DF93EC01DF
:10586000162F6131F8F40E9449288823D9F0CE011F
:10587000612F0E947E2BC95FDE4F88819981C750BE
:10588000D140009779F0805890408136910578F4A6
:105890009A81CA5FDE4F8881C650D140891739F09E
:1058A000992329F080E0DF91CF911F910895CE01D7
:1058B0000E941E2781E0F7CFFC0162810E942C2C00
:1058C0000895FF920F931F938C01F62E8DED9FE0AC
:1058D00042E15AE760E070E00E94612FF801108217
:1058E000F28211820C5F1E4FF80111821082129217
:1058F00012928F01085F1E4FF80110820350114071
:10590000F8011182108212928F010D5F1F4FF80172
:1059100011928F0110820A5D1E4F81E090E0F80124
:105920009183808381E082931F910F91FF9008956E
:105930001F920F920FB60F9211242F933F938F93C4
:105940009F93AF93BF938091A90E9091AA0EA091BF
:10595000AB0EB091AC0E3091AD0E0196A11DB11DF4
:10596000232F2D5F2D3720F02D570196A11DB11D3E
:105970002093AD0E8093A90E9093AA0EA093AB0E28
:10598000B093AC0E8091A50E9091A60EA091A70E9B
:10599000B091A80E0196A11DB11D8093A50E909304
:1059A000A60EA093A70EB093A80EBF91AF919F91A2
:1059B0008F913F912F910F900FBE0F901F901895D0
:1059C0008FB7F8942091A90E3091AA0E4091AB0E9A
:1059D0005091AC0E8FBFB901CA0108959B01AC0173
:1059E0007FB7F8948091A50E9091A60EA091A70E76
:1059F000B091A80E66B5A89B05C06F3F19F001963F
:105A0000A11DB11D7FBFBA2FA92F982F8827860F00
:105A1000911DA11DB11D62E0880F991FAA1FBB1F18
:105A20006A95D1F7BC012DC0FFB7F8948091A50EFF
:105A30009091A60EA091A70EB091A80EE6B5A89BD6
:105A400005C0EF3F19F00196A11DB11DFFBFBA2F90
:105A5000A92F982F88278E0F911DA11DB11DE2E05F
:105A6000880F991FAA1FBB1FEA95D1F7861B970BBA
:105A7000885E9340C8F22150304040405040685109
:105A80007C4F211531054105510571F608950197A7
:105A900039F0880F991F880F991F02970197F1F726
:105AA0000895789484B5826084BD84B5816084BD96
:105AB00085B5826085BD85B5816085BDEEE6F0E087
:105AC000808181608083E1E8F0E0108280818260E3
:105AD0008083808181608083E0E8F0E08081816064
