:100000000C949C000C94C6000C94C6000C94C60082
:100010000C94C6000C94C6000C94C6000C944A1BA9
:100020000C94C6000C94C6000C94C6000C94C60038
:100030000C94C6000C94C6000C94C6000C94C82AFC
:100040000C94C6000C94C6000C94D91F0C94C600E6
:100050000C9400230C9480230C94C6000C94C600CE
:100060000C94C6000C94C6000C94692C0C94C60029
:100070000C9438230C94CB230C94C6000C94C6002B
:100080000C94C6000C94C6000C94C600D51C051D2B
:10009000341D6E1D9B1EC21EDB1E7C1E191FD81F29
:1000A000D81F9B1DD81FB91D3B1EFA1DE020E32061
:1000B000D620DA20FA20E720EB20F120F5200000FE
:1000C0000001020008090000000004030706000008
:1000D000000000000000000000000000000001021D
:1000E0000408102040800102040810204080010212
:1000F0000408102040800102040810204080020201
:1001000002020202020204040404040404040303BD
:1001100003030303030301010101010101010000C5
:100120002200250028002B000000210024002700C9
:100130002A009D24E0252E2811241FBECFEFD0E4F5
:10014000DEBFCDBF15E0A0E0B1E0ECE8FCE500E0EB
:100150000BBF02C007900D92A636B107D9F72FE06A
:10016000A6E6B5E001C01D92AD3FB207E1F710E091
:10017000CCE9D0E004C02197FE010E94212EC939AC
:10018000D107C9F70E9418220C94992D0C940000F5
:100190005D9A81E08093C209109245068093C1095F
:1001A00008955D981092C2091092440685B1887F27
:1001B00085B90895442309F42BC18091B605909127
:1001C000B705892B09F4479A8AE090E09093B70528
:1001D0008093B6058091B60970E0882361F0E091C4
:1001E000CC09F0E0EE0FFF1FE754FA4F71836083F4
:1001F00081E08093B8058091B9059091BA056817A0
:10020000790749F48091DB059091DC05816090933A
:10021000DC058093DB058091BB059091BC056817D8
:10022000790749F48091DB059091DC058260909319
:10023000DC058093DB058091BD059091BE056817B4
:10024000790749F48091DB059091DC0584609093F7
:10025000DC058093DB058091BF059091C005681790
:10026000790749F48091DB059091DC0588609093D3
:10027000DC058093DB058091C1059091C20568176C
:10028000790749F48091DB059091DC0580619093BA
:10029000DC058093DB058091C3059091C405681748
:1002A000790749F48091DB059091DC058062909399
:1002B000DC058093DB058091C5059091C605681724
:1002C000790749F48091DB059091DC058064909377
:1002D000DC058093DB058091C7059091C805681700
:1002E000790749F48091DB059091DC058068909353
:1002F000DC058093DB058091C9059091CA056817DC
:10030000790749F48091DB059091DC059160909329
:10031000DC058093DB058091CB059091CC056817B7
:10032000790749F48091DB059091DC059260909308
:10033000DC058093DB058091CD059091CE05681793
:10034000790749F48091DB059091DC0594609093E6
:10035000DC058093DB058091CF059091D00568176F
:10036000790749F48091DB059091DC0598609093C2
:10037000DC058093DB058091D1059091D20568174B
:10038000790749F48091DB059091DC0590619093A9
:10039000DC058093DB058091D3059091D405681727
:1003A000790749F48091DB059091DC059062909388
:1003B000DC058093DB058091D5059091D605681703
:1003C000790749F48091DB059091DC059064909366
:1003D000DC058093DB058091D7059091D8056817DF
:1003E000790749F48091DB059091DC059068909342
:1003F000DC058093DB058091DB059091DC0500979F
:1004000039F0443628F081609093DC058093DB0559
:10041000089581E08093C309F89489E69EE00E94E4
:10042000622B8AB18F7C8AB9E8E6F0E0808188602F
:100430008083E3E7F0E0808180638083789408958F
:10044000E9EBF5E08BE390E09183808384E290E038
:100450009383828386E290E09583848389E290E0AF
:10046000978386838BE290E0918780878FE290E08C
:100470009387828785E290E09587848787E290E082
:100480009787868788E390E0918B808B81E390E06B
:10049000938B828B8EE290E0958B848B8AE290E046
:1004A000978B868B8CE390E0918F808F8EE390E02A
:1004B000938F828F80E490E0958F848F81E490E029
:1004C000978F868F0895EF92FF920F931F93CF938C
:1004D000DF93C0E0D0E000E010E0EE24E394F12CE4
:1004E000C7010C2E02C0880F991F0A94E2F7082B4F
:1004F000192BB80186E69EE00E94362A6EE170E074
:1005000080E090E00E9454202196C031D10541F74F
:1005100060E070E086E69EE0DF91CF911F910F9141
:10052000FF90EF900C94362ACF93DF93CDB7DEB7D0
:1005300060970FB6F894DEBF0FBECDBF80E1E5E354
:10054000F5E0DE01119601900D928A95E1F7809118
:100550006605982F990F990F9093660580B1829543
:10056000869586958370892B809366058F70E1E070
:10057000F0E0EC0FFD1FE80FF11D808160960FB6D3
:10058000F894DEBF0FBECDBFDF91CF9108950E94DA
:1005900094029091350691112CC0882351F120913D
:1005A000C6093091C709281B310987FD3395283CBE
:1005B000310538F0293E83E0380728F028EE33E093
:1005C00002C028EC30E03093C7092093C60940E010
:1005D00050E060EA75E286E290E00E94022EBA01E5
:1005E000A9015093C5094093C40989E69EE00C9483
:1005F0005B2B0895AF92BF92CF92DF92EF92FF9262
:100600000F931F930E949402882309F444C0909191
:100610003506992309F43FC060912205681B21F03B
:100620006F3118F06EE101C061E060932205209106
:10063000CB0970E080E090E0211105C01F921F926D
:100640001F9223E004C01F921F921F9222E02F935B
:10065000A12CB12C65011EE1E12EF12C00E010E08F
:1006600020E030E0A9010E942522609330060F901F
:100670000F900F900F904AE050E06091220586EFB6
:1006800099E01F910F91FF90EF90DF90CF90BF9076
:10069000AF900C9401221F910F91FF90EF90DF908B
:1006A000CF90BF90AF9008958CE0E8E6F5E0DF01D1
:1006B0001D928A95E9F71092670508958091340696
:1006C0008111A6C08091B509813009F099C090913F
:1006D000670591119DC08093670580916C0590918D
:1006E0006D05A0916E05B0916F0580937005909394
:1006F0007105A0937205B093730580916805909180
:100700006905A0916A05B0916B0580936C05909383
:100710006D05A0936E05B0936F050E942320609332
:1007200068057093690580936A0590936B05209125
:100730006C0530916D05621B730BCB01895C9109CF
:100740008331954020F4CB0161E070E004C080E08B
:1007500090E060E070E04091700550917105241BBD
:10076000350BA901495C51094331554020F4820FF2
:10077000931F6F5F7F4F6115710509F449C00E9497
:10078000CC2D80E69AEE0E94B82D6832710528F0D3
:10079000709321056093200506C088E290E0909355
:1007A00021058093200580912005909121058D32AF
:1007B000914030F08CE291E09093210580932005E8
:1007C0002091200530912105220F331F220F331F66
:1007D0003093C7092093C60940E050E060EA75E213
:1007E00086E290E00E94022E3093C5092093C4094E
:1007F000BA01A9016627772789E69EE00C945B2B56
:10080000811106C080916705813011F4109267054F
:1008100008950F931F93CF9362E086E69EE00E94B7
:100820008D2AC82F8091B909C81751F00E94232042
:10083000609338067093390680933A0690933B068E
:100840000E942320009138061091390620913A0623
:1008500030913B06DC01CB01801B910BA20BB30B4B
:100860000597A105B10508F487C08091BA09C8179A
:1008700009F482C0C093BA09C43069F118F4C130D8
:1008800051F060C0C83009F459C0C03109F05AC0F5
:100890001092B80967C080913305882319F083301E
:1008A00009F060C08091BC098F5F8093BC098130E2
:1008B00039F48093C2098093C1098093C00952C062
:1008C000823009F04FC01092C2091092BC0981E039
:1008D0008093BD0947C081E0809359088091B70992
:1008E0008F5F843019F08093B70902C01092B70966
:1008F0008091B709813099F058F08230B9F0833097
:1009000089F5E091A809F0E0E55AF74F80E214C0BC
:10091000E091A809F0E0E55AF74F8CE00DC0E091B6
:10092000A809F0E0E55AF74F88E106C0E091A80970
:10093000F0E0E55AF74F80E1808314C081E08093B6
:10094000B80910C0C83141F481E09091310591118E
:1009500080E08093310506C0C23021F481E08093AD
:10096000B60908C01092B609C03221F481E0809324
:10097000B50902C01092B509C093B909CF911F9172
:100980000F9108950F931F93CF938091C3098823EC
:10099000A9F089B1807290913205891779F0882386
:1009A00031F091E09093C1099093C20905C0109273
:1009B000C20991E09093BD098093320562E086E61A
:1009C0009EE00E948D2AC82F8091B909C81751F066
:1009D0000E942320609338067093390680933A066C
:1009E00090933B060E94232000913806109139060F
:1009F00020913A0630913B06DC01CB01801B910B24
:100A0000A20BB30B0597A105B10508F460C0809156
:100A1000BA09C81709F45BC0C093BA09C83009F114
:100A2000C03129F1C13041F58091C309811124C041
:100A30008091BC098F5F8093BC09813049F4C093D9
:100A4000C209C093C109C093C009C093BE0914C0B4
:100A5000823091F41092C2091092BC09C093BD0972
:100A60000BC081E0809335061092340605C081E00A
:100A7000809334061092350680913406813021F03F
:100A800080913506813041F48091B609813021F49E
:100A90001092340610923506C23021F481E0809322
:100AA000B60908C01092B609C03221F481E08093E3
:100AB000B5090BC01092B509C03139F480913406E4
:100AC000813019F48093330602C010923306C0932C
:100AD000B909CF911F910F9108950F931F93CF9351
:100AE00062E086E69EE00E948D2AC82F8091B909B7
:100AF000C81751F00E94232060933806709339067E
:100B000080933A0690933B060E942320009138067A
:100B10001091390620913A0630913B06DC01CB0159
:100B2000801B910BA20BB30B0597A105B10528F112
:100B30008091BA09C81709F1C093BA09C13019F4F4
:100B4000C093BB0908C01092BB09C23021F481E0F8
:100B50008093B60908C01092B609C33021F481E031
:100B60008093B40908C01092B409C03121F481E027
:100B70008093B10902C01092B109C093B909CF9115
:100B80001F910F9108950F931F93CF938091CB09DD
:100B900085508230C8F489B18072909132058917EE
:100BA00099F0882351F091E09093C1099093C00986
:100BB0009093BF099093C20905C01092C20991E0B9
:100BC0009093BD098093320562E086E69EE00E9424
:100BD0008D2AC82F8091B909C81751F00E9423208F
:100BE000609338067093390680933A0690933B06DB
:100BF0000E942320009138061091390620913A0670
:100C000030913B06DC01CB01801B910BA20BB30B97
:100C10000597A105B10508F456C08091BA09C81717
:100C200009F451C0C093BA098091CB09843011F006
:100C30008730D9F4C130C9F48091BC098F5F8093AB
:100C4000BC09813049F4C093C209C093C109C09363
:100C5000C009C093BF090FC0823069F41092C20965
:100C60001092BC09C093BD0906C0C23021F481E0D6
:100C70008093B60908C01092B609C43021F481E00F
:100C80008093B30904C01092B3091092B209809105
:100C9000BA09883021F491E09093B0090AC010920B
:100CA000B0091092AF09803121F481E08093B1093D
:100CB00008C01092B109803221F481E08093B50917
:100CC00002C01092B509C093B909CF911F910F913D
:100CD000089560E088E10E941C2161E089E10E94A2
:100CE0001C2180B1869586958F7080934E088093E5
:100CF000CC0990912D05981729F091E090934B061F
:100D000080932D0561E088E10E941C2160E089E16B
:100D10000E941C2180B1869586958F708093CB09A7
:100D20000895CF938091B109811104C01092B10947
:100D3000CF910895C0E080913405C81730F5479AE7
:100D40002A9A609136067091370642E050E086E6B6
:100D50009EE00E94602A68EC70E080E090E00E94D3
:100D6000542047982A98609136067091370640E0E3
:100D700050E086E69EE00E94602A64E670E080E033
:100D800090E00E945420CF5FD6CFC0E08091CD0983
:100D9000C81760F6469A2A9A60913606709137060F
:100DA00040E850E086E69EE00E94602A68EC70E031
:100DB00080E090E00E94542046982A986091360680
:100DC0007091370640E050E086E69EE00E94602A7F
:100DD00064E670E080E090E00E945420CF5FD6CFC0
:100DE0000F931F93CF93DF9386E69EE00E94AD2A78
:100DF000EC018091A9099091AA09C817D90751F06F
:100E00000E94232060933C0670933D0680933E062B
:100E100090933F060E94232000913C0610913D06CE
:100E200020913E0630913F06DC01CB01801B910BE7
:100E3000A20BB30B0597A105B10580F18091AD0917
:100E40009091AE09C817D90749F1D093AE09C09364
:100E5000AD098091B609811121C020E030E0CE01BA
:100E6000022E02C0959587950A94E2F780FF11C083
:100E70002093DA0581E08093D90581E090E002C0FB
:100E8000880F991F2A95E2F79093370680933606CC
:100E900005C02F5F3F4F2031310509F7D093AA09D4
:100EA000C093A909DF91CF911F910F91089588B147
:100EB000837088B960E070E086E69EE00E94362A82
:100EC00060E970E087E39CE00E94952668EF70E09F
:100ED00087E39CE00E9495266AEF70E087E39CE040
:100EE0000E9495266CEF70E087E39CE00C949526B9
:100EF00010924D0610924F0820914D0680914C069D
:100F000090E0820F911D820F911DFC01E25BF94F71
:100F100080818093E40891E0980F90933005982F9A
:100F200092959F70909358088F708093E50808956C
:100F3000813099F018F0823091F008951092C30931
:100F4000F894109273002FEF3FEFA90166EF79E15B
:100F500089E69EE00E94712B0BC00C9409028093DD
:100F6000C309F8941092730089E69EE00E94622BF8
:100F70008AB180638AB97894089561E08EE00E9416
:100F80001C2161E081E00E941C2161E080E00C9462
:100F90001C218091A8092091DD053091DE05209566
:100FA0003095222730714091440690E0840F911DC6
:100FB000840F911D880F991FFC01E15AF74F808122
:100FC000918128233923232B21F060E08EE00E94B9
:100FD0001C218091A8092091DD053091DE05209526
:100FE0003095222730724091440690E0840F911D85
:100FF000840F911D880F991FFC01E15AF74F8081E2
:10100000918128233923232B21F060E081E00E9485
:101010001C218091A8092091DD053091DE052095E5
:101020003095222730744091440690E0840F911D42
:10103000840F911D880F991FFC01E15AF74F8081A1
:10104000918128233923232B21F060E080E00C9448
:101050001C2108950E94BD075C9A80ED97E00E94D4
:101060007A205C98809135068823E1F080913006E3
:10107000E0912F0694E0E99FF0011124E80FF11DA3
:10108000ED5DFA4F608166956695809145060E94F8
:10109000AC2D911107C08091310690913206892BB9
:1010A00009F02A9A80914306882331F12A9A809187
:1010B000A8092091440690E0820F911D820F911D96
:1010C000880F991FFC01E15AF74F4091DD055091BF
:1010D000DE05409550958081918148235923609188
:1010E00036067091370686E69EE00E94602A0E94CE
:1010F000C907109243060CC0409131065091320648
:10110000609136067091370686E69EE00E94602A5E
:10111000909145069F5F90934506809146068F5FAC
:10112000809346062091C209222309F4A2C08C3084
:1011300048F01092460681E020914706211180E098
:1011400080934706933018F01092480603C081E060
:10115000809348068091C1098823F1F02A9AE09192
:10116000A809F0E0EE0FFF1FE15AF74F4091DD05AF
:101170005091DE05409550958081918148235923F7
:10118000609136067091370686E69EE00E94602ADE
:101190000E94C9071092C109E091A809F0E0E55A40
:1011A000F74F80818695869590914506981708F4AB
:1011B00079C010924506809144068F5F8093440663
:1011C000E091A809482F50E0F0E0E35AF74F208162
:1011D00030E0215031094217530781F591E0909397
:1011E00040069091CB099330A8F420914F082F5FCF
:1011F00020934F0830914F0820915208231710F484
:1012000010924F0820915008222321F0109250088C
:1012100010924F089450933088F490914F089F5F3C
:1012200090934F0820914F08E0914C06F0E0E55D67
:10123000FA4F9081291710F010924F0891E0909387
:101240004306E091A809F0E0E35AF74F908189172F
:1012500048F11092440680915708882319F1909123
:10126000A80981E0911180E08093A80910925708A5
:1012700019C08C3048F01092460681E090914806E3
:10128000911180E0809348068091CB09833010F45F
:1012900010924F088450833028F48091B109811155
:1012A00010924F0885B1887F85B908958091DB053C
:1012B0009091DC0594FF04C060E08EE00E941C2148
:1012C0008091DB059091DC0595FF04C060E081E032
:1012D0000E941C218091DB059091DC0596FF04C0E3
:1012E00060E080E00C941C2108958091CB0983304C
:1012F00008F05FC17091C20980913406772309F428
:1013000055C0282F882339F18091A80920914806DB
:101310003091440690E0830F911D830F911D880F3B
:10132000991FFC01E15AF74F80819181289FA0010C
:10133000299F500D11248091DD059091DE05842BAD
:10134000952B9093370680933606222311F080E088
:101350000BC180E809C180913506882309F449C092
:101360008091A809309148064091440690E0840F8E
:10137000911D840F911D880F991FFC01E15AF74FB1
:1013800080819181389FA001399F500D1124809157
:10139000310690913206842B952B909337068093DB
:1013A0003606311101C020E428B9DFC0882379F066
:1013B0008091DD059091DE05909337068093360687
:1013C00080914806811101C070E878B9CEC0909133
:1013D0003506992371F02091310630913206309311
:1013E000370620933606909148069111BDC080E4DF
:1013F000BBC090915508609154089617A8F421E05D
:1014000030E0A901062E02C0440F551F0A94E2F7EE
:10141000FA0131974E2B5F2B02C0220F331F9A9592
:10142000E2F7C90101971BC06917A8F421E030E079
:10143000A901062E02C0440F551F0A94E2F741503D
:10144000510902C0220F331F9A95E2F7C901019793
:10145000822B932B04C080E090E040E050E030917C
:10146000B609711126C031111AC020914806709139
:10147000E5086F3F59F430E002C0220F331F7A9520
:10148000E2F7309337062093360645C08427952728
:1014900030E002C0220F331F7A95E2F736C081E0B8
:1014A00090E00090580802C0880F991F0A94E2F754
:1014B00056C0209148067091440631113EC0E0911B
:1014C000E5086F3F79F4822F90E002C0880F991FE2
:1014D0007A95E2F721E030E002C0220F331FEA954F
:1014E000E2F713C08427952730E07F7002C0220FF7
:1014F000331F7A95E2F74091470650E002C0440F4F
:10150000551FEA95E2F724273527822793279093E2
:101510003706809336062091B7092E5F81E090E070
:1015200001C0880F2A95EAF72091B809222311F00B
:1015300020E401C020E8820F17C0822F90E002C093
:10154000880F991F7A95E2F721E030E00090580863
:1015500002C0220F331F0A94E2F782279327909349
:101560003706809336068CEF88B9E091A809F0E041
:10157000E55AF74F8081803171F028F48C3071F496
:101580001092B7090BC0883121F0803239F483E022
:1015900003C081E001C082E08093B70980914406D6
:1015A00080518F3E18F01092B80903C081E08093FB
:1015B000B8099091CB09933009F0D0C0E091A80907
:1015C000F0E0E55AF74F8081803179F028F48C30D3
:1015D00079F41092B7090CC0883129F0803241F4B7
:1015E0009093B70905C081E001C082E08093B709FC
:1015F000E091A809F0E0E35AF74F8081813180F053
:1016000080913105882361F0909144068091B8095A
:10161000903108F49DC0811103C081E08093B80926
:101620002091B7092E5F81E090E001C0880F2A95D4
:10163000EAF72091B809222311F020E401C020E844
:10164000820F88B98091C209882309F45EC0909105
:10165000B8098091440691111DC0E091A80920911C
:10166000480630E0A90102C0440F551F8A95E2F7F1
:10167000CA012091CC0950E1E59FF0011124E20F4D
:10168000F11DEE0FFF1FEE0FFF1FE85DF64F2081EB
:10169000318121C0803110F1913001F5E091A8092C
:1016A0002091480630E08051A90102C0440F551F27
:1016B0008A95E2F7CA012091CC0950E1E59FF0013B
:1016C0001124E20FF11DEE0FFF1FEE0FFF1FE85D6B
:1016D000F64F228133818227932735C09130F1F56F
:1016E0008031E0F5E091A8098091CC0990E1E99F73
:1016F000F0011124E80FF11DEE0FFF1FEE0FFF1F89
:10170000E85DF64F828193811EC08091B6098823DF
:1017100081F081E090E00090580802C0880F991F86
:101720000A94E2F790933706809336068CEF88B9D7
:1017300008958091480690E00090E50802C0880F67
:10174000991F0A94E2F7909337068093360608951E
:10175000813009F065CF1092B80962CF0895809169
:10176000B609882351F081E090E00090580802C04B
:10177000880F991F0A94E2F720C09091C2098091C6
:1017800048064091E508911107C090E002C0880F1B
:10179000991F4A95E2F711C090E00090440602C0FC
:1017A000880F991F0A94E2F721E030E002C0220F6F
:1017B000331F4A95E2F78227932790933706809349
:1017C00036068091CB09873019F080914F0802C00E
:1017D00080914D068F70880F880F88B90895CF9338
:1017E000DF9380912F05811105C08091E008811160
:1017F000D1C06AC110922F0540E050E02091A809A5
:1018000081E090E0222311F080E090E0EA01CC0F2B
:10181000DD1FFE01E80FF91FEE0FFF1FE15AF74F22
:101820001182108260E070E0E091A8098091A8091F
:1018300021E030E0882311F020E030E0DE01A20F4B
:10184000B31FAA0FBB1FA15AB74F81E090E0EE2350
:1018500011F080E090E0FC0184E0EE0FFF1F8A951C
:10186000E1F7E60FF71FEE0FFF1FEE0FFF1FE85D1A
:10187000F64F80819181042E02C0969587950A9437
:10188000E2F781709927062E02C0880F991F0A94EB
:10189000E2F7FE01E20FF31FEE0FFF1FE15AF74FD1
:1018A00020813181822793278D939C936F5F7F4F97
:1018B0006031710509F0B8CF4F5F5F4F403151057E
:1018C00009F09CCF40E050E0EA0160962091A80921
:1018D00081E090E0222311F080E090E0CC0FDD1F4A
:1018E000FE01E80FF91FEE0FFF1FE15AF74F1182BB
:1018F000108260E070E0E091A8098091A80921E0E1
:1019000030E0882311F020E030E0DE01A20FB31FA9
:10191000AA0FBB1FA15AB74F81E090E0EE2311F050
:1019200080E090E0FC0194E0EE0FFF1F9A95E1F754
:10193000E60FF71FEE0FFF1FEE0FFF1FE85DF64FDC
:1019400082819381042E02C0969587950A94E2F7CE
:1019500081709927062E02C0880F991F0A94E2F71A
:10196000FE01E20FF31FEE0FFF1FE15AF74F208138
:101970003181822793278D939C936F5F7F4F6031D6
:10198000710509F0B8CF4F5F5F4F4031510509F045
:101990009BCF2BCF1092E00820E030E08091A80987
:1019A000B901660F771FFB01E80FF11DEE0FFF1F56
:1019B000E15AF74F1182108240E050E08091A8096F
:1019C0009091A809FB01E90FF11DEE0FFF1FE15AED
:1019D000F74FDA0190E1899FA00DB11D1124AA0FE4
:1019E000BB1FAA0FBB1FA85DB64F8D919C91022E05
:1019F00002C0969587950A94E2F781709927042E84
:101A000002C0880F991F0A94E2F7A081B1818A274A
:101A10009B27918380834F5F5F4F4031510571F663
:101A20002F5F3F4F2031310509F0B8CF40E050E043
:101A30008091A8099A01205F3F4F220F331FF901BF
:101A4000E80FF11DEE0FFF1FE15AF74F11821082D0
:101A500060E070E08091A8099091A809F901E90F70
:101A6000F11DEE0FFF1FE15AF74FDB0190E1899F57
:101A7000A00DB11D1124AA0FBB1FAA0FBB1FA85D8B
:101A8000B64F12968D919C911397042E02C0969595
:101A900087950A94E2F781709927062E02C0880F75
:101AA000991F0A94E2F7A081B1818A279B2791832D
:101AB00080836F5F7F4F6031710561F64F5F5F4FCD
:101AC0004031510509F0B4CF8091C20981110DC098
:101AD00080915708882349F09091A80981E09111DD
:101AE00080E08093A80910925708DF91CF91089564
:101AF0002F923F924F925F926F927F928F929F921E
:101B0000AF92BF92CF92DF92EF92FF920F931F930B
:101B1000CF93DF9300D01F92CDB7DEB70E94EF0BBB
:101B200086E69EE00E94AD2A9B838A838091A90964
:101B30009091AA090A811B810817190751F00E9488
:101B4000232060933C0670933D0680933E0690935D
:101B50003F060E94232000913C0610913D062091F3
:101B60003E0630913F06DC01CB01801B910BA20B9E
:101B7000B30B0597A105B10508F4C2C18091AD0969
:101B80009091AE092A813B812817390709F4B2C127
:101B90003093AE092093AD096FE176E00FEF15E0C9
:101BA0004FEE55E0EFE0EE2EE6E0FE2EDB0120E00A
:101BB00030E01C928A819B81022E02C09695879507
:101BC0000A94E2F78170F80181938F01FA01908104
:101BD000891749F0F7019081911103C0813009F410
:101BE0008C93F7018083FA018193AF012F5F3F4F00
:101BF0001196FFEFEF1AFF0A20313105D1F600915F
:101C0000CB090983033008F0EFC0C0903406C1103F
:101C100005C08091350681115FC075C0D090330634
:101C20002091DD053091DE05EFEDF5E00FE116E0E6
:101C300080E090E0812C912C54018394EE24E39475
:101C4000F12C7724739440E1642E6E0E482FD80156
:101C50005D918D015523A9F1DD2081F09701082EBA
:101C600002C0220F331F0A94E2F720953095AFEDA2
:101C7000B5E07D926A12FDCF108203C050815F5F94
:101C800050835081513091F05230D9F41401250124
:101C900004C0220C331C441C551C4A95D2F7A101E8
:101CA000409550952423352310820BC01401250143
:101CB00004C0220C331C441C551C4A95D2F722291F
:101CC0003329019631968031910509F0BFCF3093C9
:101CD000DE052093DD059DCF8091AD099091AE0981
:101CE0009093320680933106E091A809F0E0E55A1E
:101CF000F74F80818F7021F481E080932F0674C0AC
:101D000010922F0671C0C1106FC08091B609882350
:101D1000D1F02091AD093091AE0980E090E0A901A9
:101D2000082E02C0559547950A94E2F740FF06C079
:101D30008093580881E080932F0556C0019680312A
:101D4000910569F751C0809156082091550830914E
:101D5000540890E0FB014191BF01442389F08F5F5B
:101D6000813029F480932F05292F3FEF09C082305D
:101D700039F420935508909354081092560809C0DE
:101D80009F5F903139F78093560820935508309320
:101D900054082091550880915408821728F48F3FE9
:101DA00019F08093530802C02093530891E0909358
:101DB0002F05909153089093E5088F3F19F41092E6
:101DC000520812C090E0821B910997FF03C09195C1
:101DD000819591098093520881E0809351089091F8
:101DE000C209911180935008F981F33009F088C03D
:101DF0008091C2092091AD093091AE099091B60948
:101E0000882309F44FC08091B809992309F182957C
:101E1000807F8F5F90915A0840E050E0B901042E16
:101E200002C0759567950A94E2F760FF09C0E091DA
:101E3000A809F0E0E35AF74F982F940F908391E0B0
:101E40004F5F5F4F4031510549F790935A0858C092
:101E500091E09093E0089093DF08E091A8099091B9
:101E6000CC0900E1E09FF0011124E90FF11DEE0F14
:101E7000FF1FE80FF11DEE0FFF1FE85DF64F809189
:101E8000AB099091AC098095909582239323408172
:101E9000518184279527918380833093AC092093C7
:101EA000AB092EC0992399F080E090E0A901082E9B
:101EB00002C0559547950A94E2F740FF03C080930E
:101EC00058081EC001968031910581F719C080E045
:101ED00090E0A901082E02C0559547950A94E2F7B3
:101EE00040FF03C08093E5080BC001968031910547
:101EF00081F706C02A813B81232B11F410925608EA
:101F000080915208882321F080914006811194C06D
:101F10008091C209811111C010925008809151081E
:101F2000882359F01092510810924006809153086E
:101F30008093E50881E080932F050A811B8110932F
:101F4000AA090093A909909158088091E50810E129
:101F5000919F800D11248093E4088091B509882316
:101F600009F477C08091CB09833009F053C0809188
:101F700044069091CC09E091A809803120F520E138
:101F8000E29FF0011124E90FF11DEE0FFF1FEE0F8C
:101F9000FF1FE85DF64F41E050E060E070E08A012D
:101FA0009B0104C0000F111F221F331F8A95D2F717
:101FB000D901C80180959095208131818223932396
:101FC0009183808321C010E1E19FF0011124E90F8A
:101FD000F11DEE0FFF1FEE0FFF1FE85DF64F20EF24
:101FE000280F81E090E0A0E0B0E004C0880F991FC6
:101FF000AA1FBB1F2A95D2F7809590952281338125
:10200000822393239383828381E08093E0088093EB
:10201000DF081FC08330E8F4809134068823C9F0BC
:102020001092DE051092DD05EFEDF5E080E18E0FF8
:1020300011928E13FDCF0DC090914F0880915308DF
:10204000890F8093E50881E080932F051092400668
:102050005FCF0F900F900F90DF91CF911F910F9155
:10206000FF90EF90DF90CF90BF90AF909F908F90B8
:102070007F906F905F904F903F902F9008950F93B7
:102080001F93CF93DF930E94EF0B86E69EE00E94A2
:10209000AD2AEC018091A9099091AA09C817D90726
:1020A00051F00E94232060933C0670933D0680937C
:1020B0003E0690933F060E94232000913C0610911B
:1020C0003D0620913E0630913F06DC01CB01801B8E
:1020D000910BA20BB30B0597A105B10508F443C002
:1020E0008091AD099091AE09C817D907E1F1D0935D
:1020F000AE09C093AD098091B609882399F080E0BC
:1021000090E09E01082E02C0359527950A94E2F7CB
:1021100020FF03C08093580812C0019680319105BA
:1021200081F717C080E090E09E01082E02C035952F
:1021300027950A94E2F720FF08C08093E50881E024
:1021400080932F058093E10804C0019680319105AA
:1021500059F7909158088091E50820E1929F800DF1
:1021600011248093E408D093AA09C093A90980910F
:10217000B309882391F08091B20981110EC081E0EA
:102180008093B20980914D068F5F80934D068091B8
:102190004D068F3F11F410924D068091E108E091B9
:1021A0004C068823A1F020914D068E2F90E0820FDF
:1021B000911D820F911DDC01A25BB94F2091E408B3
:1021C0002C931092E10881E080934A0631C040913F
:1021D0004D068E2F90E09C01240F311D240F311DE0
:1021E000D901A25BB94F4C9142954F70409358086A
:1021F00050914D069C01250F311D250F311DD90130
:10220000A25BB94F2C9130EF439F200D11242093F6
:10221000E50820914D06820F911D820F911DDC0172
:10222000A25BB94F8C918093E40881E080932F05E5
:102230008091B009882379F08091AF0981110BC09A
:1022400081E08093AF0990914D06F0E0E55DFA4F93
:10225000908380934A068091B10981110E9478078A
:102260008091C20981110DC080914906882349F0EF
:1022700081E090914C06911180E080934C06109281
:102280004906DF91CF911F910F9108950E94EF0BA6
:10229000809140062091C209882359F1109240068E
:1022A000222341F080914906882321F080914F0834
:1022B000882339F11092400630914F0880914C06E6
:1022C00090E0830F911D830F911DFC01E25BF94F9C
:1022D00080818093E408982F92959F70909358087E
:1022E00030EF939F800D11248093E50881E0809367
:1022F0002F05211113C08091B109882379F00C9426
:10230000780781E090914C06911180E080934C0613
:102310001092490681E080932F05CCCF0895CF938A
:10232000DF9340E050E02091A80981E090E0222373
:1023300011F080E090E0EA01CC0FDD1FFE01E80F14
:10234000F91FEE0FFF1FE15AF74F1182108260E074
:1023500070E0E091A8098091A80921E030E088238D
:1023600011F020E030E0DE01A20FB31FAA0FBB1F67
:10237000A15AB74F81E090E0EE2311F080E090E0A9
:10238000FC0184E0EE0FFF1F8A95E1F7E60FF71FCF
:10239000EE0FFF1FEE0FFF1FE85DF64F808191816A
:1023A000042E02C0969587950A94E2F781709927CA
:1023B000062E02C0880F991F0A94E2F7FE01E20F71
:1023C000F31FEE0FFF1FE15AF74F20813181822763
:1023D00093278D939C936F5F7F4F6031710509F058
:1023E000B8CF4F5F5F4F4031510509F09CCF40E0BF
:1023F00050E0EA0160962091A80981E090E0222354
:1024000011F080E090E0CC0FDD1FFE01E80FF91F16
:10241000EE0FFF1FE15AF74F1182108260E070E06B
:10242000E091A8098091A80921E030E0882311F00B
:1024300020E030E0DE01A20FB31FAA0FBB1FA15A9C
:10244000B74F81E090E0EE2311F080E090E0FC01D6
:1024500084E0EE0FFF1F8A95E1F7E60FF71FEE0FFE
:10246000FF1FEE0FFF1FE85DF64F82819381042E60
:1024700002C0969587950A94E2F781709927062EF7
:1024800002C0880F991F0A94E2F7FE01E20FF31FC2
:10249000EE0FFF1FE15AF74F2081318182279327EA
:1024A0008D939C936F5F7F4F6031710509F0B8CFBA
:1024B0004F5F5F4F4031510509F09BCFDF91CF91C6
:1024C0000895CF93DF93EC0160E570E085E29BE037
:1024D0000E94C8256D2F85E29BE00E9465256C2F28
:1024E00085E29BE0DF91CF910C946525EF92FF92FE
:1024F0000F931F93CF93DF93C0912E05D0E0CE5B57
:10250000DF4FDC2FCC2700E010E0C8018C0F9D1FAF
:102510000E946112E12CF12C80914C06F701E00F32
:10252000F11FEE0FFF1FE80FF11DE25BF94F608115
:1025300085E29BE00E9465258FEFE81AF80A80E4A7
:10254000E816F10449F785E29BE00E94DD2565E08D
:1025500070E080E090E00E945420005C1F4F003447
:1025600081E0180791F680912E0590E09E5A0E9416
:102570006112E0914C06F0E0E55DFA4F4AE050E070
:10258000608186EF99E00E940122E0914C06F0E024
:10259000E55DFA4F608185E29BE00E94652585E25A
:1025A0009BE00E94DD2565E070E080E090E0DF9137
:1025B000CF911F910F91FF90EF900C945420FF92B8
:1025C0000F931F93CF93DF938091300520E4829F78
:1025D000C00111240E946112C0E0D0E000E010E0D0
:1025E0008091A8099091A809FE0120E1929FE00D39
:1025F000F11D1124EE0FFF1FE00FF11FEE0FFF1F63
:10260000E85DF64FF180FE0190E1899FE00DF11D3C
:102610001124EE0FFF1FE00FF11FEE0FFF1FE85D0B
:10262000F64F608185E29BE00E9465256F2D85E273
:102630009BE00E9465250130110519F001E010E0D2
:10264000CFCF2196C031D10549F685E29BE00E94AB
:10265000DD2565E070E080E090E00E9454208091EC
:10266000300590E0905E880F991F0E946112E09102
:10267000A809F0E0E35AF74F608185E29BE00E94F1
:102680006525E091A809F0E0E55AF74F608185E201
:102690009BE00E94652585E29BE00E94DD2565E0C8
:1026A00070E080E090E0DF91CF911F910F91FF905B
:1026B0000C9454201F93CF93DF938091E40820E47F
:1026C000829FC00111240E946112C8EED8E0688187
:1026D000198185E29BE00E946525612F85E29BE0E0
:1026E0000E9465256A811B8185E29BE00E94652529
:1026F000612F85E29BE00E946525249689E0C8321F
:10270000D80729F785E29BE00E94DD2565E070E0AF
:1027100080E090E00E9454208091E40890E0905E78
:10272000880F991F0E9461126091E70885E29BE083
:102730000E9465256091E60885E29BE00E94652580
:1027400085E29BE00E94DD2565E070E080E090E09E
:10275000DF91CF911F910C9454200F931F93CF932F
:10276000DF9386E69EE00E94AD2AEC018091A909E4
:102770009091AA09C817D90751F00E9423206093AD
:102780003C0670933D0680933E0690933F060E9460
:10279000232000913C0610913D0620913E06309189
:1027A0003F06DC01CB01801B910BA20BB30B0597FD
:1027B000A105B10508F441C08091AD099091AE0921
:1027C000C817D907D1F1D093AE09C093AD09809154
:1027D000B609811113C080E090E09E01082E02C06E
:1027E000359527950A94E2F720FF03C08093E5080A
:1027F00012C001968031910581F715C080E090E00C
:102800009E01082E02C0359527950A94E2F720FF15
:1028100006C08093580881E080932F0504C001967C
:102820008031910569F7909158088091E50820E181
:10283000929F800D11248093E408D093AA09C0933D
:10284000A9098091BB098823A1F080912F058111EE
:1028500004C08091C809882361F010922F0510925E
:10286000C8090E945A13DF91CF911F910F910C94C8
:102870006302DF91CF911F910F910895CF938091C3
:10288000E40820E4829FC00111240E946112C0E18B
:1028900060E085E29BE00E94652560E085E29BE0C8
:1028A0000E94652560E085E29BE00E94652560E06E
:1028B00085E29BE00E946525C15051F785E29BE0CF
:1028C0000E94DD2565E070E080E090E00E945420E9
:1028D0008091E40890E0905E880F991F0E94611239
:1028E00060E185E29BE00E94652568E185E29BE06E
:1028F0000E94652585E29BE00E94DD2565E070E091
:1029000080E090E0CF910C945420CF93DF9380919E
:10291000B8058823F1F01092B80580E192E50E9495
:102920006112C9EBD5E06881229685E29BE00E94A6
:10293000652585E0C93DD807B1F785E29BE00E9497
:10294000DD2565E070E080E090E0DF91CF910C94B0
:102950005420DF91CF91089580E292E50E946112A8
:102960006091DA0585E29BE00E94652585E29BE0A7
:102970000E94DD2565E070E080E090E00C9454203A
:10298000CF92DF92EF92FF920F931F93CF93DF933B
:102990008091E40820E4829FC00111240E9461120A
:1029A00085E29BE00E94DD2540E450E060E570E0B8
:1029B00085E29BE00E94BB2500E010E0E12CF12CB9
:1029C000C090A80985E29BE00E941125D82E85E2DF
:1029D0009BE00E94112521E030E0CC2011F020E0A6
:1029E00030E0F90134E0EE0FFF1F3A95E1F7E00F18
:1029F000F11FEE0FFF1FEE0DFF1DEE0FFF1FE85D35
:102A0000F64FD82F80E0C82FCE018D0D911D9183F8
:102A10008083EA94EF2821F0EE24E394F12CD0CFC8
:102A20000F5F1F4F0031110549F68091E40890E0D7
:102A3000905E880F991F0E94611285E29BE00E94C0
:102A4000DD2542E050E060E570E085E29BE00E9419
:102A5000BB25C091A80985E29BE00E94112521E0D9
:102A600030E0CC2311F020E030E0F901E35AF74FD9
:102A70008083C091A80985E29BE00E94112521E096
:102A800030E0CC2311F020E030E0F901E55AF74FB7
:102A900080838091E408809330058091C209882367
:102AA00031F081E08093570880932F050FC00E947A
:102AB0008F119091A80981E0911180E08093A8097D
:102AC0001092570810922F051092E008DF91CF91D5
:102AD0001F910F91FF90EF90DF90CF90089581B1FB
:102AE000836081B987B18C6F87B9569A61E08EE0B7
:102AF0000E94FB2061E081E00E94FB2061E080E019
:102B00000E94FB2061E082E00E94FB2080EE91E0C9
:102B10009093C7098093C60988E594E19093C5090D
:102B20008093C40948E554E160E070E089E69EE0E6
:102B30000E945B2B40E052EC61E070E086EF99E090
:102B40000E94162460E087E39CE00E942F260E94EA
:102B5000200286E69EE00E94F82985E29BE00E9422
:102B6000A42580E8E8E2F9E0DF011D928A95E9F703
:102B700080E092E0EEE4F6E0DF019C011D9221503E
:102B80003040E1F70C94C0142F923F924F925F9225
:102B90006F927F928F929F92AF92BF92CF92DF926D
:102BA000EF92FF920F931F93CF93DF93CDB7DEB7D2
:102BB00028970FB6F894DEBF0FBECDBF8091B40941
:102BC000882309F44CC11092B40900E011E020E020
:102BD00030E43E832D831C821B8218861F821A825A
:102BE00019828B819C810E946112212C312C2F81B2
:102BF0003885203131057CF5F801E20DF31D828026
:102C00009380A480B58020E230E0C12CD12C7601E5
:102C100041E050E060E070E080E090E0A0E0B0E8EB
:102C20002C013D01482059206A207B204816590676
:102C30006A067B0621F4C42AD52AE62AF72AB69525
:102C4000A79597958795440F551F661F771F2150AD
:102C5000310931F703C0C12CD12C76016C2D85E2EE
:102C60009BE00E9465256D2D85E29BE00E94652515
:102C70006E2D85E29BE00E9465256F2D77278827C2
:102C8000992785E29BE00E94652534E0230E311CE4
:102C900080E42816310409F0AACF85E29BE00E9467
:102CA000DD2565E070E080E090E00E9454208D8199
:102CB0009E810E9461122F813885203131054CF4AC
:102CC000F801608185E29BE00E946525F801618141
:102CD00006C060E185E29BE00E94652568E185E22F
:102CE0009BE00E94652585E29BE00E94DD2565E072
:102CF00070E080E090E00E9454208F81988534E05D
:102D0000959587953A95E1F721E030E002C0220FD2
:102D1000331F8A95E2F7C90129813A81282B392B83
:102D20003A832983B90186E69EE00E94362A2F81E4
:102D300038852F5F3F4F38872F830E5B1F4F2D81C4
:102D40003E812E5F3F4F3E832D832B813C81205C53
:102D50003F4F3C832B832F8138852115314009F06B
:102D600040CF64E670E080E090E00E94542060E094
:102D700070E086E69EE00E94362AE12C93E4F92E6C
:102D8000612C712CC12CD12C88248394912C870127
:102D90001A95C8010E94611280E4B82E60E085E2B5
:102DA0009BE00E946525BA94B110F8CF85E29BE0C4
:102DB0000E94DD2565E070E080E090E00E945420F4
:102DC000005C1F4F0E151F0521F7C3019E5A0E947C
:102DD000611264E085E29BE00E94652585E29BE04C
:102DE0000E94DD2565E070E080E090E00E945420C4
:102DF000C401062C02C0880F991F0A94E2F7C82A62
:102E0000D92AB60186E69EE00E94362A9FEF691A0B
:102E1000790A7801F394F0E16F16710409F0B7CFE5
:102E200064E670E080E090E00E94542060E070E092
:102E300086E69EE00E94362A0E94200281E080936E
:102E4000B8050E9485141092DA050E94AC14109205
:102E5000E508109258081092E4080E94C0141092DD
:102E6000B40928960FB6F894DEBF0FBECDBFDF9130
:102E7000CF911F910F91FF90EF90DF90CF90BF9077
:102E8000AF909F908F907F906F905F904F903F900A
:102E90002F9008958091DF08813041F080915A0889
:102EA000813021F080915908813091F48091C209DC
:102EB000882331F09091CB0980913305981308C095
:102EC0000E94DF121092DF0810925A0810925908DF
:102ED000909130058091E40898130C94C0140895E3
:102EE0000F931F93CF93DF930E946D0586E69EE0BC
:102EF0000E94AD2AEC018091A9099091AA09C817F6
:102F0000D90751F00E94232060933C0670933D0640
:102F100080933E0690933F060E94232000913C063A
:102F200010913D0620913E0630913F06DC01CB0119
:102F3000801B910BA20BB30B0597A105B10508F4FB
:102F400041C08091AD099091AE09C817D907D1F160
:102F5000D093AE09C093AD098091B609811113C019
:102F600080E090E09E01082E02C0359527950A94D6
:102F7000E2F720FF03C08093E50812C0019680317C
:102F8000910581F715C080E090E09E01082E02C0F7
:102F9000359527950A94E2F720FF06C080935808DC
:102FA00081E080932F0504C001968031910569F777
:102FB000909158088091E50820E1929F800D11249E
:102FC0008093E408D093AA09C093A9099091300591
:102FD0008091E408981721F00E94C0141092E30831
:102FE0008091BB09882309F18091E308882341F08F
:102FF00080912F05811104C08091CA098823A9F00E
:103000001092CA0910922F050E943E140E9463027A
:1030100081E08093E3089091A809911180E080936A
:10302000A8090E94C01410922F05DF91CF911F9123
:103030000F9108950F931F93CF93DF9386E69EE041
:103040000E94AD2AEC018091A9099091AA09C817A4
:10305000D90751F00E94232060933C0670933D06EF
:1030600080933E0690933F060E94232000913C06E9
:1030700010913D0620913E0630913F06DC01CB01C8
:10308000801B910BA20BB30B0597A105B10508F4AA
:1030900041C08091AD099091AE09C817D907D1F10F
:1030A000D093AE09C093AD098091B609811113C0C8
:1030B00080E090E09E01082E02C0359527950A9485
:1030C000E2F720FF03C08093E50812C0019680312B
:1030D000910581F715C080E090E09E01082E02C0A6
:1030E000359527950A94E2F720FF06C0809358088B
:1030F00081E080932F0504C001968031910569F726
:10310000909158088091E50820E1929F800D11244C
:103110008093E408D093AA09C093A909909130053F
:103120008091E408981721F00E94C0141092E208E0
:103130008091BB09882309F458C08091E208882354
:1031400049F080912F05811105C08091C90988231C
:1031500009F44BC01092C90910922F05A8EEB8E0EF
:1031600080E090E02091A809FC0130E1239FE00D70
:10317000F11D1124EE0FFF1FEE0FFF1FE85DF64F4C
:103180002081318111963C932E932091A809FC0156
:1031900030E1239FE00DF11D1124EE0FFF1FEE0F14
:1031A000FF1FE85DF64F2281338113963C932E93E7
:1031B00012970196149680319105A1F6E091A80925
:1031C000F0E0E35AF74F80818093E708E091A80987
:1031D000F0E0E55AF74F80818093E6080E94630291
:1031E00081E08093E20810922F05DF91CF911F912B
:1031F0000F910895AF92BF92CF92DF92EF92FF921C
:103200000F931F93CF93DF93C0914E08D0E0CE5B16
:10321000DF4FDC2FCC27E12CF12CC7018C0F9D1F39
:103220000E94611285E29BE00E94DD2540E450E0AF
:1032300060E570E085E29BE00E94BB25C12CD12CAB
:103240005601AE0CBF1C01E010E080914C068823B3
:1032500011F000E010E085E29BE00E941125F501ED
:10326000EE0FFF1F0E0F1F1FF801E25BF94F808367
:103270008FEFC81AD80A80E4C816D10409F780E491
:10328000E80EF11CE11481E0F80639F680914E0851
:1032900090E09E5A0E94611285E29BE00E94DD252B
:1032A00041E050E060E570E085E29BE00E94BB25D4
:1032B000C1E0D0E080914C06882311F0C0E0D0E05E
:1032C00085E29BE00E941125C55DDA4F88838091DD
:1032D0004E0880932E058091C209882381F081E0F9
:1032E0008093490680934B06DF91CF911F910F91F8
:1032F000FF90EF90DF90CF90BF90AF90089581E066
:1033000090914C06911180E080934C0610924906F2
:103310000E947807DF91CF911F910F91FF90EF905E
:10332000DF90CF90BF90AF900C94C01480912E0589
:10333000803190F480914B06811104C08091AF09D7
:10334000882351F080914A06882331F00E9476123A
:1033500010924B0610924A0690912E0580914E08CD
:1033600098130C94FA180895CF93DF9380E192E5B7
:103370000E94611285E29BE00E94DD2540E150E061
:1033800060E570E085E29BE00E94BB25C9EBD5E0DB
:1033900085E29BE00E9411258993999385E0C93DC0
:1033A000D807B1F7DF91CF91089580E292E50E94AE
:1033B000611285E29BE00E94DD2541E050E060E57E
:1033C00070E085E29BE00E94BB2585E29BE00E94C5
:1033D0001125803118F48093DA0508951092DA05EA
:1033E0000895682F87ED99E00C94C4220E94BD07D0
:1033F000809135068823D1F080913006E0912F0628
:1034000094E0E99FF0011124E80FF11DED5DFA4F02
:103410008091450660810E94AC2D911107C080917A
:10342000310690913206892B09F02A9A8091430641
:103430004091310650913206609136067091370600
:10344000882321F18091A8092091440690E0820F01
:10345000911D820F911D880F991FFC01E15AF74FB2
:103460008091DD059091DE058095909520813181D8
:1034700082239323482B592B86E69EE00E94602AE4
:103480000E94C907109243062A9A04C086E69EE06D
:103490000E94602A809145068F5F80934506909137
:1034A00046069F5F909346062091C209222309F4A5
:1034B00049C0903348F01092460691E020914706AB
:1034C000211190E0909347068C3018F01092480636
:1034D00003C081E0809348068091C109882359F098
:1034E0008AEF0E94F119109245065D9A5C980E943D
:1034F000C9071092C1099091C0098091450699238E
:1035000009F45CC0813009F059C02A9AE091A809F9
:10351000F0E0EE0FFF1FE15AF74F4091DD055091AB
:10352000DE05409550958081918148235923609113
:1035300036067091370686E69EE00E94602A109259
:10354000C00929C08091BD09882329F08CEF0E9411
:10355000F1191092BD098091CB09833010F41092BB
:103560004F088450833028F48091B1098111109262
:103570004F0810924406109242065D9880914606CC
:10358000803348F01092460681E0909148069111F0
:1035900080E0809348068091450680FF05C04C99E5
:1035A00002C05C9A01C05C988091450683708130AE
:1035B00019F488EF0E94F1192A980895E091A8095A
:1035C000F0E0E55AF74F9081891728F310924506ED
:1035D000809144068F5F80934406E091A809482FAC
:1035E00050E0F0E0E35AF74F208130E021503109FC
:1035F0004217530781F591E0909340069091CB09D3
:103600009330A8F420914F082F5F20934F083091FA
:103610004F0820915208231710F410924F08209160
:103620005008222321F01092500810924F08945015
:10363000933088F490914F089F5F90934F082091AA
:103640004F08E0914C06F0E0E55DFA4F90812917B4
:1036500010F010924F0891E090934306E091A80972
:10366000F0E0E35AF74F2081821708F494CF1092CC
:1036700044069093410680915708882309F48BCF24
:103680009091A80981E0911180E08093A80910929F
:10369000570881CF1F920F920FB60F9211240BB6CD
:1036A0000F922F933F934F935F936F937F938F93DB
:1036B0009F93AF93BF93EF93FF930E94BD074C9BE3
:1036C00004C08091C209811108C04C9B4CC18091FB
:1036D000C209882309F40EC146C185B1887F85B926
:1036E000809135068823E1F080913006E0912F0625
:1036F00094E0E99FF0011124E80FF11DED5DFA4F10
:10370000608166956695809145060E94AC2D911169
:1037100007C08091310690913206892B09F02A9AD0
:10372000809143066091360670913706882309F12F
:103730008091A8092091440690E0820F911D820F8C
:10374000911D880F991FFC01E15AF74F4091DD054B
:103750005091DE05409550958081918148235923F1
:1037600086E69EE00E94602A0E94C90710924306E6
:1037700008C0409131065091320686E69EE00E94D4
:10378000602A809146068C3048F01092460681E00F
:1037900090914706911180E08093470680914506FD
:1037A000833018F01092480603C081E080934806E9
:1037B0008091C109882319F18AEF0E94F1191092B2
:1037C00045062A9AE091A809F0E0EE0FFF1FE15AA2
:1037D000F74F4091DD055091DE0540955095808171
:1037E000918148235923609136067091370686E609
:1037F0009EE00E94602A0E94C9071092C10988EFCA
:103800000E94F119809145068F5F80934506909143
:1038100046069F5F90934606E091A809F0E0E55ABE
:10382000F74F90819695969589139DC01092450605
:10383000809144068F5F80934406E091A80990E050
:10384000F0E0E35AF74F208130E021503109821730
:10385000930781F581E0809340068091CB09833006
:10386000A8F490914F089F5F90934F0820914F08C4
:1038700090915208921710F410924F0890915008AE
:10388000992321F01092500810924F0884508330F1
:1038900088F480914F088F5F80934F0890914F0874
:1038A000E0914C06F0E0E55DFA4F8081981710F04A
:1038B00010924F0881E0809343062A9AE091A8096C
:1038C000F0E0E35AF74F909144068081981708F48E
:1038D0004AC01092440680915708882309F443C0D7
:1038E0009091A80981E0911180E08093A80910923D
:1038F000570839C08091BD09882329F08CEF0E94B8
:10390000F1191092BD098091CB09833010F4109207
:103910004F088450833028F48091B10981111092AE
:103920004F0888EF0E94F119109244061092450644
:10393000609136067091370640E050E086E69EE0E2
:103940000E94602A809146068F5F8C3018F4809325
:10395000460609C01092460681E0909148069111F2
:1039600080E080934806FF91EF91BF91AF919F91C6
:103970008F917F916F915F914F913F912F910F9018
:103980000BBE0F900FBE0F901F9018950E946906F6
:10399000E091CB098E2F90E08031910508F008C3AB
:1039A000FC01EA5BFF4F0C94212E809133058823A4
:1039B000B1F08091C209811112C0109233050E94AA
:1039C000570780E00E949807809134068111109279
:1039D00034061092DE051092DD050E94540380919A
:1039E0003305823029F487E39CE00E94F42904C067
:1039F000813011F00E94C7020E94C2040E94FA02A4
:103A00000E94C2040E945E0329C080913305813068
:103A1000A1F08091C209811110C081E0809333052B
:103A20000E9457070E94090280913406811110926A
:103A300034061092DE051092DD0580913305811168
:103A400003C00E94C70206C0823021F487E39CE0D5
:103A50000E94F4290E94C2040E94FA020E94780D7A
:103A60000E944A170C94750980913305823069F1E0
:103A70008091C209811129C082E0809333050E94A0
:103A8000570782E00E9498078091340681111092B6
:103A900034066AE278E087E39CE00E947D2668ECC9
:103AA00070E087E39CE00E94832668EC70E087E387
:103AB0009CE00E94892661ED70E087E39CE00E9413
:103AC0008F261092DE051092DD0580913305882344
:103AD00009F4B7CF813009F0B9CFBCCF809133055D
:103AE0008330B9F08091C209811113C083E08093C3
:103AF00033050E94570780E00E94980780913406A2
:103B00008111109234061092DE051092DD0510929C
:103B1000350680913305882311F0833019F40E9413
:103B2000C70206C0823021F487E39CE00E94F4299A
:103B30000E94090493CF809133058B30A1F08BE074
:103B4000809333050E94570782E00E949807809176
:103B5000C209882341F01092C2098CEF0E94F1192A
:103B60005D981092BC090E946D050E9491060C940C
:103B7000C415809133058D30B9F08DE08093330505
:103B80000E94570782E00E94980781E08093CA094B
:103B90008091C209882341F01092C2098CEF0E94E3
:103BA000F1195D981092BC090E946D058091B609CB
:103BB00061E070E081110EC00090E50802C0660F60
:103BC000771F0A94E2F786E69EE00E94362A88B1C3
:103BD00083700DC00090580802C0660F771F0A94CA
:103BE000E2F786E69EE00E94362A88B18C6F88B99B
:103BF0000C947017809133058F30B9F08FE080936B
:103C000033050E94570782E00E94980781E0809365
:103C1000C9098091C209882341F01092C2098CEF32
:103C20000E94F1195D981092BC090E946D05809167
:103C3000B60961E070E081110EC00090E50802C095
:103C4000660F771F0A94E2F786E69EE00E94362A06
:103C500088B183700DC00090580802C0660F771FAE
:103C60000A94E2F786E69EE00E94362A88B18C6FBD
:103C700088B90C941A18809133058F30B9F08FE011
:103C8000809333050E94570782E00E94980781E0E5
:103C90008093C8098091C209882341F01092C2091B
:103CA0008CEF0E94F1195D981092BC090E946D057D
:103CB0008091B60961E070E081110EC00090E508C6
:103CC00002C0660F771F0A94E2F786E69EE00E9424
:103CD000362A88B183700DC00090580802C0660F64
:103CE000771F0A94E2F786E69EE00E94362A88B1A2
:103CF0008C6F88B90C94AD13809133058730A1F097
:103D000087E0809333050E94570780E00E94980760
:103D10008091C209882341F01092C2098CEF0E9461
:103D2000F1195D981092BC090E94C7020E94C30558
:103D30000E943F1078C0809133058430B1F084E058
:103D4000809333050E94570780E00E949807809176
:103D5000C209882341F01092C2098CEF0E94F11928
:103D60005D981092BC090E9454030E94C7020E94F1
:103D7000C3050E945E030E9496190E944A170E9482
:103D8000461155C080913305853009F448C085E05F
:103D9000809333050E9457070E9409028091C2094F
:103DA0008823E9F11092C2098CEF0E94F1195D9805
:103DB0001092BC0934C080913305853061F185E0F3
:103DC000809333050E94570782E00E9498078091F4
:103DD000C209882341F01092C2098CEF0E94F119A8
:103DE0005D981092BC096AE278E087E39CE00E944B
:103DF0007D2668EC70E087E39CE00E94832668ECF7
:103E000070E087E39CE00E94892661ED70E087E323
:103E10009CE00E948F2687E39CE00E94F4290E9488
:103E2000C3050E9446110E944A170E9496190C94DD
:103E3000AF0B80913305883009F44FC088E0809340
:103E4000330588B1837088B90E94570782E00E94C9
:103E500098076AED70E087E39CE00E947726609106
:103E6000DA056F5F87E39CE00E9474268091C209A7
:103E7000882341F01092C2098CEF0E94F1195D98DD
:103E80001092BC090E94D5196091DA0581E090E09A
:103E9000062E02C0880F991F0A94E2F79093370606
:103EA000809336066F5F87E39CE00E9474266091E2
:103EB00036067091370640E050E086E69EE00E94AC
:103EC000602AE4E7F5E0119211921192119285E0D7
:103ED000E43AF807C1F70E94B4190E946D050E94E8
:103EE000F0068091D9058823A9F06091DA056F5F0B
:103EF00087E39CE00E947426609136067091370635
:103F000040E050E086E69EE00E94602A0E94AC14E9
:103F10001092D9050E9485148091B6059091B7053D
:103F2000009741F001979093B7058093B605892BD0
:103F300009F447988091B4059091B505009799F0E0
:103F400001979093B5058093B405892B61F40E9485
:103F5000BD07609136067091370640E050E086E676
:103F60009EE00E94602A1092DC051092DB0587E338
:103F70009CE00E94F4294091DB055091DC0541153D
:103F80005105B1F0609136067091370686E69EE0E5
:103F90000E94602A2A9A8AE090E00E947A202A9859
:103FA0000E94560987E090E09093B5058093B40590
:103FB00008951F920F920FB60F9211242F933F93E3
:103FC0008F939F93AF93BF938091CF099091D00926
:103FD000A091D109B091D2093091CE0923E0230FED
:103FE0002D3720F40196A11DB11D05C026E8230F31
:103FF0000296A11DB11D2093CE098093CF09909305
:10400000D009A093D109B093D2098091D30990919E
:10401000D409A091D509B091D6090196A11DB11D71
:104020008093D3099093D409A093D509B093D6096E
:10403000BF91AF919F918F913F912F910F900FBEA4
:104040000F901F9018952FB7F8946091CF09709139
:10405000D0098091D1099091D2092FBF08953FB71F
:10406000F8948091D3099091D409A091D509B09189
:10407000D60926B5A89B05C02F3F19F00196A11DB2
:10408000B11D3FBFBA2FA92F982F8827820F911DEE
:10409000A11DB11DBC01CD0142E0660F771F881F35
:1040A000991F4A95D1F70895CF92DF92EF92FF9230
:1040B000CF93DF936B017C010E942F20EB01C11491
:1040C000D104E104F10479F00E942F206C1B7D0BD8
:1040D000683E7340A0F381E0C81AD108E108F108F6
:1040E000C851DC4FECCFDF91CF91FF90EF90DF9084
:1040F000CF900895019739F0880F991F880F991F65
:1041000002970197F1F70895789484B5826084BD91
:1041100084B5816084BD85B5826085BD85B58160CB
:1041200085BDEEE6F0E0808181608083E1E8F0E02B
:104130001082808182608083808181608083E0E85A
:10414000F0E0808181608083E1EBF0E08081846039
:104150008083E0EBF0E0808181608083E1E9F0E042
:10416000808182608083808181608083E0E9F0E0EB
:10417000808181608083EAE7F0E0808184608083D1
:10418000808182608083808181608083808180687B
:1041900080831092C100089590E0FC013197E930CE
:1041A000F10540F5EA5AFF4F0C94212E80918000D2
:1041B0008F7703C0809180008F7D80938000089569
:1041C00084B58F7702C084B58F7D84BD08958091BA
:1041D000B0008F7703C08091B0008F7D8093B000D6
:1041E0000895809190008F7703C0809190008F7D1B
:1041F00080939000089590E0FC01E252FF4F2491DB
:10420000FC01E250FF4FE491EE23A9F0F0E0EE0F45
:10421000FF1FE85DFE4FA591B4918FB7611106C0F5
:10422000F8949C91E22FE095E92303C0F894EC9177
:10423000E22BEC938FBF08951F93CF93DF93282F2A
:1042400030E0F901E254FF4F8491F901E252FF4F4F
:10425000D491F901E250FF4FC491CC23C9F0162F3D
:1042600081110E94CC20EC2FF0E0EE0FFF1FE25EE8
:10427000FE4FA591B4918FB7F894111105C09C9190
:10428000ED2FE095E92302C0EC91ED2BEC938FBF6D
:10429000DF91CF911F910895CF92DF92EF92FF921D
:1042A0000F931F93CF93DF936C01EB017B01E40E1F
:1042B000F51E00E010E0CE15DF0561F06991D60132
:1042C000ED91FC910190F081E02DC6010995080F58
:1042D000191FF1CFC801DF91CF911F910F91FF906E
:1042E000EF90DF90CF900895FB0101900020E9F757
:1042F0003197AF01461B570BDC01ED91FC91028019
:10430000F381E02D0994DC01ED91FC910190F081A5
:10431000E02D09940F931F93CF93DF93EC016DE091
:104320000E9483218C016AE0CE010E948321800FCC
:10433000911FDF91CF911F910F9108958F929F92BE
:10434000AF92BF92CF92DF92EF92FF920F931F93A3
:10435000CF93DF93CDB7DEB7A1970FB6F894DEBF4A
:104360000FBECDBF6C01142FE52FCB01022F19A278
:10437000223008F40AE07E0121E2E20EF11C802ED8
:10438000912CA12CB12C612F7E2FA50194010E94AC
:10439000E02D029F1019112481E0E81AF1081A306B
:1043A00014F4105D01C0195CF7011083122FE32F84
:1043B000CA01232B242B252B31F7B701C6010E94FC
:1043C0007421A1960FB6F894DEBF0FBECDBFDF916A
:1043D000CF911F910F91FF90EF90DF90CF90BF9002
:1043E000AF909F908F9008952115310541F4DC0125
:1043F000ED91FC910190F081E02D642F09940C94D3
:104400009E210F931F93CF93DF93EC019A01462FC8
:1044100050E060E070E00E94F4218C01CE010E9427
:104420008A21800F911FDF91CF911F910F910895E5
:104430000E9484200E946F15CFE6D3E20E94C61C22
:104440002097E1F30E946F23F9CF4F925F926F9212
:104450007F92AF92BF92CF92DF92EF92FF920F9333
:104460001F93CF93DF93CDB7DEB729013A019B01AC
:10447000AC01241935094609570989899A89AB89FC
:10448000BC89BC01CD016A197B098C099D090E9478
:104490009C2DA801970124193509460957090E9446
:1044A000022ECA01B9016A0D7B1D8C1D9D1DDF9175
:1044B000CF911F910F91FF90EF90DF90CF90BF9021
:1044C000AF907F906F905F904F900895FC0124858E
:1044D0003585F901E05CFF4F808191813296208122
:1044E0003181821B930B8F7399270895DC011C96F1
:1044F000ED91FC911D97DF01A05CBF4F2D913C9188
:10450000119712968D919C9111972817390739F0C0
:104510008D919C91E80FF91F808190E008958FEFB5
:104520009FEF0895FC01A485B585FD01E05CFF4F78
:10453000208131813296808191812817390779F065
:1045400080819181A80FB91F8C91208131812F5FCB
:104550003F4F2F7333273183208390E008958FEFEF
:104560009FEF0895FC0186859785DC01A05CBF4F15
:10457000FC01EE5BFF4F2D913C9111978081918161
:1045800028173907C1F70895CF93DF93FC01462F11
:10459000C685D7859E01205C3F4FD9018D919C91A6
:1045A000019660E470E00E94CC2DDE01AE5BBF4F4F
:1045B0006D917C91119786179707D1F3D9012D91B1
:1045C0003C91DE01A20FB31F4C93A685B785A05C7A
:1045D000BF4F11969C938E93A689B7894C9121E089
:1045E00030E0C901058C02C0880F991F0A94E2F7D8
:1045F000842B8C9381E090E0DF91CF910895089512
:104600001F920F920FB60F9211240BB60F922F9399
:104610004F935F938F939F93EF93FF932091C600E7
:104620008091210B9091220B01968F7399274091D5
:10463000230B5091240B8417950759F0E091210B1F
:10464000F091220BEF51F54F20839093220B809332
:10465000210BFF91EF919F918F915F914F912F913E
:104660000F900BBE0F900FBE0F901F9018950895DE
:104670001F920F920FB60F9211240BB60F922F9329
:104680004F935F938F939F93EF93FF932091CE006F
:104690008091990A90919A0A01968F739927409177
:1046A0009B0A50919C0A8417950759F0E091990A4A
:1046B000F0919A0AE75AF54F208390939A0A8093D3
:1046C000990AFF91EF919F918F915F914F912F9157
:1046D0000F900BBE0F900FBE0F901F90189586EF96
:1046E00099E00E946622892B11F00E94FF2287ED3B
:1046F00099E00E946622892B11F00C9437230895CB
:104700001F920F920FB60F9211240BB60F922F9398
:104710003F935F936F937F938F939F93AF93BF93D9
:10472000EF93FF932091DD0A3091DE0A8091DF0A3A
:104730009091E00A2817390731F48091C1008F7DEC
:104740008093C10016C0E091DF0AF091E00AE356C1
:10475000F54F20818091DF0A9091E00A019660E494
:1047600070E00E94CC2D9093E00A8093DF0A2093A2
:10477000C600FF91EF91BF91AF919F918F917F9173
:104780006F915F913F912F910F900BBE0F900FBED5
:104790000F901F9018951F920F920FB60F92112431
:1047A0000BB60F922F933F935F936F937F938F93EB
:1047B0009F93AF93BF93EF93FF932091550A30914E
:1047C000560A8091570A9091580A2817390731F4F0
:1047D0008091C9008F7D8093C90016C0E091570A6F
:1047E000F091580AEB5EF54F20818091570A909125
:1047F000580A019660E470E00E94CC2D9093580A0C
:104800008093570A2093CE00FF91EF91BF91AF9113
:104810009F918F917F916F915F913F912F910F9019
:104820000BBE0F900FBE0F901F901895CF92DF9286
:10483000EF92FF920F931F93CF93DF93EC016A01E6
:104840007B014115514E6105710509F1EC89FD8926
:1048500081E090E00E8C02C0880F991F0A94E2F765
:10486000808360E079E08DE390E0A70196010E94EB
:10487000E02D89019A01015011092109310936956C
:10488000279517950795980101151041A8F0EC8917
:10489000FD89108260E874E88EE190E0A70196013E
:1048A0000E94E02DDA01C9010197A109B109B6956D
:1048B000A795979587959C01E889F9893083EA89BE
:1048C000FB892083EE89FF89408181E090E09C0193
:1048D0000A8C02C0220F331F0A94E2F7242B208394
:1048E000EE89FF8940819C010B8C02C0220F331F8F
:1048F0000A94E2F7242B2083EE89FF8940819C01F2
:104900000C8C02C0220F331F0A94E2F7242B208361
:10491000EE89FF8920810D8C02C0880F991F0A94AF
:10492000E2F7809582238083DF91CF911F910F91D1
:10493000FF90EF90DF90CF900895CF92DF92EF92AB
:10494000FF92E6EFF9E01382128288EEC82E83E030
:10495000D82EE12CF12CC482D582E682F78269E45C
:1049600075E07183608381EE9AE0958784878DE995
:104970009AE09787868785EC90E0918B808B84EC1A
:1049800090E0938B828B80EC90E0958B848B81EC14
:1049900090E0978B868B86EC90E0918F808F44E03F
:1049A000428F33E0338F27E0248F95E0958F81E0AD
:1049B000868FE7EDF9E013821282C482D582E68207
:1049C000F7827183608369E57AE07587648765E1C2
:1049D0007AE0778766876DEC70E0718B608B6CECAA
:1049E00070E0738B628B68EC70E0758B648B69ECA4
:1049F00070E0778B668B6EEC70E0718F608F428F0A
:104A0000338F248F958F868FFF90EF90DF90CF901C
:104A100008958091B50B90E02091B60B821B91090F
:104A200008959091B60B8091B50B981750F4E92F2B
:104A3000F0E0E954F44F208130E09F5F9093B60B93
:104A400002C02FEF3FEFC9010895E091B60B8091AE
:104A5000B50BE81730F4F0E0E954F44F808190E0B2
:104A600008958FEF9FEF08950895CF92DF92EF9210
:104A7000FF920F931F93CF93DF937C01262F972FE5
:104A80008A018091310B882391F0C62FD72F6E01B8
:104A9000C40ED51ECC15DD0571F06991D701ED91DD
:104AA000FC910190F081E02DC7010995F3CF642FAF
:104AB000822F0E94402CC801DF91CF911F910F914E
:104AC000FF90EF90DF90CF900895CF93DF931F92E8
:104AD000CDB7DEB769832091310B2223D1F020912D
:104AE000320B27FF08C021E030E0FC013383228332
:104AF00080E090E015C08091330BE82FF0E0EC5C93
:104B0000F44F998190838F5F8093330B8093320BA6
:104B100005C061E0CE0101960E94402C81E090E04A
:104B20000F90DF91CF910895FC011382128288EEDD
:104B300093E0A0E0B0E084839583A683B78389E502
:104B400095E09183808308951092B60B1092B50B77
:104B50001092330B1092320B0C948C2B862F413811
:104B600008F040E867EB7BE00E94AA2B1092B60B9E
:104B70008093B50B089521E00C94AE2581E08093DD
:104B8000310B6093B40B1092330B1092320B0895DB
:104B90000C94BE250F93062F21E04091320B64E365
:104BA0007BE08091B40B0E94EE2B1092330B10929D
:104BB000320B1092310B0F91089561E00C94CA25CD
:104BC00085E29BE00C94942587FF0DC09CE0980F34
:104BD000923048F0982F9B7F993F29F0803F08F44E
:104BE000807F90E0089580E090E00895FC01E55F0B
:104BF000FD4F1182108232961182108232961182FC
:104C00001082329611821082329611821082329670
:104C10001182108232961182108232961182108295
:104C2000329611821082329611821082329611824F
:104C30001082329611821082329611821082329640
:104C40001182108232961182108232961182108265
:104C500032961182108232961182108208951F932B
:104C6000CF93DF93EC01162F42E15AE760E070E04A
:104C700087ED99E00E94162418821A831982FE019A
:104C8000EC5FFE4F11821082329711821082E85F32
:104C9000FE4F1082E350F140118210823197108252
:104CA00033961082C65FDE4F1882DF91CF911F913D
:104CB0000895FC01E95FFE4F208131812115310506
:104CC00079F0205831092136310560F4FC01228148
:104CD000EA5FFE4F8081821729F081E0222319F0DC
:104CE00080E0089581E00895FC0162830895FC014D
:104CF000E35FFD4F718360830895FC01ED5DFD4F1F
:104D0000718360830895FC01EB5DFD4F71836083C7
:104D10000895FC01E95DFD4F718360830895FC01F6
:104D2000E75DFD4F718360830895613F710509F46C
:104D30005DC014F5603B710509F444C074F460393A
:104D40007105C1F1603A7105C9F16038710509F06A
:104D500076C0FC01E55FFD4F70C0603D7105D1F18B
:104D600024F4603C710591F10895603E7105B1F144
:104D7000603F7105B9F108956A3F710509F44AC0B1
:104D80005CF4633F7105D1F1ACF1663F7105D1F17F
:104D9000683F7105D9F108956C3F710509F442C06F
:104DA000ECF16E3F710509F441C06F3F710509F4E4
:104DB00041C00895FC01E35FFD4F3FC0FC01E15F8E
:104DC000FD4F3BC0FC01EF5EFD4F37C0FC01ED5EC7
:104DD000FD4F33C0FC01EB5EFD4F2FC0FC01E95ECF
:104DE000FD4F2BC0FC01E75EFD4F27C0FC01E55ED7
:104DF000FD4F23C0FC01E35EFD4F1FC0FC01E15EDF
:104E0000FD4F1BC0FC01EF5DFD4F17C0FC01ED5DC8
:104E1000FD4F13C0FC01EB5DFD4F0FC0FC01E95DD0
:104E2000FD4F0BC0FC01E75DFD4F07C0FC01E55DD8
:104E3000FD4F03C0FC01E35DFD4F11821082089518
:104E4000CF93DF93FC01E95FFE4F20813181213F49
:104E5000310509F4C6C05CF5203B310509F460C09A
:104E600084F42039310509F447C0203A310509F4AA
:104E700079C02038310509F0EEC0FC01E55FFD4F37
:104E800074C0203D310509F486C044F4203C31054E
:104E900009F0E1C0FC01ED5EFD4F80C0203E310510
:104EA00009F442C0203F310509F489C0D4C02A3F2B
:104EB000310531F194F4233F310509F4B2C00CF40B
:104EC00094C0263F310509F4BBC0283F310509F0E5
:104ED000C2C0FC01ED5DFD4FB6C02C3F3105C1F0F5
:104EE0009CF02E3F3105C1F02F3F310509F0B3C0D2
:104EF000FC01E35DFD4FA7C0FC01E35FFD4F35C042
:104F0000FC01EB5DFD4F9FC0FC01E95DFD4F9BC0C7
:104F1000FC01E75DFD4F97C0FC01E55DFD4F93C0CF
:104F2000FC01EF5EFD4F21C0FC01E95EFD4F0190E9
:104F3000F081E02D309709F48EC0DC01A65FBE4FF2
:104F40006C916F77B0E86B9FB0011124DC01A75F13
:104F5000BE4F2C912F77622B705213978C91DF915B
:104F6000CF910994FC01E15FFD4F0190F081E02DAC
:104F7000309709F470C09C01265F3E4FEC01C75F7B
:104F8000DE4F8A5F9E4FD9014C916881DC018C9184
:104F9000DF91CF910994FC01EB5EFD4F0190F08110
:104FA000E02D309709F457C0EC01C75FDE4FDC01FC
:104FB000AA5FBE4F68818C91DF91CF910994FC016B
:104FC000E75EFD4F0190F081E02D309709F443C07A
:104FD000DC01A75FBE4F6C91855F9E4FDF91CF9143
:104FE0000994FC01E55EFD4F1FC0FC01E35EFD4F2F
:104FF0000190F081E02D309771F1DC01A65FBE4F8A
:105000002C912F77B0E82B9F90011124DC01A75F32
:10501000BE4F8C918F77A901482BCA01DF91CF91A8
:105020000994FC01E15EFD4F0190F081E02D309785
:1050300091F0DC01A75FBE4F8C91DF91CF91099475
:10504000FC01EF5DFD4F0190F081E02D309719F0EC
:10505000DF91CF910994DF91CF91089587E39CE090
:105060000C94F6252F923F924F925F926F927F920F
:105070008F929F92AF92BF92CF92DF92EF92FF9268
:105080000F931F93CF93DF93EC018C010C5F1E4FA6
:105090007C012EEFE21AF20A82E0282E312C93E0F6
:1050A000C92ED12CAA24AA94B12C88248394912CA3
:1050B00087ED99E00E946622181619060CF064C16B
:1050C0008038910529F487ED99E00E94B2225CC1F5
:1050D00087ED99E00E9492222C01D8016D907C907E
:1050E0006114710409F094C08B837980872D0E942C
:1050F000E425803B9105A1F054F48039910581F0BD
:10510000803A910569F08038910589F409C0803DA5
:10511000910531F0803E910519F0803C910539F4FC
:1051200047FC05C07B824C82F801918280828B8192
:105130000E94E425813F910509F454C02CF5803B81
:10514000910509F453C06CF48039910509F44EC0FF
:10515000803A910509F44AC08038910509F04AC0A7
:1051600045C0803D9105F1F124F4803C9105D1F1D9
:1051700041C0803E9105D1F1803F9105D9F5D7011D
:10518000AD92BC9219823DC0883F9105A9F044F4CC
:10519000833F910539F154F1863F910569F02AC0AA
:1051A0008A3F91053CF18D3F910534F09C012E5FC3
:1051B000310922303105F0F4FE01E95FFE4F9183A1
:1051C0008083319710823396108231961082C65FA9
:1051D000DD4F81E08883D8011D921C92F701118276
:1051E0001082D3C0D7012D923C920BC0F701D1821F
:1051F000C08207C0F80111821082D7011D921C9253
:105200007DC0F8018081918101969183808350CF88
:1052100087FF58C099278D3F91055CF48A3F91051F
:105220007CF4873F9105E1F0883F910509F04AC081
:1052300007C09C012E5F31092230310508F042C0C1
:10524000FE01E95FFE4F9183808332961082319692
:10525000108234971082C65FDD4F81E0888395C04D
:105260008B810E94E425803F910509F03FC0FE013B
:105270003396CE018E5F9E4F2191DF01A95FBE4F15
:105280002C93E817F907C1F7DE01A95FBE4F80EF45
:1052900090E011969C938E93129681E0860D8C93EC
:1052A00011962FEF621A720A7C9214971C92AC5FCF
:1052B000BE4F81E08C93D8011D921C921182108206
:1052C000198263C0FE01E60DF71D4382D7014D90A0
:1052D0005C90C20101976816790608F44EC0DB8025
:1052E0008D2D0E94E425803F910551F4F801118233
:1052F0001082FE01EE5FFE4F11821082198244C0BF
:10530000FE01E95FFE4F9183808331972D2D2F7031
:105310002F5F20832C81339620833196B3E04B1688
:10532000510419F42D81208301C01082F8011182EB
:105330001082D7011D921C9221E0FE01E65FFD4F15
:105340002083803B9105A1F054F48039910581F0D0
:10535000803A910569F08038910561F409C0803D7B
:10536000910531F0803E910519F0803C910511F4D2
:10537000D98201C0198281E008C0BFEF6B1A7B0A95
:10538000F8017182608294CE80E0DF91CF911F910D
:105390000F91FF90EF90DF90CF90BF90AF909F90D4
:1053A0008F907F906F905F904F903F902F900895D7
:1053B0001F93CF93DF93613110F010E010C0162FD0
:1053C000EC010E9432288823C1F3612FCE010E9494
:1053D0005926182F882389F3CE010E942027812F78
:1053E000DF91CF911F910895FC0162810C94D8291F
:1053F00061E083E00E94FB2061E087E00E94FB20E7
:1054000060E086E00E94FB2061E084E00E94FB20D7
:1054100061E085E00C94FB2027E030E080E093B170
:1054200096FB442740F950E0BA01022E01C0660FF6
:105430000A94EAF7862B2F9A2F982150310978F792
:10544000089587E090E070E09B01082E02C035953A
:1054500027950A94E2F720FF02C02D9A01C02D98EB
:105460002F9A25B115B8019778F70895EF92FF921A
:105470001F93CF93DF931F92CDB7DEB77C01162F1A
:10548000FC016083718385B115B86381C70179839D
:105490000E94212AF7016281C7010E94212A798195
:1054A000672FC7010E94212A612FC7010E94212A6C
:1054B0002C9A0F90DF91CF911F91FF90EF9008955C
:1054C000EF92FF921F93CF93DF9300D0CDB7DEB75B
:1054D0007C01162FFC0160834283518385B115B88E
:1054E000652FC70149837A830E94212A4981642F4D
:1054F000C7010E94212A7A81672FC7010E94212AB1
:10550000612FC7010E94212A2C9A0F900F90DF91E2
:10551000CF911F91FF90EF9008951F93CF93DF934A
:10552000EC01162F61E083E00E941C21CE010E9455
:105530000C2A8883CE010E940C2A8983CE010E9406
:105540000C2A8A8360E083E00E941C21C10FD11DD8
:105550008881DF91CF911F9108950F931F93CF936F
:105560008C0161E083E00E941C21C8010E940C2A8A
:10557000C82FC8010E940C2A182F60E083E00E9407
:105580001C218C2F90E0912BCF911F910F910895AA
:105590001F920F920FB60F9211240BB60F922F93FA
:1055A0003F934F935F936F937F938F939F93AF93AB
:1055B000BF93EF93FF93E0916D0EF0916E0E0995FE
:1055C000FF91EF91BF91AF919F918F917F916F91DB
:1055D0005F914F913F912F910F900BBE0F900FBE97
:1055E0000F901F901895FC01A3E0440F551F661FF4
:1055F000771FAA95D1F74115510581E0680771051C
:1056000014F481E00EC033E0759567955795479582
:105610003A95D1F74115510581E0680771051CF4F1
:1056200082E0828331C023E0759567955795479551
:105630002A95D1F74115510581E06807710514F4E9
:1056400083E0EFCF92E075956795579547959A95CA
:10565000D1F74115510581E06807710514F484E024
:10566000E0CF82E075956795579547958A95D1F774
:1056700085E082834115510581E06807710524F0BA
:105680004FEF5FEF60E070E08FB78383F894518352
:105690004083509387004093860083818FBF809121
:1056A0008100887F80938100909181008281892B85
:1056B0008093810008951092800020E12093810062
:1056C0000C94F32AEFE6F0E080818E7F80830895CA
:1056D000E1E8F0E02081DC0112968C91822B80833E
:1056E00008950F931F93CF93DF93EC018B01BA01C1
:1056F000A901141615061606170614F40E94F32ABB
:105700001D830C8381E080936F00CE01DF91CF91E8
:105710001F910F910C94682B1092FC0F81E08093E5
:10572000FA0F1092F90F61E081E10E941C2161E003
:1057300080E10E941C21E9EBF0E080818E7F808374
:1057400080818D7F808388E48093B80085E4809396
:10575000BC000895413808F03FC09091FC0F9111B2
:10576000FCCF91E09093FC0F2093FA0F2FEF209342
:105770006F0E1092740F240F2093730F9093FB0FF2
:105780009091FB0F880F892B8093FB0F8091F90F6D
:10579000813041F41092F90F8091FB0F8093BB0090
:1057A00085EC01C085EE8093BC008091FC0F8130B8
:1057B000E1F38091740F841710F44091740F25E782
:1057C0003FE0FB01D9018A2F821B841718F48D91C9
:1057D0008193F9CF842F089580E008950F93413885
:1057E00008F046C09091FC0F9111FCCF32E030934D
:1057F000FC0F0093FA0F3FEF30936F0E1092740F6F
:105800004093730FFB0165E77FE0DB013A2F361B06
:10581000341718F431913D93F9CF1092FB0F30916A
:10582000FB0F880F832B8093FB0F8091F90F813042
:1058300041F41092F90F8091FB0F8093BB0085EC2F
:1058400001C085EE8093BC00222321F08091FC0FE3
:105850008230D1F380916F0E8F3F79F080916F0E7F
:10586000803241F080916F0E803331F094E005C0BA
:1058700091E003C092E001C093E0892F0F91089559
:10588000613898F42091FC0F243089F46093F10E74
:10589000FC0123EF3EE0D9018A2F821B861718F402
:1058A00081918D93F9CF80E0089581E0089582E0A1
:1058B000089585ED8093BC008091BC0084FDFCCFF1
:1058C0001092FC0F089585EC8093BC001092FC0FA1
:1058D00008951F920F920FB60F9211240BB60F92DC
:1058E0002F933F934F935F936F937F938F939F93E8
:1058F000AF93BF93EF93FF938091B900887F803679
:1059000009F49CC068F5883209F45BC090F48031DA
:1059100009F454C038F4882309F4F4C0883009F439
:105920004DC0F4C0883109F44CC0803209F45DC028
:10593000EDC0803409F468C048F4803309F455C0E0
:10594000883309F0E3C080936F0EA7C0803509F457
:105950004FC0883509F45DC0883409F0D7C0D4C081
:10596000883909F4C5C0A8F4883709F467C038F449
:10597000883609F463C0803709F460C0C7C088382E
:1059800009F4B6C0803909F45FC0803809F0BEC0A0
:105990005BC0803B09F484C038F4803A09F465C0E8
:1059A000883A09F47DC0B2C0803C09F4A5C0883CA7
:1059B00009F4A2C0883B09F488C0A8C08091FB0FFD
:1059C00010C09091740F8091730F981770F5E0914B
:1059D000740F81E08E0F8093740FF0E0EB58F04F5E
:1059E00080818093BB0085EC84C080936F0E8CC057
:1059F000E091740F81E08E0F8093740F8091BB0053
:105A0000F0E0EB58F04F80839091740F8091730F0A
:105A10006CC0E091740F81E08E0F8093740F8091C1
:105A2000BB00F0E0EB58F04F80838091FA0F8111BA
:105A30006BC081E08093F90F84EA5FC083E08093BC
:105A4000FC0F1092700ECFCF8091700E87FD50C06A
:105A5000E091700E81E08E0F8093700E8091BB00FC
:105A6000F0E0EF58F14F8083BECF8091700E87FD3C
:105A700006C0E091700EF0E0EF58F14F10820E94E6
:105A8000592C6091700E70E0E091F50FF091F60FD7
:105A900081E79EE009951092700E0E94632C36C03B
:105AA00084E08093FC0F1092F20E1092F10EE091C0
:105AB000F70FF091F80F09958091F10E811105C053
:105AC00081E08093F10E1092F30EE091F20E81E0EE
:105AD0008E0F8093F20EF0E0ED50F14F80818093B5
