:100000000C9489000C94B4000C94B4000C94B400CB
:100010000C94B4000C94B4000C94B4000C94DE0D59
:100020000C94B4000C94B4000C94B4000C94B40080
:100030000C94B4000C94B4000C94B4000C94F2240E
:100040000C94B4000C94B4000C94FD2B0C94B400EC
:100050000C94962D0C942C2E0C94B4000C94B4009B
:100060000C94B4000C94B4000C9440230C94B40091
:100070000C94CF2D0C94792E0C94B4000C94B400F5
:100080000C94B4000C94B4000C94B4000000210053
:10009000240027002A0000002200250028002B0051
:1000A00000002000230026002900020202020202B2
:1000B000020204040404040404040303030303030A
:1000C00003030101010101010101010204081020E3
:1000D0004080010204081020408001020408102022
:1000E000408001020408102040800000000102004E
:1000F00008090000000004030706000000000000DB
:1001000000000000000000000000DC21BE27F42FEA
:10011000C32711241FBECFEFD0E4DEBFCDBF15E053
:10012000A0E0B1E0EEECF4E600E00BBF02C0079007
:100130000D92A636B107D9F71BBE1FE0A6E6B5E0C3
:1001400001C01D92AA3FB107E1F711E0C0E1D1E083
:1001500004C02297FE010E945632CA30D107C9F767
:100160000E948A300C945A320C9400008BE390E089
:1001700090935A098093590984E290E090935C0926
:1001800080935B0986E290E090935E0980935D091D
:1001900089E290E09093600980935F098BE290E0A0
:1001A00090936209809361098FE290E090936409D3
:1001B0008093630985E290E09093660980936509D6
:1001C00087E290E0909368098093670988E390E064
:1001D00090936A098093690981E390E090936C0998
:1001E00080936B098EE290E090936E0980936D0985
:1001F0008AE290E09093700980936F098CE390E01D
:1002000090937209809371098EE390E09093740942
:100210008093730980E490E0909376098093750948
:1002200081E490E090937809809377090895089588
:100230005D9A81E0809371051092EC0880937205BD
:1002400008955D98109271051092ED0885B1887F30
:1002500085B908951092E4081092E206E091E4084E
:100260008091E508F0E0EE0FFF1FE80FF11DEC5163
:10027000F94F808180934D068F5F809304018150F8
:10028000982F92959F709093D9068F7080934C060B
:100290000895A0916805AA2329F0A23019F0A13091
:1002A00009F080C1709171058091FD08772309F4F0
:1002B00057C0882341F1809189054091E908E09178
:1002C000ED08F0E0EE0FFF1FE80FF11DEE0FFF1F2E
:1002D000ED5AF94F242F30E080819181BC01269F97
:1002E000C001279F900D369F900D11242091530936
:1002F00030915409822B932B9093FB088093FA083A
:100300004423E1F14DC08091FC08882309F44CC0DE
:10031000809189054091E908E091ED08F0E0EE0F49
:10032000FF1FE80FF11DEE0FFF1FED5AF94F242FAD
:1003300030E080819181BC01269FC001279F900DF4
:10034000369F900D11242091FF0830910009822BD7
:10035000932B9093FB088093FA08442319F120C053
:10036000882371F080915309909154099093FB0870
:100370008093FA088091E908882391F480E8E7C027
:100380008091FC08882381F08091FF0890910009FA
:100390009093FB088093FA088091E908882311F074
:1003A00080E0D5C080E4D3C08091FD08882309F0A7
:1003B000CFC06091DC06E091DD066E17B0F421E05D
:1003C00030E0C9010E2E02C0880F991F0A94E2F78F
:1003D000AC0141505040482B592B02C0220F331F13
:1003E0006A95E2F7215030401CC0E61728F040E043
:1003F00050E020E030E015C081E090E0AC010E2E2E
:1004000002C0440F551F0A94E2F74150504002C009
:10041000880F991F6A95E2F79C0121503040282BE4
:10042000392B80917D05772341F58823E1F4809174
:10043000E90870914C06EF3F59F490E002C0880F34
:10044000991F7A95E2F79093FB088093FA084FC0C2
:100450004227532790E002C0880F991F7A95E2F750
:100460004827592740C081E090E00090D90602C09B
:10047000880F991F0A94E2F765C0882309F04DC0E0
:100480008091E9086091ED0870914C06EF3FA9F466
:10049000282F30E002C0220F331F6A95E2F781E077
:1004A00090E002C0880F991F7A95E2F72827392734
:1004B0003093FB082093FA081AC042275327282FAD
:1004C00030E06F7002C0220F331F6A95E2F780910F
:1004D000EA0890E002C0880F991F7A95E2F7282772
:1004E0003927422753275093FB084093FA0820915D
:1004F0007C0580917B05882311F040E401C040E831
:1005000030E02E5F3F4F81E090E002C0880F991FDE
:100510002A95E2F7480F48B91BC08091E90890E09E
:100520000090ED0802C0880F991F0A94E2F721E0BD
:1005300030E00090D90602C0220F331F0A94E2F780
:10054000822793279093FB088093FA088CEF88B951
:10055000E0918905F0E0EB52F94FE081E03179F06C
:10056000E13118F4EC3081F405C0E83131F0E032CB
:1005700059F407C010927C0507C081E003C082E0F7
:1005800001C083E080937C059091ED08892F805114
:100590008F3E18F010927B0505C0903118F081E075
:1005A00080937B05A33009F0DDC0E0918905F0E080
:1005B000EB52F94FE081E03179F0E13118F4EC30A1
:1005C00089F405C0E83131F0E03261F409C01092DD
:1005D0007C0508C081E001C082E080937C0502C0F8
:1005E000A0937C05E0918905F0E0ED52F94F808100
:1005F0008131A0F080910301882381F08091ED0882
:1006000090917B05803130F0992341F481E0809313
:100610007B0504C0913011F410927B0580917C051C
:1006200050917B05552311F040E401C040E890E073
:10063000029621E030E0B90102C0660F771F8A956B
:10064000E2F7460F48B980917105882309F46AC022
:100650006091ED085523F9F4E09189058091E9084E
:1006600090E002C0880F991F6A95E2F72091670514
:10067000F0E074E0EE0FFF1F7A95E1F7E20FF11D55
:10068000EE0FFF1FEE0FFF1FE657FA4F208131815B
:100690008227932742C0603140F1513031F5E0911B
:1006A00089052091E90830E0862F90E0409702C04C
:1006B000220F331F8A95E2F780916705F0E054E03E
:1006C000EE0FFF1F5A95E1F7E80FF11DEE0FFF1F28
:1006D000EE0FFF1FE457FA4F8081918128273927B9
:1006E0003093FB082093FA0808956031D8F5513013
:1006F000C9F5E091890580916705F0E034E0EE0FDF
:10070000FF1F3A95E1F7E80FF11DEE0FFF1FEE0F07
:10071000FF1FE457FA4F808191819093FB088093EB
:10072000FA08089580917D05882371F00090D9061C
:1007300002C0220F331F0A94E2F73093FB08209384
:10074000FA088CEF88B908958091E90890E000904C
:100750004C0602C0880F991F0A94E2F79093FB0899
:100760008093FA08089580917D05882351F081E0F7
:1007700090E00090D90602C0880F991F0A94E2F712
:100780000FC0809171052091E90840914C068823A3
:1007900061F4822F90E002C0880F991F4A95E2F71A
:1007A0009093FB088093FA0815C030E00090ED08A4
:1007B00002C0220F331F0A94E2F781E090E002C0EA
:1007C000880F991F4A95E2F7282739273093FB08AD
:1007D0002093FA0880916805873019F08091E2062D
:1007E00002C08091E4088F70880F880F88B908953F
:1007F0000F931F93CF93DF9380910501882309F412
:10080000CEC01092050160E070E0809189058823D8
:1008100019F482E090E002C080E090E0FB01EE0F6E
:10082000FF1FEE0FFF1FE80FF91FED5AF94F11825E
:10083000108240E050E08B01000F111F809189056C
:10084000A0E0B0E0882311F4A1E0B0E08091890538
:10085000E801CA0FDB1FCC0FDD1FCD5AD94F88230B
:1008600019F480E490E002C080E090E0FA01EE0F1D
:10087000FF1FEE0FFF1FE80FF91FE657FA4F8081A9
:100880009181062E02C0969587950A94E2F78170B1
:100890009070042E02C0880F991F0A94E2F7A00FEF
:1008A000B11FAA0FBB1FAD5AB94F2D913C918227A2
:1008B0009327998388834F5F5F4F4031510509F03B
:1008C000BDCF6F5F7F4F6031710509F09ECF60E053
:1008D00070E09B01205F3F4F80918905882319F4C8
:1008E00082E090E002C080E090E0F901EE0FFF1F8F
:1008F000EE0FFF1FE80FF91FED5AF94F118210821A
:1009000040E050E08901000F111F80918905E0E06F
:10091000F0E0882311F4E1E0F0E080918905E8013E
:10092000CE0FDF1FCC0FDD1FCD5AD94FDA01AA0F32
:10093000BB1F1196882319F480E490E002C080E088
:1009400090E0AA0FBB1FA80FB91FA657BA4F8D91F1
:100950009C91062E02C0969587950A94E2F78170C5
:100960009070042E02C0880F991F0A94E2F7E00FDE
:10097000F11FEE0FFF1FED5AF94F208131818227C1
:100980009327998388834F5F5F4F4031510509F06A
:10099000BCCF6F5F7F4F6031710509F09ACF8091B6
:1009A0005106882309F4A2C01092510660E070E05D
:1009B000809189059B01220F331FF901E80FF11D7A
:1009C000EE0FFF1FED5AF94F1182108240E050E008
:1009D000E90180918905E0918905DE01A80FB11D2B
:1009E000AA0FBB1FAD5AB94FF0E004E0EE0FFF1F96
:1009F0000A95E1F7E40FF51FEE0FFF1FEE0FFF1F43
:100A0000E657FA4F80819181062E02C09695879510
:100A10000A94E2F781709070042E02C0880F991F2B
:100A20000A94E2F72D913C911197822793278D9399
:100A30009C934F5F5F4F4031510559F66F5F7F4F79
:100A40006031710509F0B4CF40E050E0405F5F4F86
:100A500020918905CA01880F991F40515040FC011F
:100A6000E20FF11DEE0FFF1FED5AF94F11821082B8
:100A700060E070E0EC0180918905E0918905DE017C
:100A8000A80FB11DAA0FBB1FAD5AB94FF0E004E08B
:100A9000EE0FFF1F0A95E1F7E60FF71FEE0FFF1F9E
:100AA000EE0FFF1FE457FA4F80819181042E02C0A0
:100AB000969587950A94E2F781709070062E02C091
:100AC000880F991F0A94E2F72D913C911197822784
:100AD00093278D939C936F5F7F4F6031710559F61B
:100AE0004F5F5F4F4031510509F0B0CF80917105E4
:100AF000882371F48091DA06882351F0809189056A
:100B000090E0882309F491E0909389051092DA0629
:100B1000DF91CF911F910F9108950E94F80380916A
:100B2000F1088823E9F11092F1088091710588237A
:100B3000A9F08091E808882389F08091E206882353
:100B400069F490E08091E508882309F491E090939E
:100B5000E5081092E80881E0809305011092F10801
:100B6000E091E2068091E508F0E0EE0FFF1FE80F4C
:100B7000F11DEC51F94F208120934D06322F329513
:100B80003F703093D906832F90E0B4E0880F991F0F
:100B9000BA95E1F7281B20934C0681E0809305016C
:100BA00080917105882331F480918205882311F0AA
:100BB0000E942A0108950F931F93CF93DF9360E063
:100BC00070E080918905882319F482E090E002C0EA
:100BD00080E090E0FB01EE0FFF1FEE0FFF1FE80F1C
:100BE000F91FED5AF94F1182108240E050E08B015D
:100BF000000F111F80918905A0E0B0E0882311F457
:100C0000A1E0B0E080918905E801CA0FDB1FCC0F9D
:100C1000DD1FCD5AD94F882319F480E490E002C03B
:100C200080E090E0FA01EE0FFF1FEE0FFF1FE80FCC
:100C3000F91FE657FA4F80819181062E02C09695E2
:100C400087950A94E2F781709070042E02C0880F95
:100C5000991F0A94E2F7A00FB11FAA0FBB1FAD5A4C
:100C6000B94F2D913C9182279327998388834F5FB9
:100C70005F4F4031510509F0BDCF6F5F7F4F60314D
:100C8000710509F09ECF60E070E09B01205F3F4F4F
:100C900080918905882319F482E090E002C080E009
:100CA00090E0F901EE0FFF1FEE0FFF1FE80FF91F95
:100CB000ED5AF94F1182108240E050E08901000F97
:100CC000111F80918905E0E0F0E0882311F4E1E054
:100CD000F0E080918905E801CE0FDF1FCC0FDD1F0A
:100CE000CD5AD94FDA01AA0FBB1F1196882319F4E8
:100CF00080E490E002C080E090E0AA0FBB1FA80F44
:100D0000B91FA657BA4F8D919C91062E02C0969599
:100D100087950A94E2F781709070042E02C0880FC4
:100D2000991F0A94E2F7E00FF11FEE0FFF1FED5A33
:100D3000F94F2081318182279327998388834F5FE0
:100D40005F4F4031510509F0BCCF6F5F7F4F60317D
:100D5000710509F09ACFDF91CF911F910F910895FE
:100D6000CF93DF930E94F80388EC99E00E94DB2088
:100D7000EC018091870590918805C817D90751F03B
:100D80000E94452C6093F2087093F3088093F40856
:100D90009093F5080E94452C2091F2083091F308B9
:100DA0004091F4085091F508621B730B840B950B6E
:100DB000653071058105910508F444C08091850571
:100DC00090918605C817D907E9F1D0938605C0939D
:100DD000850580917D058823A1F020E030E0CE01DB
:100DE000022E02C0959587950A94E2F780FF03C012
:100DF0002093D90613C02F5F3F4F2031310579F77B
:100E000018C020E030E0CE01022E02C095958795F3
:100E10000A94E2F780FF08C020934C0681E080939B
:100E200005018093500605C02F5F3F4F20313105EB
:100E300051F78091D9068295807F90914C06890F59
:100E400080934D06D0938805C093870580918005D7
:100E5000882391F080918105882371F481E080934B
:100E600081058091E4088F5F8093E4088091E40815
:100E70008F3F11F41092E408809150064091E508EC
:100E8000882391F0E091E408F0E0EE0FFF1FE40FFB
:100E9000F11DEC51F94F80914D0680831092500660
:100EA00081E08093E70832C0E091E40850E0F0E090
:100EB000EE0FFF1FE40FF51FEC51F94F2081229533
:100EC0002F702093D906E091E408822F90E0F4E09F
:100ED000880F991FFA95E1F7F0E0EE0FFF1FE40F7E
:100EE000F51FEC51F94F2081281B20934C06E0910F
:100EF000E408F0E0EE0FFF1FE40FF51FEC51F94F8F
:100F0000808180934D0681E0809305018091830567
:100F1000882389F080918405882369F491E0909377
:100F200084058091E408E091E508F0E0E85FFE4F79
:100F300080839093E70880918205882311F00E94B6
:100F40002A0180917105882371F48091E808882333
:100F500051F090E08091E508882309F491E09093A6
:100F6000E5081092E808DF91CF9108954F925F92C3
:100F70006F927F928F929F92AF92BF92CF92DF92A9
:100F8000EF92FF920F931F93CF93DF930E94F8038A
:100F900088EC99E00E94DB208C018091870590917C
:100FA00088050817190751F00E94452C6093F20834
:100FB0007093F3088093F4089093F5080E94452CF1
:100FC0002091F2083091F3084091F4085091F5080F
:100FD000621B730B840B950B6530710581059105C0
:100FE00008F4B5C180918505909186050817190709
:100FF00009F4A8C11093860500938505C3E0D9E0E4
:1010000043E359E0A3E1B9E020E030E01882C801F1
:10101000022E02C0969587950A94E2F7982F917058
:10102000F901ED5DF64F9083FA018081981739F050
:101030008C91882319F4913009F498839C93FA01D8
:101040009193AF012F5F3F4F2196119620313105CB
:10105000E9F670916805772329F0723019F0713044
:1010600009F0F6C06091FD08662309F45FC0909016
:10107000FE082091530930915409C3E4D9E040E0BF
:1010800050E0F1E0CF2ED12CE12CF12CE1E0AE2E9E
:10109000B12C88248394942FFA01ED5FF64F808160
:1010A0008823C9F1992091F09501042E02C0220FE6
:1010B000331F0A94E2F720953095E3E4F9E081923A
:1010C00089E0E335F807D9F7188203C088818F5F7C
:1010D00088838881813019F08230E9F40CC02601C0
:1010E000370104C0440C551C661C771C9A95D2F736
:1010F0002429352910C02601370104C0440C551C91
:10110000661C771C9A95D2F7D301C2018095909501
:101110002823392318824F5F5F4F219640315105B4
:1011200009F0B9CF30935409209353098091FC08FA
:101130008823B1F0109300090093FF08E09189051E
:10114000F0E0EB52F94F808190E08F709070892B26
:1011500021F481E0809302097BC01092020978C0DB
:10116000662309F075C080917D058823B9F020E0E1
:1011700030E0C801022E02C0959587950A94E2F7E7
:1011800080FF06C02093D90681E08093050160C0EE
:101190002F5F3F4F2031310561F75AC09091DB0638
:1011A0006091DD064091DC0620E030E0522FF9012D
:1011B000ED5FF64F8081882381F09F5F913021F4AD
:1011C000909305016FEF0AC0923039F44093DC062A
:1011D0002093DD061092DB060EC0542F2F5F3F4F89
:1011E0002031310511F0452FE1CF9093DB0660935C
:1011F000DD065093DC062091DC069091DD06921707
:1012000028F49F3F19F09093DE0602C02093DE067B
:1012100081E0809305018091DE0680934C069F3F1C
:1012200019F41092DF0614C0892F90E0821B9109F7
:1012300097FF03C0909581959F4F8093DF0691E0C3
:101240009093E00680917105882311F09093E10658
:10125000733009F07CC08091710590917D058823E1
:1012600009F446C020917B05992311F1422F429544
:10127000407F4F5F5091D70620E030E0C801022E3A
:1012800002C0959587950A94E2F780FF09C0E09126
:101290008905F0E0ED52F94F842F820F808351E0F1
:1012A0002F5F3F4F2031310549F75093D7064FC08C
:1012B00081E08093510680935206E0918905F0E029
:1012C0008091670544E0EE0FFF1F4A95E1F7E80FB4
:1012D000F11DEE0FFF1FE20FF11DEE0FFF1FE6578E
:1012E000FA4F8081918180279127918380832FC03D
:1012F0009923A1F020E030E0C801022E02C09595AC
:1013000087950A94E2F780FF03C02093D9061FC097
:101310002F5F3F4F2031310579F719C020E030E0D1
:10132000C801022E02C0959587950A94E2F780FFC6
:1013300003C020934C060BC02F5F3F4F2031310577
:1013400079F705C00115110511F41092DB068091A3
:10135000DF06882381F08091F108882361F0809175
:10136000E2069091DE06890F80934C0681E080931F
:1013700005011092F10880917105882389F410927B
:10138000E1068091E006882359F01092E006109261
:10139000F1088091DE0680934C0681E08093050180
:1013A00010938805009387058091D9068295807FE8
:1013B00090914C06890F80934D0680917E0588237D
:1013C00009F45DC080916805833009F043C0209125
:1013D000ED0880916705203188F4E0918905F0E0FF
:1013E00094E0EE0FFF1F9A95E1F7E80FF11DEE0F65
:1013F000FF1FEE0FFF1FE657FA4F13C0E09189055C
:10140000F0E004E0EE0FFF1F0A95E1F7E80FF11D91
:10141000EE0FFF1FEE0FFF1FE457FA4F30E0205191
:10142000304081E090E0A0E0B0E004C0880F991F58
:10143000AA1FBB1F2A95D2F78095909520813181F4
:10144000822393239183808381E08093510680934C
:10145000520615C0882321F0823011F0813079F4D2
:101460008091FD08882359F0109254091092530975
:10147000E3E4F9E0119289E0E335F807D9F7DF9169
:10148000CF911F910F91FF90EF90DF90CF90BF9081
:10149000AF909F908F907F906F905F904F90089546
:1014A000CF93DF9388EC99E00E94DB20EC018091E0
:1014B000870590918805C817D90751F00E94452CDF
:1014C0006093F2087093F3088093F4089093F50802
:1014D0000E94452C2091F2083091F3084091F408C5
:1014E0005091F508621B730B840B950B65307105E9
:1014F0008105910588F18091850590918605C81731
:10150000D90751F1D0938605C093850580917D055B
:10151000882311F520E030E0CE01022E02C095951F
:1015200087950A94E2F780FF12C02093570981E063
:101530008093580981E090E0022E02C0880F991F25
:101540000A94E2F79093FB088093FA0805C02F5F96
:101550003F4F2031310501F7D0938805C0938705AF
:10156000DF91CF910895809155099091560994FF8C
:1015700004C08EE060E00E94622D80915509909138
:10158000560995FF04C081E060E00E94622D8091C1
:1015900055099091560996FF04C080E060E00E94D2
:1015A000622D0895209189058091530990915409E5
:1015B0008095909580709071E091ED08F0E0EE0FCD
:1015C000FF1FE20FF11DEE0FFF1FED5AF94F2081B3
:1015D000318182239323892B21F08EE060E00E94E9
:1015E000622D20918905809153099091540980952D
:1015F000909580709072E091ED08F0E0EE0FFF1F83
:10160000E20FF11DEE0FFF1FED5AF94F20813181DE
:1016100082239323892B21F081E060E00E94622DD8
:101620002091890580915309909154098095909556
:1016300080709074E091ED08F0E0EE0FFF1FE20F74
:10164000F11DEE0FFF1FED5AF94F208131818223EA
:101650009323892B21F080E060E00E94622D0895A1
:101660008EE061E00E94622D81E061E00E94622DC7
:1016700080E061E00E94622D089588E160E00E94B0
:10168000622D89E161E00E94622D90B19695969558
:101690009F709093E30690936705809107018917E7
:1016A00029F081E08093E6089093070188E161E0EA
:1016B0000E94622D89E160E00E94622D80B18695D2
:1016C00086958F708093680508958130C9F08130C8
:1016D00018F08230C1F52AC010927005F89410926B
:1016E00073008BE69CE06DE67FE02FEF3FEF4FEF5E
:1016F0005FEF0E9499258AB180638AB97894089532
:1017000080937005F8948BE69CE00E94B8258AB11E
:101710008F7C8AB98091680088608093680080918E
:1017200073008063809373007894089580937005AC
:10173000F894109273008BE69CE00E94B8258AB161
:1017400080638AB9789408950F931F9388B183704A
:1017500088B988EC99E060E070E00E949C2001E785
:101760001CE0C80160E870E00E940D26C80160E935
:1017700070E00E940D26C80168EF70E00E940D26FF
:10178000C8016AEF70E00E940D26C8016CEF70E09E
:101790000E940D261F910F9108950F931F93162FEE
:1017A000042F80E888B98CE291E00E94AC2C18B834
:1017B00080917D05882361F0E0916705F0E0EE0FF0
:1017C000FF1FE75AF64F1083118281E08093790959
:1017D000612F70E08091590990915A096817790733
:1017E00009F46FC080915B0990915C0968177907D3
:1017F00009F467C080915D0990915E0968177907C7
:1018000009F45FC080915F099091600968177907BA
:1018100009F457C0809161099091620968177907AE
:1018200009F44FC0809163099091640968177907A2
:1018300009F447C080916509909166096817790796
:1018400009F43FC08091670990916809681779078A
:10185000C1F18091690990916A096817790789F146
:1018600080916B0990916C096817790751F180910B
:101870006D0990916E096817790719F180916F09C8
:101880009091700968177907E1F080917109909142
:10189000720968177907A9F080917309909174090A
:1018A0006817790771F0809175099091760968172A
:1018B000790739F08091770990917809681779074D
:1018C000C9F50436D0F081E090E0A0E0B0E080936C
:1018D0007A0990937B09A0937C09B0937D0980914C
:1018E0005509909156098160909356098093550946
:1018F000A9E5B9E0E0E0F0E003C00023C9F71AC0B1
:101900008D919C9111976817790779F4EE0FFF1F5D
:10191000EE0FFF1FE658F64F81E090E0A0E0B0E048
:1019200080839183A283B38305C031961296E03100
:10193000F10531F71F910F9108950E94300B5C9AC9
:1019400080ED97E00E94AC2C5C988091FC08882385
:10195000F9F080910109E0910209F0E0EE0FFF1F1C
:10196000EE0FFF1FE80FF11DE65FFE4F60816695E9
:1019700066958091EC0890E070E00E94F031892B30
:1019800039F48091FF0890910009892B09F02A9A77
:101990008091EE086091FA087091FB08882309F1A4
:1019A0002A9A80918905E091ED08F0E0EE0FFF1F83
:1019B000E80FF11DEE0FFF1FED5AF94F409153094B
:1019C0005091540940955095808191814823592325
:1019D00088EC99E00E94BC200E94D20A1092EE0886
:1019E00008C04091FF085091000988EC99E00E94DE
:1019F000BC202091EC082F5F2093EC089091EB081D
:101A00009F5F9093EB0880917105882309F4AAC029
:101A10009C3050F01092EB0890E08091EA08882307
:101A200009F491E09093EA08233018F01092E90845
:101A300003C081E08093E908809172058823F1F06A
:101A40002A9AE09189056091FA087091FB08F0E00C
:101A5000EE0FFF1FED5AF94F409153095091540971
:101A600040955095808191814823592388EC99E0D5
:101A70000E94BC200E94D20A10927205E091890552
:101A8000F0E0EB52F94F8081869586959091EC08B5
:101A9000981708F489C01092EC084091ED084F5F48
:101AA0004093ED08E0918905242F30E0F0E0ED52FD
:101AB000F94F808190E0019728173907B9F581E047
:101AC0008093F10820916805222321F0223011F043
:101AD0002130A9F48091E2068F5F8093E206909115
:101AE000E2068091DF06891710F41092E2068091D9
:101AF000E106882321F01092E1061092E2062430DC
:101B000021F0263011F0253089F48091E2068F5FB4
:101B10008093E2069091E206E091E508F0E0E85F4C
:101B2000FE4F8081981710F01092E20681E08093BA
:101B3000EE08E0918905F0E0ED52F94F80814817F9
:101B400098F11092ED088091DA06882369F180916E
:101B5000890590E0882309F491E09093890510921B
:101B6000DA0622C09C3050F01092EB0890E0809191
:101B7000E908882309F491E09093E90880916805C9
:101B8000882321F0823011F0813011F41092E206A6
:101B9000843021F0863011F0853031F48091820557
:101BA000882311F01092E20685B1887F85B90895E7
:101BB000682F8BED9FE00E94B82F08951F920F921F
:101BC0000FB60F920BB60F9211242F933F934F93A2
:101BD0005F936F937F938F939F93AF93BF93EF9395
:101BE000FF930E94300B4C9B63C180917105882349
:101BF00009F45EC185B1887F85B98091FC0888238E
:101C0000F9F080910109E0910209F0E0EE0FFF1F69
:101C1000EE0FFF1FE80FF11DE65FFE4F6081669536
:101C200066958091EC0890E070E00E94F031892B7D
:101C300039F48091FF0890910009892B09F02A9AC4
:101C40008091EE086091FA087091FB08882301F1F9
:101C500080918905E091ED08F0E0EE0FFF1FE80F9D
:101C6000F11DEE0FFF1FED5AF94F409153095091AE
:101C7000540940955095808191814823592388ECDF
:101C800099E00E94BC200E94D20A1092EE0808C07F
:101C90004091FF085091000988EC99E00E94BC2017
:101CA0008091EB088C3050F01092EB0890E080911E
:101CB000EA08882309F491E09093EA088091EC08FF
:101CC000833018F01092E90803C081E08093E9089E
:101CD00080917205882319F18AEF0E94D80D109225
:101CE000EC082A9AE09189056091FA087091FB0846
:101CF000F0E0EE0FFF1FED5AF94F4091530950915C
:101D0000540940955095808191814823592388EC4E
:101D100099E00E94BC200E94D20A1092720588EFBE
:101D20000E94D80D9091EC089F5F9093EC088091F1
:101D3000EB088F5F8093EB08E0918905F0E0EB52B0
:101D4000F94F808186958695981709F0B3C0109257
:101D5000EC084091ED084F5F4093ED08E091890554
:101D6000242F30E0F0E0ED52F94F808190E00197B0
:101D700028173907B9F581E08093F10820916805AB
:101D8000222321F0223011F02130A9F48091E206C3
:101D90008F5F8093E2069091E2068091DF068917BB
:101DA00010F41092E2068091E106882321F010924F
:101DB000E1061092E206243021F0263011F02530A1
:101DC00089F48091E2068F5F8093E2069091E206AB
:101DD000E091E508F0E0E85FFE4F8081981710F091
:101DE0001092E20681E08093EE082A9AE09189053C
:101DF000F0E0ED52F94F8081481708F45BC0109273
:101E0000ED088091DA06882309F454C08091890591
:101E100090E0882309F491E0909389051092DA0606
:101E200049C080917105882309F044C080917605EE
:101E3000882329F08CEF0E94D80D109276058091AE
:101E40006805882321F0823011F0813011F410925E
:101E5000E206843021F0863011F0853031F4809133
:101E60008205882311F01092E20688EF0E94D80DB7
:101E70001092ED081092EC086091FA087091FB083E
:101E800088EC99E040E050E00E94BC208091EB0893
:101E90008F5F8093EB088C3068F01092EB0890E035
:101EA0008091E908882309F491E09093E90802C041
:101EB0004C99B7CFFF91EF91BF91AF919F918F91C7
:101EC0007F916F915F914F913F912F910F900BBE3A
:101ED0000F900FBE0F901F9018950E94300B8091AD
:101EE000FC088823E9F080910109E0910209F0E003
:101EF000EE0FFF1FEE0FFF1FE80FF11DE65FFE4F15
:101F000060818091EC0890E070E00E94F031892BB4
:101F100039F48091FF0890910009892B09F02A9AE1
:101F20008091EE082091FF08309100096091FA0835
:101F30007091FB08882319F180918905E091ED08E3
:101F4000F0E0EE0FFF1FE80FF11DEE0FFF1FED5A3F
:101F5000F94F409153095091540940955095808113
:101F6000918148235923422B532B88EC99E00E94FE
:101F7000BC200E94D20A1092EE082A9A05C088EC72
:101F800099E0A9010E94BC202091EC082F5F2093CA
:101F9000EC089091EB089F5F9093EB08809171059E
:101FA000882309F4B4C0903350F01092EB0890E00D
:101FB0008091EA08882309F491E09093EA082C3094
:101FC00018F01092E90803C081E08093E90880913D
:101FD0007205882359F08AEF0E94D80D1092EC0800
:101FE0005D9A5C980E94D20A1092720580917305E6
:101FF000882309F4D1C08091EC08813009F0CCC06D
:102000002A9AE09189056091FA087091FB08F0E046
:10201000EE0FFF1FED5AF94F4091530950915409AB
:1020200040955095808191814823592388EC99E00F
:102030000E94BC20109273059CC01092EC08409145
:10204000ED084F5F4093ED08E0918905242F30E0C3
:10205000F0E0ED52F94F808190E0019728173907A1
:10206000B9F581E08093F10820916805222321F0E1
:10207000223011F02130A9F48091E2068F5F809325
:10208000E2069091E2068091DF06891710F4109223
:10209000E2068091E106882321F01092E106109279
:1020A000E206243021F0263011F0253089F48091A9
:1020B000E2068F5F8093E2069091E206E091E508E8
:1020C000F0E0E85FFE4F8081981710F01092E20672
:1020D00091E09093EE08E0918905F0E0ED52F94F20
:1020E0008081481708F445C01092ED089093F008DD
:1020F0008091DA068823E9F18091890590E08823B0
:1021000009F491E0909389051092DA0632C080912B
:102110007605882329F08CEF0E94D80D1092760561
:1021200080916805882321F0823011F0813011F40C
:102130001092E206843021F0863011F0853031F4BF
:1021400080918205882311F01092E2061092ED082A
:102150001092EF085D988091EB08803350F0109258
:10216000EB0890E08091E908882309F491E09093CE
:10217000E9088091EC0890E080FF05C04C9902C00E
:102180005C9A01C05C9883709070019719F488EF95
:102190000E94D80D2A980895E0918905F0E0EB524D
:1021A000F94F9091EC088081981708F046CFE1CF65
:1021B0001F9380918205882309F456C010E025C042
:1021C000479A2A9A6091FA087091FB0888EC99E086
:1021D00042E050E00E94BC2068EC70E080E090E0BB
:1021E0000E94532C47982A986091FA087091FB0836
:1021F00088EC99E040E050E00E94BC2064E670E08A
:1022000080E090E00E94532C1F5F8091000118171E
:10221000B8F210E025C0469A2A9A6091FA087091A7
:10222000FB0888EC99E040E850E00E94BC2068EC94
:1022300070E080E090E00E94532C46982A986091CC
:10224000FA087091FB0888EC99E040E050E00E94A9
:10225000BC2064E670E080E090E00E94532C1F5F99
:10226000809166051817B8F2109282051F910895A3
:10227000EF92FF920F931F93CF93DF9300E010E054
:10228000C0E0D0E031E0E32EF12CC7010C2E02C0FB
:10229000880F991F0A94E2F7082B192B88EC99E014
:1022A000B8010E949C206EE170E080E090E00E9406
:1022B000532C2196C031D10541F788EC99E060E0BC
:1022C00070E00E949C20DF91CF911F910F91FF90B1
:1022D000EF900895EF92FF920F931F937C0101ED11
:1022E0001AE0C80160E570E00E94A221C8016F2DCC
:1022F0000E942422C8016E2D0E9424221F910F915A
:10230000FF90EF9008950F931F9380E292E50E9453
:102310006A1101ED1AE0C801609157090E94242258
:10232000C8010E94672265E070E080E090E00E94B2
:10233000532C1F910F910895CF93DF9380917909CA
:102340008823E1F01092790980E192E50E946A11F8
:10235000C9E5D9E081ED9AE068810E9424222296A5
:1023600089E0C937D807B1F781ED9AE00E9467226A
:1023700065E070E080E090E00E94532CDF91CF9107
:1023800008951F9380914D0690E056E0880F991FA5
:102390005A95E1F70E946A1110E081ED9AE060E041
:1023A0000E94242281ED9AE060E00E94242281EDC7
:1023B0009AE060E00E94242281ED9AE060E00E94B1
:1023C00024221F5F103149F781ED9AE00E946722B5
:1023D00065E070E080E090E00E94532C80914D0613
:1023E00090E08050904E880F991F0E946A1181EDF5
:1023F0009AE060E10E94242281ED9AE068E10E9467
:10240000242281ED9AE00E94672265E070E080E07E
:1024100090E00E94532C1F9108951F93CF93DF9358
:1024200080914D0690E076E0880F991F7A95E1F74C
:102430000E946A11CAE0D6E06881198181ED9AE0B4
:102440000E94242281ED9AE0612F0E9424226A8159
:102450001B8181ED9AE00E94242281ED9AE0612F98
:102460000E942422249686E0CA34D80729F781EDF9
:102470009AE00E94672265E070E080E090E00E94B0
:10248000532C80914D0690E08050904E880F991FFC
:102490000E946A1181ED9AE060914A060E9424220E
:1024A00081ED9AE060914B060E94242281ED9AE032
:1024B0000E94672265E070E080E090E00E94532C6B
:1024C000DF91CF911F910895CF93DF9388EC99E02E
:1024D0000E94DB20EC018091870590918805C81748
:1024E000D90751F00E94452C6093F2087093F308CD
:1024F0008093F4089093F5080E94452C2091F208EF
:102500003091F3084091F4085091F508621B730B69
:10251000840B950B653071058105910508F442C067
:102520008091850590918605C817D907D9F1D09378
:102530008605C093850580917D058823A1F420E060
:1025400030E0CE01022E02C0959587950A94E2F7FD
:1025500080FF03C020934C0613C02F5F3F4F2031F4
:10256000310579F716C020E030E0CE01022E02C01E
:10257000959587950A94E2F780FF06C02093D906C7
:1025800081E08093050105C02F5F3F4F2031310569
:1025900061F78091D9068295807F90914C06890FD2
:1025A00080934D06D0938805C09387058091780568
:1025B000882381F080910501882321F480916B05A7
:1025C000882341F01092050110926B050E940D12B4
:1025D0000E943811DF91CF9108951F93CF93DF931D
:1025E0008091040190E076E0880F991F7A95E1F7D9
:1025F0000E946A11C0E0D0E0A0918905E0918905B0
:10260000F0E064E0EE0FFF1F6A95E1F7EC0FFD1FAD
:10261000EE0FFF1FEE0FFF1FE657FA4F1181B0E0DC
:1026200044E0AA0FBB1F4A95E1F7AC0FBD1FAA0FEC
:10263000BB1FAA0FBB1FA657BA4F81ED9AE06C9142
:102640000E94242281ED9AE0612F0E942422A09111
:102650008905E0918905F0E024E0EE0FFF1F2A953F
:10266000E1F7EC0FFD1FEE0FFF1FEE0FFF1FE4570A
:10267000FA4F1181B0E084E0AA0FBB1F8A95E1F701
:10268000AC0FBD1FAA0FBB1FAA0FBB1FA457BA4F89
:1026900081ED9AE06C910E94242281ED9AE0612FF5
:1026A0000E9424222196C031D10509F0A5CF81EDE9
:1026B0009AE00E94672265E070E080E090E00E946E
:1026C000532C8091040190E08050904E880F991F08
:1026D0000E946A11E0918905F0E0ED52F94F81ED19
:1026E0009AE060810E942422E0918905F0E0EB529B
:1026F000F94F81ED9AE060810E94242281ED9AE0F9
:102700000E94672265E070E080E090E00E94532C18
:10271000DF91CF911F91089580E292E50E946A11A6
:1027200081ED9AE00E94672281ED9AE060E570E019
:1027300041E050E00E94782281ED9AE00E94B521AC
:1027400080935709803110F0109257090895CF9364
:10275000DF9380E192E50E946A1181ED9AE00E9488
:10276000672281ED9AE060E570E040E150E00E9470
:102770007822C9E5D9E081ED9AE00E94B5218993DC
:10278000999389E0C937D807B1F7DF91CF910895C0
:10279000CF92DF92EF92FF920F931F93CF93DF932D
:1027A00080914D0690E006E0880F991F0A95E1F7A9
:1027B0000E946A1181ED9AE00E94672281ED9AE001
:1027C00060E570E040E450E00E947822C0E0D0E094
:1027D0001091890581ED9AE00E94B521082F81EDC5
:1027E0009AE00E94B521112319F420E430E002C0E0
:1027F00020E030E0FE01EE0FFF1FEE0FFF1FE20FA3
:10280000F31FE657FA4FF82EEE24C701800F911DF3
:10281000918380831091890581ED9AE00E94B52112
:10282000082F81ED9AE00E94B521FE01EE0FFF1FF7
:102830003196112319F420E430E002C020E030E0AA
:10284000EE0FFF1FE20FF31FE657FA4FD82ECC24EE
:10285000C601800F911D918380832196C031D105DF
:1028600009F0B6CF80914D0690E08050904E880FD1
:10287000991F0E946A1181ED9AE00E94672281ED02
:102880009AE060E570E042E050E00E94782210910A
:10289000890581ED9AE00E94B521E0E0F0E0112386
:1028A00011F4E1E0F0E0ED52F94F808310918905D9
:1028B00081ED9AE00E94B521E0E0F0E0112311F4EF
:1028C000E1E0F0E0EB52F94F808380914D06809378
:1028D000040180917105882331F081E08093DA064C
:1028E0008093050110C00E94DB058091890590E06E
:1028F000882309F491E0909389051092DA061092EA
:10290000050110925106DF91CF911F910F91FF9019
:10291000EF90DF90CF900895CF93DF9388EC99E00C
:102920000E94DB20EC018091870590918805C817F3
:10293000D90751F00E94452C6093F2087093F30878
:102940008093F4089093F5080E94452C2091F2089A
:102950003091F3084091F4085091F508621B730B15
:10296000840B950B653071058105910508F442C013
:102970008091850590918605C817D907D9F1D09324
:102980008605C093850580917D058823A1F420E00C
:1029900030E0CE01022E02C0959587950A94E2F7A9
:1029A00080FF03C020934C0613C02F5F3F4F2031A0
:1029B000310579F716C020E030E0CE01022E02C0CA
:1029C000959587950A94E2F780FF06C02093D90673
:1029D00081E08093050105C02F5F3F4F2031310515
:1029E00061F78091D9068295807F90914C06890F7E
:1029F00080934D06D0938805C0938705909104017C
:102A000080914D06981721F00E94C81310924F062E
:102A100080917805882309F45DC080914F06882352
:102A200049F080910501882329F480916A05882363
:102A300009F450C010926A0510920501AAE0B6E0B0
:102A400020E030E0E0918905F0E054E0EE0FFF1F58
:102A50005A95E1F7E20FF31FEE0FFF1FEE0FFF1F76
:102A6000E657FA4F8081918111969C938E93E09165
:102A70008905F0E094E0EE0FFF1F9A95E1F7E20F71
:102A8000F31FEE0FFF1FEE0FFF1FE457FA4F808179
:102A9000918113969C938E9312972F5F3F4F1496BC
:102AA0002031310579F6E0918905F0E0ED52F94FDA
:102AB000808180934A06E0918905F0E0EB52F94F5E
:102AC000808180934B060E94381181E080934F06ED
:102AD00010920501DF91CF910895809152068130C7
:102AE00041F08091D706813021F08091D806813065
:102AF00091F480917105882331F09091680580915F
:102B00000101981741F40E94ED12109252061092A2
:102B1000D7061092D8069091040180914D0698171F
:102B200011F00E94C81308952F923F924F925F9226
:102B30006F927F928F929F92AF92BF92CF92DF92CD
:102B4000EF92FF920F931F93DF93CF93CDB7DEB732
:102B50002A970FB6F894DEBF0FBECDBF80917F05D8
:102B6000882309F46CC110927F05F5E12F2EF1E066
:102B70003F2E1E821D828824992420E030E43C836D
:102B80002B831A82198289819A810E946A11C40159
:102B9000E5E0880F991FEA95E1F7880D991D880FE8
:102BA000991F895E9E4F9A878987F101EE5BFF4FDF
:102BB000F887EF83F0E18F1691048CF5E985FA85AB
:102BC000408051806280738020E030E040E050E837
:102BD000EE24FF24870161E0A62EB12CC12CD12C5C
:102BE00060E070E0DA01C90184219521A621B721B6
:102BF00082179307A407B50721F4EA28FB280C29BC
:102C00001D2956954795379527956F5F7F4F603201
:102C1000710541F0AA0CBB1CCC1CDD1CE3CFEE24DB
:102C2000FF24870181ED9AE06E2D0E94242281ED20
:102C30009AE06F2D0E94242281ED9AE0602F0E947D
:102C40002422212F33274427552781ED9AE0622F34
:102C50000E94242229853A852C5F3F4F3A87298795
:102C60008F8198852817390709F0A4CF81ED9AE064
:102C70000E94672265E070E080E090E00E94532CA3
:102C80008B819C810E946A1190E1891691045CF409
:102C900081ED9AE0F10160810E94242281ED9AE0A9
:102CA000F101618108C081ED9AE060E10E94242277
:102CB00081ED9AE068E10E94242281ED9AE00E9471
:102CC000672265E070E080E090E00E94532CC40130
:102CD000A4E095958795AA95E1F721E030E002C040
:102CE000220F331F8A95E2F7ED81FE81E22BF32B51
:102CF000FE83ED8388EC99E0BF010E949C2008943C
:102D0000811C911C2B813C812E5F3F4F3C832B8388
:102D100089819A81805C9F4F9A83898390E089168C
:102D200091E0990619F029843A842DCF64E670E089
:102D300080E090E00E94532C88EC99E060E070E025
:102D40000E949C20AA24BB24CC24DD24F0EC6F2E0E
:102D5000F2E47F2EE1E08E2E912C70E4E72E7FEFDF
:102D6000F72EE60CF71CC7010E946A1110E081EDF6
:102D70009AE060E00E9424221F5F1034C1F781EDC9
:102D80009AE00E94672265E070E080E090E00E9497
:102D9000532CE614F70429F0E0E4F0E0EE0EFF1EF9
:102DA000E2CFC60180509E4A0E946A1181ED9AE0EE
:102DB00064E00E94242281ED9AE00E94672265E08F
:102DC00070E080E090E00E94532CC4010C2C02C003
:102DD000880F991F0A94E2F7A82AB92A88EC99E08B
:102DE000B5010E949C200894C11CD11C612C61E09B
:102DF000762E6E0C7F1CF0E1CF16D10409F0ADCF1A
:102E000064E670E080E090E00E94532C88EC99E04A
:102E100060E070E00E949C200E94B60081E08093F8
:102E200079090E949C11109257090E9483111092F7
:102E30004C061092D90610924D060E94C8131092AB
:102E40007F052A960FB6F894DEBF0FBECDBFCF9197
:102E5000DF911F910F91FF90EF90DF90CF90BF9087
:102E6000AF909F908F907F906F905F904F903F902A
:102E70002F900895CF92DF92EF92FF920F931F93BE
:102E8000CF93DF938091E30690E08E5B9F4FD82E27
:102E9000CC2400E010E0C8018C0D9D1D0E946A1139
:102EA00081ED9AE00E94672281ED9AE060E570E092
:102EB00040E450E00E947822C0E0D0E0EE24FF24FD
:102EC0008091E508882319F4B1E0EB2EF12C81ED17
:102ED0009AE00E94B521FE01E00FF11FEE0FFF1FE7
:102EE000EE0DFF1DEC51F94F80832196C034D105C2
:102EF00029F7003C110519F0005C1F4FCCCF8091E1
:102F0000E30690E080509E4A0E946A1181ED9AE0AB
:102F10000E94672281ED9AE060E570E041E050E0B8
:102F20000E947822C0E0D0E08091E508882311F467
:102F3000C1E0D0E081ED9AE00E94B521C85FDE4F8C
:102F400088838091E3068093060180917105882330
:102F500031F081E08093E8088093E6080EC090E0AD
:102F60008091E508882309F491E09093E508109298
:102F7000E8080E942A010E94C813DF91CF911F9197
:102F80000F91FF90EF90DF90CF900895EF92FF9216
:102F90000F931F93CF93DF938091060190E08E5B98
:102FA0009F4FF82EEE2400E010E0C8018E0D9F1D0B
:102FB0000E946A11C0E0D0E08091E508FE01E00FB8
:102FC000F11FEE0FFF1FE80FF11DEC51F94F81EDDE
:102FD0009AE060810E9424222196C034D10561F7D5
:102FE00081ED9AE00E94672265E070E080E090E069
:102FF0000E94532C81E00030180719F0005C1F4F2D
:10300000D4CF8091060190E080509E4A0E946A11C0
:10301000E091E508F0E0E85FFE4F8CEB9FE0608117
:103020004AE050E00E946A31E091E508F0E0E85F94
:10303000FE4F81ED9AE060810E94242281ED9AE0AA
:103040000E94672265E070E080E090E00E94532CCF
:10305000DF91CF911F910F91FF90EF900895809194
:103060000601803190F48091E608882321F4809154
:103070008405882351F08091E708882331F00E946D
:10308000C6171092E6081092E70890910601809109
:10309000E306981711F00E943A1708951F93809144
:1030A000680585508230C8F499B190728091020110
:1030B000981799F0992351F081E0809372058093DD
:1030C0007305809374058093710505C01092710596
:1030D00081E0809376059093020188EC99E062E0AC
:1030E0000E942521182F80917A05181751F00E940F
:1030F000452C6093F6087093F7088093F808909336
:10310000F9080E94452C2091F6083091F70840916B
:10311000F8085091F908621B730B840B950B65300E
:1031200071058105910508F454C08091790518173F
:1031300009F44FC01093790580916805843011F02F
:103140008730D9F41130C9F4809177058F5F80936F
:103150007705813049F4109371051093720510932F
:103160007305109374050FC0823069F410927105D5
:10317000109277051093760506C0123021F481E095
:1031800080937D0508C010927D05143021F481E004
:10319000809380050AC01092800510928105183036
:1031A00021F481E0809383050AC010928305109278
:1031B0008405103121F481E08093820508C01092CB
:1031C0008205103221F481E080937E0502C01092C6
:1031D0007E0510937A051F9108951F9388EC99E05E
:1031E00062E00E942521182F80917A05181751F06E
:1031F0000E94452C6093F6087093F7088093F808B6
:103200009093F9080E94452C2091F6083091F70818
:103210004091F8085091F908621B730B840B950BD1
:10322000653071058105910528F1809179051817A0
:1032300009F110937905113019F41093780508C03D
:1032400010927805123021F481E080937D0508C04A
:1032500010927D05133021F481E080937F0508C032
:1032600010927F05103121F481E08093820502C025
:103270001092820510937A051F910895CF93DF93E2
:103280000E94ED1888EC99E00E94DB20EC0180910F
:10329000870590918805C817D90751F00E94452CE1
:1032A0006093F2087093F3088093F4089093F50804
:1032B0000E94452C2091F2083091F3084091F408C7
:1032C0005091F508621B730B840B950B65307105EB
:1032D0008105910508F442C080918505909186058D
:1032E000C817D907D9F1D0938605C0938505809179
:1032F0007D058823A1F420E030E0CE01022E02C03B
:10330000959587950A94E2F780FF03C020934C06B9
:1033100013C02F5F3F4F2031310579F716C020E0F1
:1033200030E0CE01022E02C0959587950A94E2F70F
:1033300080FF06C02093D90681E08093050105C077
:103340002F5F3F4F2031310561F78091D90682957B
:10335000807F90914C06890F80934D06D09388050D
:10336000C09387059091040180914D06981721F034
:103370000E94C81310924E0680917805882319F197
:1033800080914E06882341F080910501882321F425
:10339000809169058823B9F01092690510920501A2
:1033A0000E94C1110E94381181E080934E068091E5
:1033B000890590E0882309F491E0909389050E94A3
:1033C000C81310920501DF91CF9108951F9380914A
:1033D00070058823A9F099B1907280910201981725
:1033E00079F0992331F081E0809372058093710523
:1033F00005C01092710581E08093760590930201DB
:1034000088EC99E062E00E942521182F80917A05CE
:10341000181751F00E94452C6093F6087093F70836
:103420008093F8089093F9080E94452C2091F608A3
:103430003091F7084091F8085091F908621B730B1E
:10344000840B950B653071058105910508F460C00A
:1034500080917905181709F45BC01093790518302D
:1034600009F1103129F1113041F58091700588235F
:1034700021F5809177058F5F80937705813049F43E
:1034800010937105109372051093730510937505D1
:1034900014C0823091F41092710510927705109348
:1034A00076050BC081E08093FC081092FD0805C0F2
:1034B00081E08093FD081092FC088091FD08813026
:1034C00021F08091FC08813041F480917D058130AC
:1034D00021F41092FD081092FC08123021F481E0D2
:1034E00080937D0508C010927D05103221F481E0A3
:1034F00080937E050BC010927E05103139F48091C7
:10350000FD08813019F48093FE0802C01092FE0875
:1035100010937A051F9108951F9388EC99E062E05B
:103520000E942521182F80917A05181751F00E94CA
:10353000452C6093F6087093F7088093F8089093F1
:10354000F9080E94452C2091F6083091F708409127
:10355000F8085091F908621B730B840B950B6530CA
:1035600071058105910508F48CC0809179051817C3
:1035700009F487C010937905143069F1153020F4EF
:10358000113009F063C007C0183009F458C0103179
:1035900009F05CC058C080910101882319F0833084
:1035A00009F065C0809177058F5F80937705813042
:1035B00039F480937105809372058093730557C029
:1035C000823009F054C0109271051092770581E0A5
:1035D000809376054CC081E08093D80680917C056D
:1035E0008F5F80937C05843011F410927C0580916C
:1035F0007C05813071F0813028F0823089F0833091
:10360000B1F515C0E0918905F0E0EB52F94F8CE07F
:1036100014C0E0918905F0E0EB52F94F88E10DC04C
:10362000E0918905F0E0EB52F94F80E106C0E091AE
:103630008905F0E0EB52F94F80E2808318C081E009
:1036400080937B0514C010927B0511C0183149F49A
:1036500090E080910301882309F491E090930301A5
:1036600006C0123021F481E080937D0508C01092DD
:103670007D05103221F481E080937E0502C0109216
:103680007E0510937A051F9108958091FD08882387
:1036900009F0A8C090917E05913009F09BC08091FF
:1036A000C609882309F09EC09093C6098091BE097F
:1036B0009091BF09A091C009B091C1098093C2093E
:1036C0009093C309A093C409B093C5098091BA0926
:1036D0009091BB09A091BC09B091BD098093BE092E
:1036E0009093BF09A093C009B093C1090E94452CD3
:1036F0006093BA097093BB098093BC099093BD098C
:103700004091BE095091BF09641B750BCB01895CC8
:1037100090408351954028F060E070E020E030E078
:1037200003C09B0161E070E08091C2099091C309E0
:10373000481B590BCA01895C90408351954020F485
:10374000240F351F6F5F7F4F6115710509F44AC063
:10375000C9010E94043280E69AEE0E94F031709313
:103760001401609313016832710530F488E290E02F
:10377000909314018093130180911301909114018F
:103780008D52914030F08CE291E09093140180933F
:1037900013012091130130911401220F331F220FC6
:1037A000331F30936D0520936C0540E050E060EAD4
:1037B00075E286E290E00E94393230936F052093E3
:1037C0006E0540E050E08BE69CE0BA01A9010E9442
:1037D00091250895992331F48091C609813011F41F
:1037E0001092C6090895DF93CF93CDB7DEB76097E7
:1037F0000FB6F894DEBF0FBECDBFDE011196E5E334
:10380000F5E080E101900D928150E1F790B1929541
:103810009695969593708091C709880F880F982B7D
:103820009093C7099F70FE01E90FF11D918180916E
:10383000FC08882381F5992371F1892F992787FD49
:10384000909520916C0530916D05281B390B283C13
:10385000310518F428EC30E006C083E0293E380733
:1038600010F028EE33E030936D0520936C0540E0B6
:1038700050E060EA75E286E290E00E9439323093CF
:103880006F0520936E0540E050E08BE69CE0BA01A6
:10389000A9010E94912560960FB6F894DEBF0FBE75
:1038A000CDBFCF91DF9108958CE0EAEBF9E0DF0125
:1038B0001D928A95E9F71092C6090895AF92BF92BA
:1038C000CF92DF92EF92FF920F931F93DF93CF93EC
:1038D000CDB7DEB760970FB6F894DEBF0FBECDBF91
:1038E000DE011196E5E3F5E080E101900D92815053
:1038F000E1F780B182958695869583709091C7098E
:10390000990F990F892B8093C7098F70FE01E80FDB
:10391000F11D9181992309F44AC08091FC08882304
:1039200009F445C080911201891B11F461E004C0C3
:10393000682F8F3108F06EE1609312018091680565
:10394000262F30E040E050E0882339F400D000D04A
:1039500083E090E0A0E0B0E006C000D000D082E0BC
:1039600090E0A0E0B0E0EDB7FEB781839283A3833F
:10397000B483CA01B90120E030E040E050E0EEE15C
:10398000EE2EF12C012D112DAA24BB2465010E94DD
:103990008831609301090F900F900F900F908CEB7E
:1039A0009FE0609112014AE050E00E946A31609607
:1039B0000FB6F894DEBF0FBECDBFCF91DF911F9140
:1039C0000F91FF90EF90DF90CF90BF90AF90089550
:1039D0000E943D0B90916805963009F437C29730EC
:1039E000A0F4923009F479C0933030F4992319F19E
:1039F000913009F032C350C0943009F4E9C180918C
:103A00000101953008F00AC2ABC09B3009F4DAC05E
:103A10009C3038F4973009F4BDC1983009F01DC3CB
:103A200054C29E3009F472C19F3009F42CC19D30FC
:103A300009F013C3E5C0809101018823B9F080919A
:103A40007105882399F4109201010E94A40B80E073
:103A50000E94650B8091FD08882311F01092FD08EB
:103A600010925409109253090E94541C8091010134
:103A7000823029F481E79CE00E94C12B04C0813090
:103A800011F00E94F31B0E94E6190E945E1C0E9426
:103A9000E6190E94451B8FC0809101018130A9F079
:103AA00080917105882389F4909301010E94A40BF1
:103AB00081E00E94650B8091FD08882311F010922F
:103AC000FD08109254091092530980910101882336
:103AD000C9F1823009F03FC03AC0809101018230C3
:103AE00069F180917105882349F5909301010E9445
:103AF000A40B82E00E94650B8091FD08882311F0E1
:103B00001092FD0881E79CE06DE97CE00E94F525BC
:103B100081E79CE068E171E00E94FB2581E79CE081
:103B200068E171E00E94012681E79CE061E271E0BA
:103B30000E940726109254091092530980910101A6
:103B4000882319F40E94F31B06C0813021F081E71D
:103B50009CE00E94C12B0E94E6190E945E1C2BC0B3
:103B60008330C1F0809171058823A1F483E08093B4
:103B700001010E94A40B80E00E94650B8091FD086A
:103B8000882311F01092FD081092540910925309E5
:103B90001092FC0880910101882311F0833019F400
:103BA0000E94F31B06C0823021F481E79CE00E9452
:103BB000C12B0E948C1A0E94B6070E946D150E94AC
:103BC00049010895809101018B3099F09093010192
:103BD0000E94A40B82E00E94650B809171058823EE
:103BE00041F0109271058CEF0E94D80D5D981092F3
:103BF00077050E94ED180E94D8100E949415089530
:103C0000809101018D30B1F0909301010E94A40BCD
:103C100082E00E94650B81E08093690580917105C7
:103C2000882341F0109271058CEF0E94D80D5D98A9
:103C3000109277050E94ED1880917D05882381F40C
:103C400061E070E000904C0602C0660F771F0A9496
:103C5000E2F788EC99E00E949C2088B183700FC045
:103C600061E070E00090D90602C0660F771F0A94E9
:103C7000E2F788EC99E00E949C2088B18C6F88B9AB
:103C80000E943E190895809101018F30B1F0909308
:103C900001010E94A40B82E00E94650B81E08093E9
:103CA0006A0580917105882341F0109271058CEFAF
:103CB0000E94D80D5D98109277050E94ED188091B2
:103CC0007D05882381F461E070E000904C0602C01D
:103CD000660F771F0A94E2F788EC99E00E949C2017
:103CE00088B183700FC061E070E00090D90602C017
:103CF000660F771F0A94E2F788EC99E00E949C20F7
:103D000088B18C6F88B90E948C140895809101014C
:103D10008F30B9F08FE0809301010E94A40B82E004
:103D20000E94650B81E080936B058091710588236B
:103D300041F0109271058CEF0E94D80D5D981092A1
:103D400077050E94ED1880917D05882381F461E05C
:103D500070E000904C0602C0660F771F0A94E2F7ED
:103D600088EC99E00E949C2088B183700FC061E0CC
:103D700070E00090D90602C0660F771F0A94E2F740
:103D800088EC99E00E949C2088B18C6F88B90E94D1
:103D90006412089580910101873099F09093010198
:103DA0000E94A40B80E00E94650B8091710588231E
:103DB00041F0109271058CEF0E94D80D5D98109221
:103DC00077050E94F31B0E944E180E94B00676C031
:103DD000809101018430A9F0909301010E94A40B0D
:103DE00080E00E94650B80917105882341F010925C
:103DF00071058CEF0E94D80D5D98109277050E9496
:103E0000541C0E94F31B0E944E180E94451B0E94E6
:103E10002F180E946D150E948D0554C0853009F43D
:103E200049C085E0809301010E94A40B81E00E94BB
:103E3000650B809171058823E9F1109271058CEF73
:103E40000E94D80D5D981092770534C080910101D1
:103E5000853061F185E0809301010E94A40B82E02E
:103E60000E94650B80917105882341F010927105C5
:103E70008CEF0E94D80D5D981092770581E79CE049
:103E80006DE97CE00E94F52581E79CE068E171E046
:103E90000E94FB2581E79CE068E171E00E94012619
:103EA00081E79CE061E271E00E94072681E79CE0E7
:103EB0000E94C12B0E944E180E948D050E946D1514
:103EC0000E942F180E94B303089580910101883049
:103ED00009F454C09093010188B1837088B90E949D
:103EE000A40B82E00E94650B81E79CE06DEC7BE017
:103EF0000E94EF2581E79CE067E171E00E94E925DF
:103F0000609157096F5F81E79CE00E94E6258091F0
:103F10007105882341F0109271058CEF0E94D80D35
:103F20005D98109277050E948C136091570981E08B
:103F300090E0062E02C0880F991F0A94E2F7909332
:103F4000FB088093FA086F5F81E79CE00E94E625FA
:103F50006091FA087091FB0888EC99E040E050E02D
:103F60000E94BC20EAE7F9E011921192119211929D
:103F700089E0EA3AF807C1F70E94A71381E79CE0BD
:103F80000E94C12BEAE7F9E060E020E030E040E089
:103F900050E080819181A281B38181309105A1059A
:103FA000B10579F4022E04C0880F991FAA1FBB1F08
:103FB0000A94D2F7482B592B108211821282138255
:103FC00061E02F5F3F4F34962031310511F7409368
:103FD000550950935609662389F06091FA0870914B
:103FE000FB0888EC99E00E94BC202A9A8AE090E0C5
:103FF0000E94AC2C2A980E94B30A10C088EE93E06D
:104000000E94AC2C6091FA087091FB0888EC99E052
:1040100040E050E00E94BC200E94300B0E94ED184E
:104020000E94500A809158098823A9F0609157098D
:104030006F5F81E79CE00E94E6256091FA0870912D
:10404000FB0888EC99E040E050E00E94BC200E9410
:104050008311109258090E949C11089581B18360C8
:1040600081B987B18C6F87B9569A8EE061E00E9462
:10407000FE2C81E061E00E94FE2C80E061E00E9465
:10408000FE2C82E061E00E94FE2C80EE91E0909395
:104090006D0580936C0588E594E190936F0580939E
:1040A0006E058BE69CE048E554E160E070E00E941C
:1040B00091258CEB9FE040E052EC61E070E00E94C3
:1040C000C62E81E79CE060E00E94C62B0E94B600ED
:1040D00088EC99E00E948D2181ED9AE00E947C227B
:1040E00080E8EAE8F5E0DF011D928A95E9F780E0D3
:1040F00092E0E4EEF6E0DF019C011D922150304099
:10410000E1F70E94C813089527E030E070E0CB018A
:10411000022E02C0959587950A94E2F780FF02C0AF
:104120002D9A01C02D982F9A2F98215030408FEF53
:104130002F3F380761F70895EF92FF920F931F9377
:104140008C017B01FC016083F1822C9863810E94C9
:104150008420C801F80162810E948420C8016F2D6B
:104160000E948420C8016E2D0E9484202C9A1F91E9
:104170000F91FF90EF9008950F931F938C01FC0116
:1041800060837183428353832C98652F0E9484201F
:10419000C801F80162810E948420C801F801618190
:1041A0000E948420C801F80160810E9484202C9A1A
:1041B0001F910F9108950F931F9383E061E00E9478
:1041C000622D00E027E030E083B190E056E0959565
:1041D00087955A95E1F781709070022E02C0880F82
:1041E000991F0A94E2F7082B2F9A2F9821503040FC
:1041F0008FEF2F3F380741F710E027E030E083B121
:1042000090E046E0959587954A95E1F7817090702A
:10421000022E02C0880F991F0A94E2F7182B2F9ADA
:104220002F98215030408FEF2F3F380741F783E020
:1042300060E00E94622D912F80E0202F30E0282B3B
:10424000392BC9011F910F9108951F93CF93DF93CD
:10425000EC01162F83E061E00E94622D40E027E030
:1042600030E083B190E056E0959587955A95E1F757
:1042700081709070022E02C0880F991F0A94E2F795
:10428000482B2F9A2F98215030408FEF2F3F38071F
:1042900041F7488340E027E030E083B190E0B6E0AA
:1042A00095958795BA95E1F781709070022E02C0BE
:1042B000880F991F0A94E2F7482B2F9A2F982150C4
:1042C00030408FEF2F3F380741F7498340E027E028
:1042D00030E083B190E0A6E095958795AA95E1F747
:1042E00081709070022E02C0880F991F0A94E2F725
:1042F000482B2F9A2F98215030408FEF2F3F3807AF
:1043000041F74A8383E060E00E94622DC10FD11D16
:104310008881DF91CF911F91089583E061E00E9431
:10432000FE2C87E061E00E94FE2C86E060E00E94A7
:10433000FE2C84E061E00E94FE2C85E061E00E949A
:10434000FE2C089581E08093D00A60934D0A10926C
:10435000CE0A1092CF0A089520914C0A30E0809145
:104360004B0A281B3109C901089540914B0A8091DD
:104370004C0A481718F02FEF3FEF0AC0E42FF0E087
:10438000E553F64F8081282F30E04F5F40934B0A72
:10439000C9010895E0914B0A80914C0AE81718F082
:1043A000EFEFFFEF06C0F0E0E553F64F8081E82F16
:1043B000F0E0CF01089508951092D40A1092D30A24
:1043C00088EE93E0A0E0B0E08093D50A9093D60AFF
:1043D000A093D70AB093D80A89E495E09093D20AC3
:1043E0008093D10A0895CF92DF92EF92FF920F93BC
:1043F0001F93CF93DF937C016B018A018091D00AD8
:104400008823A1F0C0E0D0E00DC0D701ED91FC9170
:10441000D601AC0FBD1F0190F081E02DC7016C915A
:1044200009952196C017D10780F304C0CB01642FF2
:104430000E942523C801DF91CF911F910F91FF901A
:10444000EF90DF90CF900895DF93CF930F92CDB789
:10445000DEB7FC0169838091D00A8823C9F080917E
:10446000CF0A87FF07C081E090E09383828320E03A
:1044700030E015C08091CE0AE82FF0E0E25BF54F06
:10448000998190838F5F8093CE0A8093CF0A05C075
:10449000CE01019661E00E94252321E030E0C901B0
:1044A0000F90CF91DF9108950F93062F80914D0AC1
:1044B0006EE47AE04091CF0A21E00E94D02210926F
:1044C000CE0A1092CF0A1092D00A0F91089561E09F
:1044D0000E9454220895413808F040E8862F6BEC82
:1044E00079E00E94872210924B0A80934C0A08952B
:1044F00021E00E946B22089510924B0A10924C0A00
:104500001092CE0A1092CF0A0E94D4240895382F18
:10451000413810F040E042C08091DD0A8823E1F785
:1045200091E09093DD0A2093DF0A8FEF80936A0C6D
:104530001092650B41504093660B4F5F9093DE0ADB
:104540008091DE0A330F832B8093DE0A8091E00A8C
:10455000813041F41092E00A8091DE0A8093BB0022
:1045600085EC01C085EE8093BC008091DD0A81302E
:10457000E1F38091650B841710F44091650B20E006
:1045800030E00AC0FB01E20FF31FD901AB51B54F78
:104590008C9180832F5F3F4F2417A0F3842F0895C1
:1045A0000F931F93582F122F413810F081E04AC00B
:1045B0008091DD0A8823E1F782E08093DD0A009391
:1045C000DF0A8FEF80936A0C1092650B4093660BA5
:1045D000A5EEBAE0FB0102C081918D938E2F861B60
:1045E0008417D0F31092DE0A8091DE0A550F852BD6
:1045F0008093DE0A8091E00A813041F41092E00A53
:104600008091DE0A8093BB0085EC01C085EE80932B
:10461000BC00112321F08091DD0A8230E1F380910A
:104620006A0C8F3F11F480E00DC080916A0C8032DB
:1046300011F482E007C080916A0C803311F084E0AD
:1046400001C083E01F910F910895482F613810F049
:1046500081E008958091DD0A843011F082E00895B0
:104660006093E80BA7E6BBE0842F9C01F90102C030
:1046700081918D938E2F841B8617D0F380E008954F
:104680001F920F920FB60F920BB60F9211242F9319
:104690003F934F935F936F937F938F939F93AF93CA
:1046A000BF93EF93FF938091B90090E0887F907063
:1046B0008036910509F4F2C081369105CCF5883237
:1046C000910509F47BC089329105B4F480319105DC
:1046D00009F46FC0813191053CF4009709F446C19B
:1046E000089709F04EC165C08831910509F466C08C
:1046F000809709F046C182C08034910509F4A4C0B6
:104700008134910544F48033910509F482C0C8973F
:1047100009F037C189C08035910509F489C0883511
:10472000910509F496C08834910509F02AC1AEC0FC
:104730008839910509F412C189399105ECF488375B
:10474000910509F4ABC0893791054CF48836910581
:1047500009F4A4C08037910509F013C19FC08838BF
:10476000910509F4FBC08039910509F49DC080389A
:10477000910509F006C198C0803B910509F4C5C0B8
:10478000813B91054CF4803A910509F49EC0883A2A
:10479000910509F0F6C0B9C0803C910509F4E2C06A
:1047A000883C910509F4DEC0883B910509F0E9C019
:1047B000C1C08091DE0A8093BB00CEC09091650B92
:1047C0008091660B981768F49091650BE92FF0E0E3
:1047D000EB51F54F80818093BB009F5F9093650BF9
:1047E000BBC08091DF0A882309F44BC085ED80931C
:1047F000BC008091BC0084FDFCCFC1C080E28093EE
:104800006A0C85ED8093BC008091BC0084FDFCCFD8
:10481000B6C080E380936A0C85ED8093BC008091E4
:10482000BC0084FDFCCFABC088E380936A0C9AC0C7
:104830008091650B9091BB00E82FF0E0EB51F54FB4
:1048400090838F5F8093650B9091650B8091660BD1
:1048500081C08091650B9091BB00E82FF0E0EB5197
:10486000F54F90838F5F8093650B8091DF0A8823DB
:1048700041F085ED8093BC008091BC0084FDFCCFAD
:104880007EC081E08093E00A84EA6DC085ED80936C
:10489000BC008091BC0084FDFCCF71C083E080939C
:1048A000DD0A1092690C58C08091690C87FD56C0D2
:1048B0008091690C9091BB00E82FF0E0E751F44F34
:1048C00090838F5F8093690C47C08091690C87FD4E
:1048D00006C0E091690CF0E0E751F44F108285EDDD
:1048E0008093BC008091BC0084FDFCCF1092DD0A57
:1048F0006091690CE091E30AF091E40A89EE9BE093
:1049000070E009951092690C2DC084E08093DD0A57
:104910001092E70B1092E80BE091E10AF091E20AA5
:1049200009958091E80B882329F481E08093E80BB6
:104930001092670B9091E70BE92FF0E0E959F44FE3
:1049400080818093BB009F5F9093E70B9091E70B72
:104950008091E80B981710F485EC01C085E88093EE
:10496000BC000FC085EC8093BC0009C010926A0C9B
:1049700085ED8093BC008091BC0084FDFCCF10923B
:10498000DD0AFF91EF91BF91AF919F918F917F9140
:104990006F915F914F913F912F910F900BBE0F90B0
:1049A0000FBE0F901F9018951092DD0A81E0809342
:1049B000DF0A1092E00A81E161E00E94622D80E14D
:1049C00061E00E94622DE9EBF0E080818E7F8083C0
:1049D00080818D7F808388E48093B80085E4809314
:1049E000BC0008951F920F920FB60F920BB60F9254
:1049F00011242F933F934F935F936F937F938F93E4
:104A00009F93AF93BF93EF93FF93E0916F0CF0915F
:104A1000700C0995FF91EF91BF91AF919F918F918C
:104A20007F916F915F914F913F912F910F900BBEAE
:104A30000F900FBE0F901F901895FC01A3E0440F3C
:104A4000551F661F771FAA95D1F7403080E05807A1
:104A500081E0680780E0780714F481E010C033E05B
:104A600075956795579547953A95D1F7403080E011
:104A7000580781E0680780E078071CF482E08283B1
:104A800039C023E075956795579547952A95D1F7D5
:104A9000403080E0580781E0680780E0780714F430
:104AA00083E0EDCF92E075956795579547959A9578
:104AB000D1F7403080E0580781E0680780E0780750
:104AC00014F484E0DCCF82E075956795579547959F
:104AD0008A95D1F7403080E0580781E0680780E090
:104AE000780714F485E0CBCF85E082834FEF5FEF4A
:104AF00060E070E08FB78383F894518340835093D4
:104B000087004093860083818FBF80918100887FDA
:104B100080938100809181009281892B8093810014
:104B200008951092800020E1209381000E941D25AD
:104B300008950F931F93CF93DF93EC018B0112160F
:104B400013061406150624F4BA01A9010E941D25B6
:104B50001D830C8381E080936F00809181009A8196
:104B6000892B80938100DF91CF911F910F91089540
:104B7000EFE6F0E080818E7F80830895FC01E55FA1
:104B8000FD4F119211921192119211921192119264
:104B900011921192119211921192119211921192FD
:104BA00011921192119211921192119211921192ED
:104BB00011921192119211921192119211921192DD
:104BC000119211921192118210820895FC01628358
:104BD0000895FC01E55FFD4F718360830895FC013A
:104BE000E35FFD4F718360830895FC01ED5DFD4F30
:104BF000718360830895FC01EB5DFD4F71836083D9
:104C00000895FC01E95DFD4F718360830895FC0107
:104C1000E75DFD4F718360830895FC01613F71057D
:104C200009F465C0623F710544F5603B710509F404
:104C30004FC0613B71056CF46039710509F442C0E5
:104C4000603A710509F441C06038710509F070C01F
:104C500036C0603D710509F441C0613D71052CF419
:104C6000603C710509F064C036C0603E7105C9F151
:104C7000603F710509F05CC037C06A3F710509F4F7
:104C800045C06B3F710574F4633F7105B1F1633F3B
:104C9000710584F1663F710599F1683F710509F06E
:104CA00047C031C06C3F7105B9F16C3F71058CF1A3
:104CB0006E3F7105A1F16F3F7105D1F535C0E55F1C
:104CC000FD4F2FC0E35FFD4F2CC0E15FFD4F29C0BA
:104CD000EF5EFD4F26C0ED5EFD4F23C0EB5EFD4F46
:104CE00020C0E95EFD4F1DC0E75EFD4F1AC0E55EC6
:104CF000FD4F17C0E35EFD4F14C0E15EFD4F11C0D4
:104D0000EF5DFD4F0EC0ED5DFD4F0BC0EB5DFD4F48
:104D100008C0E95DFD4F05C0E75DFD4F02C0E55DE0
:104D2000FD4F118210820895E35DFD4F11821082C4
:104D30000895CF93DF93EC01C95FDE4F888199819D
:104D4000C750D140813F910509F4D9C0823F9105F8
:104D50004CF5803B910509F467C0813B91056CF4EB
:104D60008039910509F44AC0803A910509F483C05D
:104D70008038910509F0FFC03AC0803D910509F4E3
:104D800092C0813D91052CF4803C910509F0F3C05F
:104D900091C0803E910509F44EC0803F910509F015
:104DA000EAC09CC08A3F910599F18B3F91058CF434
:104DB000833F910509F4C8C0833F91050CF4A6C058
:104DC000863F910509F4CDC0883F910509F0D3C015
:104DD0001CC08C3F910511F18C3F9105E4F08E3F92
:104DE0009105F9F08F3F910509F0C5C0BDC0C55FC1
:104DF000DD4F28813981CB50D24043C0C35FDD4FA6
:104E000028813981CD50D2403CC0CD5DDD4FAEC050
:104E1000CB5DDD4FABC0C95DDD4FA8C0C75DDD4FC9
:104E2000A5C0C55DDD4FA2C0CF5EDD4F28813981B1
:104E3000C151D24026C0C95EDD4FE881F981C7511A
:104E4000D240309709F497C0C65FDE4F688170E0AA
:104E50006F7770707695762F6627779567958A912C
:104E600090E08F779070682B792B60507042239779
:104E70008881099580C0C15FDD4F28813981CF507D
:104E8000D2402115310509F476C0FE01E75FFE4FDF
:104E9000DE01A65FBE4FCA5FDE4F888160814C9104
:104EA000F901099568C0CB5EDD4F28813981C55174
:104EB000D24006C0CD5EDD4F28813981C351D2403A
:104EC0002115310509F457C0FE01E75FFE4FCA5FA7
:104ED000DE4F88816081F90109954DC0C75EDD4FC5
:104EE000E881F981C951D240309709F444C0CE011C
:104EF000855F9E4FC75FDE4F688109953CC0C55EE8
:104F0000DD4FE881F981CB51D24024C0C35EDD4F33
:104F100048815981CD51D2404115510561F1C65F9B
:104F2000DE4F888190E08F7790709695982F882734
:104F300097958795FE01229130E02F773070822B74
:104F4000932BFA01099517C0C15EDD4FE881F98105
:104F5000CF51D240309779F0C75FDE4F88810995F5
:104F60000AC0CF5DDD4F02C0C35DDD4FE881F9812E
:104F7000309709F00995DF91CF91089581E79CE082
:104F80000E94BE2508950895CF93DF93EC018BED29
:104F90009FE00E944C2F181619060CF0FAC18038B9
:104FA000910529F48BED9FE00E94A62FF2C18BEDB5
:104FB0009FE00E947D2FCC5FDE4FE881F981C450D5
:104FC000D140309709F0EBC08B83998197FF0FC0D8
:104FD000943F69F0953F59F0993F49F09D3F39F072
:104FE000292F30E0903F28F4207F307002C020E06D
:104FF00030E0203B3105B1F0213B310554F420393C
:10500000310581F0203A310569F020383105B1F4DD
:1050100009C0203D310531F0203E310519F0203C1A
:10502000310561F487FD0AC09B838C83CC5FDE4F22
:1050300081E090E099838883C450D1402B8127FF81
:105040000FC0243F69F0253F59F0293F49F02D3F1B
:1050500039F0822F90E0203F28F4807F907002C0CA
:1050600080E090E0813F910509F473C0FE01EE5F9E
:10507000FE4F823F91054CF5803B910509F472C0CB
:10508000813B91056CF48039910509F46BC0803A3D
:10509000910509F467C08038910509F06EC062C0BF
:1050A000803D910509F455C0813D91052CF4803C6B
:1050B000910509F062C04DC0803E910509F452C0CF
:1050C000803F910509F059C052C0883F9105D1F049
:1050D000893F910564F4833F9105D9F1833F9105A0
:1050E0000CF440C0863F910509F047C00BC08A3FD1
:1050F00091050CF442C08D3F910524F08E5F9040E5
:105100000297D8F527FF0FC0243F69F0253F59F0DB
:10511000293F49F02D3F39F0822F90E0203F28F4BD
:10512000807F907002C080E090E0C95FDE4F99837D
:1051300088831A92239619921882C050DF4F81E01B
:105140008883C650D14019821882FE0112921292B1
:1051500021C1CE5FDE4F82E090E099838883C25008
:10516000D14014C083E090E0918380830FC08FEF23
:1051700090E091838083198209C0CC5FDE4F198251
:105180001882C450D14011821082A3C0FE01EC5F8E
:10519000FE4F80819181019691838083FAC087FFC1
:1051A00069C08D3F40F48A3F48F4873FB9F0883F9B
:1051B00009F060C003C08E3F08F45CC0FE01E95FE7
:1051C000FE4F80831182C75FDE4F199218822497A9
:1051D0001882CC5FDE4F81E08883DCC08B8187FF43
:1051E00070C0843F09F46DC0853F09F46AC0893FEF
:1051F00009F467C08D3F09F464C0282F30E0803F78
:1052000020F4C901807F907001C0C901803F9105E1
:1052100009F057C0FE0190E08381E55FFE4F808377
:105220009F5FEA50F1409F3FB9F7C95FDE4F80EFC3
:1052300090E099838883C750D140FE01EC5FFE4F18
:1052400080818F5FC75FDE4F888321968081918147
:105250000196988324971882CC5FDE4F81E0888383
:1052600011821082C850D14019821882C250D14098
:10527000198290C0EC0FFD1F8383FE01EC5FFE4F8F
:1052800020813181CE5FDE4F88819981C250D1402B
:1052900001972817390708F478C02B8127FF24C00D
:1052A000243F11F1253F01F1293FF1F02D3F99F005
:1052B000822F90E0203F10F4807F9070803F910516
:1052C00051F4CC5FDE4F198218821A921A92C250A2
:1052D000D14019825EC02D3F39F0822F90E0203FEF
:1052E00028F4807F907002C080E090E0C95FDE4FBC
:1052F00099838883C750D1408B818F708F5FCA5F3D
:10530000DE4F8883C650D1408C81C75FDE4F8883D3
:10531000279788819981C250D140FE01E65FFE4FF8
:10532000039719F48D81808301C01082CC5FDE4F1A
:10533000198218821A921A92C85FDE4F81E0888320
:10534000C350D14088819981C750D140803B91059D
:10535000B1F0813B910554F48039910581F0803A98
:10536000910569F08038910569F409C0803D910587
:1053700031F0803E910519F0803C910519F48B8144
:10538000898301C0198281E005C02F5F3F4F3183BF
:10539000208380E0DF91CF9108950F931F93CF93E7
:1053A000DF938C01EB016D3F710554F46A3F710589
:1053B00064F4663F710549F0683F710559F405C012
:1053C000CB018E5F9040029728F48BED9FE06C2F0D
:1053D0000E94B82FC63FD10511F4F8011082DF9169
:1053E000CF911F910F910895CF92DF92FF920F936B
:1053F0001F936C01F62E0BED1FE0C80163EF0E94B6
:10540000B82F8FE7F822C8016F2D0E94B82FF60140
:1054100010821F910F91FF90DF90CF900895CF924F
:10542000DF92EF92FF920F931F936C018B015BED64
:10543000E52E5FE0F52EC70162EF0E94B82F602FC6
:105440006F77C7010E94B82F000F012F001F110BAB
:1054500011950F77C701602F0E94B82FF6011082B7
:105460001F910F91FF90EF90DF90CF900895DF9202
:10547000EF92FF920F931F938C01D62E6BEDE62EC9
:105480006FE0F62EC70161EF0E94B82FC7016D2DA6
:105490000E94B82FF80110821F910F91FF90EF909A
:1054A000DF90089570E067707070E4E0660F771F1A
:1054B000EA95E1F74F70462B642F0E94372A089532
:1054C000CF92DF92EF92FF920F931F93CF93DF93D0
:1054D0006C017B018A01222319F0C0E0D0E023C0D7
:1054E0008BED9FE060EF0E94B82FC0E0D0E009C0D4
:1054F000F801EC0FFD1F8BED9FE060810E94B82F3B
:105500002196CE15DF05A4F38BED9FE067EF0E9497
:10551000B82F0CC0F801EC0FFD1F8BED9FE06081F0
:105520000E94B82F2196CE15DF05A4F3F601108254
:10553000DF91CF911F910F91FF90EF90DF90CF906F
:105540000895FF920F931F93CF93DF93FC01EB011C
:10555000142FF22E0150003118F46038710514F444
:1055600010822BC0613E7105FCF4602F6F706C2BB4
:105570008081861729F060838BED9FE00E94B82F11
:105580001F778BED9FE0612F0E94B82FC03CD105A3
:10559000A1F0C03DD10589F08FE7F8228BED9FE0A7
:1055A0006F2D0E94B82F09C0663F710534F06F3F20
:1055B000710509F014F40E94CD29DF91CF911F915C
:1055C0000F91FF9008950F93DC01A15DBD4F8C9169
:1055D000AF52B240882309F4A2C0A05DBD4F2D9107
:1055E0003C911197A053B2402115310509F497C0A1
:1055F000A95FBE4F6D917C911197A750B140CB012F
:10560000805890408136910558F5AA5FBE4F0C91A5
:10561000A650B14012969C911297091719F080E09C
:10562000992309F481E02230310541F0233031051E
:1056300049F02130310509F072C007C0882309F410
:105640006EC003C0882309F06AC0FD01E65FFE4F0B
:10565000CD01A75FBE4F4C9120810E94A12A5FC05F
:10566000663F710531F1673F7105A4F4613F710533
:1056700009F44BC0623F71052CF4603F710509F0DD
:105680004EC01BC0623F710569F1633F710509F0AF
:1056900046C021C06D3F71053CF46A3F71054CF472
:1056A000683F7105E1F505C0CB018E5F9040029720
:1056B000B0F5CD010E94CD2932C0A75FBE4F6C91DD
:1056C000A950B140CD0170E0A55FBE4FAD0121E012
:1056D0000E94602A24C0CD01A75FBE4F6C910E943A
:1056E000F4291DC0A65FBE4F6C9170E07695762FB1
:1056F0006627779567958E91A950B14090E0682B09
:10570000792BCD010E940F2A0AC0FD01E65FFE4FF2
:10571000CD01A75FBE4F6C9140810E94522A0F912C
:1057200008951F93CF93DF93EC01162F6131D8F4C6
:105730000E94C4278823B9F0C95FDE4F8881998110
:10574000C750D140009779F080589040813691053C
:1057500078F49A81CA5FDE4F8881C650D14089179C
:1057600039F0992329F080E0DF91CF911F910895BE
:10577000CE01612F0E94E32ACE010E94992681E08A
:10578000F3CFFC0162810E94912B0895FF920F9349
:105790001F938C01F62E8BED9FE042E15AE760E00B
:1057A00070E00E94C62EF8011082F28211820C5F16
:1057B0001E4FF80111821082129212928F01085F1F
:1057C0001E4FF801108203501140F801118210821F
:1057D00012928F010D5F1F4FF80111928F011082FD
:1057E0000A5D1E4F81E090E0F8019183808381E0A3
:1057F00082931F910F91FF9008951F920F920FB601
:105800000F9211242F933F938F939F93AF93BF9346
:105810008091A70E9091A80EA091A90EB091AA0E0A
:105820003091AB0E0196A11DB11D232F2D5F2D3799
:1058300020F02D570196A11DB11D2093AB0E809332
:10584000A70E9093A80EA093A90EB093AA0E8091D4
:10585000A30E9091A40EA091A50EB091A60E019654
:10586000A11DB11D8093A30E9093A40EA093A50E2D
:10587000B093A60EBF91AF919F918F913F912F91C1
:105880000F900FBE0F901F9018958FB7F89420912E
:10589000A70E3091A80E4091A90E5091AA0E8FBF6D
:1058A000B901CA0108959B01AC017FB7F8948091BA
:1058B000A30E9091A40EA091A50EB091A60E66B570
:1058C000A89B05C06F3F19F00196A11DB11D7FBFB8
:1058D000BA2FA92F982F8827860F911DA11DB11DC2
:1058E00062E0880F991FAA1FBB1F6A95D1F7BC0100
:1058F0002DC0FFB7F8948091A30E9091A40EA091B3
:10590000A50EB091A60EE6B5A89B05C0EF3F19F015
:105910000196A11DB11DFFBFBA2FA92F982F88276F
:105920008E0F911DA11DB11DE2E0880F991FAA1FC6
:10593000BB1FEA95D1F7861B970B885E9340C8F290
:10594000215030404040504068517C4F2115310576
:105950004105510571F60895019739F0880F991F97
:10596000880F991F02970197F1F70895789484B5ED
:10597000826084BD84B5816084BD85B5826085BD4B
:1059800085B5816085BDEEE6F0E080818160808331
:10599000E1E8F0E010828081826080838081816014
:1059A0008083E0E8F0E0808181608083E1EBF0E0DB
:1059B000808184608083E0EBF0E08081816080837F
:1059C000E1E9F0E080818260808380818160808372
:1059D000E0E9F0E0808181608083EAE7F0E08081A7
:1059E0008460808380818260808380818160808305
:1059F0008081806880831092C1000895482F50E014
:105A0000CA0186539F4FFC01249146555F4FFA010E
:105A100084918823C1F0E82FF0E0EE0FFF1FE457D8
:105A2000FF4FA591B491662341F49FB7F8948C91F0
:105A3000209582238C939FBF08959FB7F8948C91F3
:105A4000822B8C939FBF08958430C9F0853038F441
:105A50008230F1F0833078F4813099F516C08730C8
:105A6000F9F0883018F4863061F516C08830F1F00E
:105A7000893039F521C0809180008F7703C08091F3
:105A800080008F7D80938000089584B58F7702C059
:105A900084B58F7D84BD08958091B0008F7703C059
:105AA0008091B0008F7D8093B00008958091900028
:105AB0008F77809390000895809190008F7D8093E0
:105AC00090000895FF920F931F93F62E482F50E0F9
:105AD000CA0186519F4FFC012491CA0186539F4FF2
