:020000021000EC
:10F800000C9446FC0C9465FC0C9465FC0C9465FC13
:10F810000C9465FC0C9465FC0C9465FC0C9465FCE4
:10F820000C9465FC0C9465FC0C9465FC0C9465FCD4
:10F830000C9465FC0C9465FC0C9465FC0C9465FCC4
:10F840000C9465FC0C9465FC0C9465FC0C9465FCB4
:10F850000C9465FC0C9465FC0C9465FC0C9465FCA4
:10F860000C9465FC0C9465FC0C9465FC0C9465FC94
:10F870000C9465FC0C9465FC0C9465FC0C9465FC84
:10F880000C9465FC0C9465FC0C9465FC11241FBE63
:10F89000CFEFD0E4DEBFCDBF11E0A0E0B1E0EAEEF3
:10F8A000FCEF01E00BBF02C007900D92A630B1073C
:10F8B000D9F714E0A6E0B1E001C01D92A731B1076D
:10F8C000E1F70E9444FE0C9473FE0C9400FC982F08
:10F8D0008091C80085FFFCCF9093CE000895EF92F1
:10F8E000FF920F931F93EE24FF24870113C0089407
:10F8F000E11CF11C011D111D81E0E81682E1F806F2
:10F900008AE7080780E0180728F0E0910C01F091E1
:10F910000D0109958091C80087FFE9CF8091CE0045
:10F920001F910F91FF90EF90089540E027E030E0A5
:10F9300083B190E08074907056E0959587955A95C4
:10F94000E1F7022E02C0880F991F0A94E2F7482BB4
:10F950002F9A2F98215030408FEF2F3F380741F7D3
:10F96000842F0895382F20E090E8892F832389176A
:10F9700011F42D9A01C02D982F9A2F982F5F2830BF
:10F9800011F09695F2CF08951F93CF93DF93182F20
:10F99000C0E9D1E01FC02C988FEF0E94B2FC8FEF1E
:10F9A0000E94B2FC2C9A88EE93E0FE013197F1F7A9
:10F9B0000197D9F72C9880E00E94B2FC80E00E9469
:10F9C000B2FC2C9A88EE93E0FE013197F1F7019793
:10F9D000D9F711501123F9F6DF91CF911F910895B6
:10F9E0002B9A0E9495FC2B9808951F93182F2C9802
:10F9F000892F0E94B2FC812F0E94B2FC2C9A1F9189
:10FA00000895AF92BF92CF92DF92EF92FF920F9341
:10FA10001F93CF93DF935B016C017FB7F894F99943
:10FA2000FECF83E0F501C0925B0080935700E8951C
:10FA300007B600FCFDCFEA01EE24FF24870161E058
:10FA4000A80197012A0D3B1D4C1D5D1DB981A0E049
:10FA5000888190E08A2B9B2B0C01F90140935B007D
:10FA600060935700E8951124229622E030E040E0B0
:10FA700050E0E20EF31E041F151F30E0E31631E0E4
:10FA8000F30630E0030730E01307D1F685E0F50117
:10FA9000C0925B0080935700E89507B600FCFDCF4D
:10FAA00081E180935700E8957FBFDF91CF911F914F
:10FAB0000F91FF90EF90DF90CF90BF90AF9008959F
:10FAC0006F927F928F929F92BF92CF92DF92EF922E
:10FAD000FF920F931F93DF93CF9300D0CDB7DEB784
:10FAE000109206011092070110920801109209016C
:10FAF00000E010E088249924BB24EE24CC24DD24EB
:10FB00003E010894611C711C05C0FE2C00E010E051
:10FB1000BB24EF2C0E946FFC982F813F18F0873F89
:10FB200009F05DC082E0B816E1F083E0B816E9F1B3
:10FB3000BB2009F054C0F801E050FF4F80819817B6
:10FB400021F0FE2C00E010E0E4CF0F5F1F4F0530E6
:10FB5000110509F044C0FE2C00E010E072E0B72E61
:10FB6000D8CF97FD17C0F301E00FF11F90830F5F0F
:10FB70001F4F0230110599F50894C11CD11CC60114
:10FB80000E94F5FC00E010E08824992463E0B62E82
:10FB9000FF24BFCF80E090E00E94F5FCFE2C00E047
:10FBA00010E0BB24CC24DD24B4CF97FD1AC0F401AF
:10FBB000EE5EFD4F00FF0EC09F708081982B9083FA
:10FBC0008FEF8816910409F008F4E90E0894811C5F
:10FBD000911C03C09295907F90830F5F1F4FFE2C66
:10FBE00098CF973FE1F799819F3729F48A8188233D
:10FBF00011F4012BC9F181E0881681E0980609F023
:10FC000084CF9E3709F081CF8A81882309F07DCF88
:10FC1000F0901203FE1409F078CF60910601709104
:10FC20000701809108019091090142E152E00E9490
:10FC300001FD8091060190910701A0910801B0910A
:10FC4000090180509F4FAF4FBF4F809306019093A3
:10FC50000701A0930801B09309010894C11CD11CAD
:10FC6000C6010E94F5FC52CF0F900F90CF91DF910B
:10FC70001F910F91FF90EF90DF90CF90BF909F90DA
:10FC80008F907F906F90089584B714BE809160002C
:10FC90008861809360001092600082E080930A0186
:10FCA0008FE18093CC001092CD001092C80086E0C6
:10FCB0008093CA0088E18093C9008FEB84B90E94C9
:10FCC000F0FC853141F482E00E94C4FC0E9460FD9A
:10FCD00082E00E94C4FCE0910C01F0910D010995B5
:0AFCE00080E090E00895F894FFCF53
:06FCEA00F07D0808028015
:040000031000F800F1
:00000001FF
